:020000040800F2
:10000000A009002009120008A9030008AB0300089A
:10001000AF030008B3030008B703000800000000A6
:10002000000000000000000000000000BB0300080A
:10003000BD03000800000000BF030008C103000862
:1000400023120008231200082312000823120008BC
:1000500023120008231200082312000823120008AC
:10006000231200082312000823120008231200089C
:10007000231200082312000823120008231200088C
:10008000231200082312000823120008231200087C
:10009000231200082312000823120008231200086C
:1000A000231200082312000823120008231200085C
:1000B000231200082312000823120008231200084C
:1000C000231200082312000823120008231200083C
:1000D000231200087D1100082312000823120008D3
:1000E000231200082312000823120008231200081C
:1000F000231200082312000823120008231200080C
:1001000023120008231200082312000823120008FB
:1001100023120008231200082312000823120008EB
:1001200023120008231200082312000823120008DB
:1001300000F002F800F05AF80AA090E8000C82449F
:100140008344AAF10107DA4501D100F04FF8AFF27C
:10015000090EBAE80F0013F0010F18BFFB1A43F0A5
:1001600001031847483B0000683B00000A444FF079
:10017000000C10F8013B13F0070408BF10F8014B06
:100180001D1108BF10F8015B641E05D010F8016B4B
:10019000641E01F8016BF9D113F0080F1EBF10F8AF
:1001A000014BAD1C0C1B09D16D1E58BF01F801CBD2
:1001B000FAD505E014F8016B01F8016B6D1EF9D555
:1001C0009142D6D37047000000230024002500266A
:1001D000103A28BF78C1FBD8520728BF30C148BFAA
:1001E0000B6070471FB51FBD10B510BD01F023FE99
:1001F0001146FFF7F7FF00F009F801F041FE03B4E4
:10020000FFF7F2FF03BC00F05FFF00001CB52024E5
:1002100000F0F0FE00F018FE00F0C6FE002000F036
:100220004BFA002000F056FA00F086FA00205349FD
:100230000860A2E00120524920234022CDE90010AD
:100240000021084600F082FD00F076FA4FF4FA70C3
:1002500000F00DFF00F0A2FA012010230022114649
:100260000090082000F0A4FC012010230246002189
:100270000090182000F09CFC012010230222002195
:100280000090282000F094FC012010233DA2194684
:100290000090042000F016FC00F04EFA4FF4FA70C3
:1002A00000F0E5FE00F07AFA0120102337A20021C9
:1002B0000090084600F006FC0120102335A21946E4
:1002C0000090002000F0FEFB0120102322460021B8
:1002D0000090302000F05AFB601CC4B27E2C00DD80
:1002E00020240120102103232246CDE900102820DC
:1002F00000F018FC00F020FA4FF4FA7000F0B7FE9E
:1003000000F04CFA0120182300220421009010462E
:1003100000F04EFC012020230022114600901820FE
:1003200000F046FC00F008FA4FF4FA7000F09FFE6F
:1003300000F034FA01200C2318A200210090084696
:1003400000F0C0FB0120102315A2002100901846E8
:1003500000F0B8FB0120182312A2002100902420F5
:1003600000F0B0FB00F0E8F94FF4FA7000F07FFE07
:10037000012204210B2000F095FC5BE794812142CF
:1003800000000020323031392F30320041534349D0
:10039000493A0000434F44453A0000004100000044
:1003A0004200000043000000704700BFFEE700BFAE
:1003B000FEE700BFFEE700BFFEE7704770477047EB
:1003C000704700000CB50020019000906C48006858
:1003D00040F480306A49086000BF6948006800F452
:1003E000003000900198401C0190009818B90198C5
:1003F000B0F5A06FF1D16248006800F4003010B190
:100400000120009001E0002000900098012843D1D5
:100410005C48006840F010005A49086008460068CF
:1004200020F0030008600846006840F00200086001
:10043000534840685249486008464068486008464A
:10044000406840F4806048600846406820F47C10B2
:1004500048600846406840F4E81048600846006874
:1004600040F08070086000BF4548006800F00070F0
:100470000028F9D04248406820F003004049486015
:100480000846406840F00200486000BF3C484068B1
:1004900000F00C000828F9D10CBD10B5FFF792FF51
:1004A00010BD10B53648006840F0010034490860BE
:1004B00008464068344908403149486008460068A9
:1004C000324908402E4908600846006820F4802020
:1004D00008600846406820F4FE0048604FF41F00A2
:1004E0008860FFF7DAFF4FF000602949086010BD0F
:1004F00010B5002100200022214B5B6803F00C01A5
:1005000021B1042906D0082928D107E0214B224C2B
:10051000236027E01F4B204C236023E0184B5B68CF
:1005200003F47010164B5B6803F48032022303EB74
:10053000904022B9194B4343174C23600DE0104BF8
:100540005B6803F4003323B1144B4343124C236024
:1005500003E0104B4343104C236003E00D4B0E4C63
:10056000236000BF00BF064B5B68C3F303130C4C52
:10057000E15C094B1B68CB40074C236010BD0000B9
:1005800000100240002002400000FFF8FFFFF6FECE
:1005900008ED00E000127A000001002000093D0093
:1005A00004010020012000BF011EA0F10102D0B211
:1005B000FAD1704710B52021FB4800F0C2FF4FF47C
:1005C0008051FA4800F0BBFFFFF7ECFF2021F6480E
:1005D00000F0B5FF10BD10B52021F34800F0AFFFCB
:1005E000FFF7E0FF4FF48051F04800F0A8FFFFF75D
:1005F000D9FF4FF48051ED4800F0A3FFFFF7D2FF81
:1006000010BD70B5044600251DE004F0800020B147
:100610002021E54800F093FF03E02021E24800F0AC
:1006200090FFFFF7BFFF4FF48051E04800F087FFD5
:10063000FFF7B8FF4FF48051DC4800F082FF6006FE
:10064000040E681CC5B2082DDFDB70BD10B520217B
:10065000D54800F074FF4FF48051D44800F06FFF8C
:10066000FFF7A0FF2021D04800F06BFFFFF79AFFB3
:100670004FF48051CD4800F064FFFFF793FF10BDA9
:1006800070B505460C46FFF7E1FF7820FFF7B9FF8C
:10069000FFF7A1FF1CB14020FFF7B3FF02E00020ED
:1006A000FFF7AFFFFFF797FF2846FFF7AAFFFFF717
:1006B00092FFFFF77FFF70BD10B504461CB9002103
:1006C000A620FFF7DDFF012C03D10021A720FFF7B3
:1006D000D7FF10BD10B504463CB90021C820FFF774
:1006E000CFFF0021A120FFF7CBFF012C07D1002174
:1006F000C020FFF7C5FF0021A020FFF7C1FF10BDFC
:1007000010B500218D20FFF7BBFF00211420FFF75B
:10071000B7FF0021AF20FFF7B3FF10BD10B50021D8
:100720008D20FFF7ADFF00211020FFF7A9FF00216A
:10073000AE20FFF7A5FF10BD70B500242BE004F13B
:10074000B001C8B20021FFF79BFF00210846FFF768
:1007500097FF00211220FFF793FFFFF777FF782024
:10076000FFF74FFFFFF737FF4020FFF74AFFFFF784
:1007700032FF002509E08E4901EB8501085DFFF796
:1007800040FFFFF728FF681CC5B2402DF3DBFFF7E1
:1007900011FF601CC4B2042CD1DB70BD70B5002405
:1007A0000CE0002506E00020814901EB8501085599
:1007B000681CC5B2402DF6DB601CC4B2042CF0DB13
:1007C000FFF7BAFF70BDF0B514460B46CF1701EB2B
:1007D0005777C7F3C702CF1701EB5777FF10A1EB8D
:1007E000C707FEB20123B340DDB24CB1704B03EB3F
:1007F00080039B5C2B436E4F07EB8007BB541AE0D2
:100800006B4B03EB80039B5CDB43694F07EB80077B
:10081000BB54674B03EB80039B5C2B43644F07EB9C
:100820008007BB54624B03EB80039B5CDB43604F50
:1008300007EB8007BB54F0BD2DE9FF4F84B0814624
:100840008A460020029083460698A0EB0904079888
:10085000A0EB0A06CDF80490CDF800A0002C01DD35
:10086000012705E00CB9002702E04FF0FF37644292
:10087000002E02DD4FF0010806E016B94FF0000827
:1008800002E04FF0FF386642B44201DD254600E049
:100890003546002003901EE0009AD1B2019AD0B2F2
:1008A000119AFFF790FF029820440290B3440298F7
:1008B000A84205DD0298401B02900198384401903F
:1008C000AB4504DDABEB050B00984044009003986A
:1008D000401C80B20390691C03988842DCDB08B09E
:1008E000BDE8F08F2DE9F04306460F4690460025FF
:1008F000444643E03A1BD1B27219D0B20122FFF74D
:1009000062FF3A1BD1B2721BD0B20122FFF75BFF2C
:100910003A19D1B2721BD0B20122FFF754FF3A1933
:10092000D1B27219D0B20122FFF74DFF7A19D1B2BC
:100930003219D0B20122FFF746FF7A1BD1B2321929
:10094000D0B20122FFF73FFF7A1BD1B2321BD0B2E7
:100950000122FFF738FF7A19D1B2321BD0B201223F
:10096000FFF731FF6D1C05FB05F004FB040008FBDD
:100970001809B9F1000F01DD641E6D1E60006043AF
:1009800008FB08F18842B5DABDE8F0832DE9FE4F97
:100990000746884692461C460197CDF80080082CF1
:1009A00008D14FF0060925E0001401400020014065
:1009B000340100202046E31704EB5373DB1021467B
:1009C0004FEAE47C04EB5C7C4FEAEC0CA4EBCC0C2F
:1009D000BCF1000F02D04FF0010C01E04FF0000C11
:1009E0006344224604EBD27C4FEA6C0C03FB0CF30D
:1009F00003F0FF09AAF12000C6B200255EE0082C32
:100A000007D106EB4600FE4901EB400010F805B0A7
:100A10001DE00C2C07D106EB4600FA4901EB8000E3
:100A200010F805B013E0102C05D1F74800EB0610C4
:100A300010F805B00BE0182C07D106EBC600F349FF
:100A400001EB800010F805B001E0BDE8FE8F00204A
:100A500002901CE00BF0010028B1414638460C9A88
:100A6000FFF7B1FE09E00C9808B9012000E0002072
:100A7000024641463846FFF7A6FE4FEA6B0B08F1E7
:100A8000010000F0FF080298401CC0B202900298DA
:100A90000828DFDB781CC7B2082C0BD004EBD4711C
:100AA0004A100199791A8A4204D1019F00980830AE
:100AB000C0B20090DDF80080681CC5B24D459EDBD9
:100AC00000BFC2E72DE9F84106460F4614461D4611
:100AD000DDF81C8013E0CDF8008022782B463946E3
:100AE0003046FFF753FF082D02D1B01DC6B205E016
:100AF000284605EBD07106EB6101CEB2641C20786C
:100B0000202802DB20787E28E5DDBDE8F88110B5DD
:100B10000246012000E050430B1EA1F10104E1B2A6
:100B2000F9D110BD2DE9FF4F82B0064691461F4610
:100B3000DDE90F4A4FF0000B082C01D14FF0020BFA
:100B4000002530E0781B401EC1B20A20FFF7DFFF0E
:100B5000B9FBF0F00A21B0FBF1F201FB1208B8F189
:100B6000000F0ED104EBD4710BEB610101FB0561A9
:100B7000C8B223463022CDE900A40399FFF706FF4F
:100B80000FE004EBD4710BEB610101FB0561C8B20E
:100B900008F13001CAB22346CDE900A40399FFF75A
:100BA000F5FE681CC5B2BD42CCDB06B0BDE8F08FD7
:100BB0002DE9FC4F0746884616461C46BB46CDF835
:100BC00004802046E21704EB5272D2102146E3174C
:100BD00004EB5373DB10A4EBC3030BB1012300E060
:100BE00000231A44624392B20092002555E0102C73
:100BF00005D1874800EB461010F805A01BE0182C23
:100C000007D106EBC600834901EBC00010F805A030
:100C100011E0202C05D1804800EBC61010F805A08B
:100C200009E0402C05D17D4800EB462010F805A0D6
:100C300001E0BDE8FC8F4FF000091CE00AF0010064
:100C400028B1414638460B9AFFF7BDFD09E00B98E5
:100C500008B9012000E00020024641463846FFF76F
:100C6000B2FD4FEA6A0A08F1010000F0FF0809F13D
:100C7000010000F0FF09B9F1080FDFDB781CC7B2F3
:100C8000A7EB0B00A04204D15F4601980830C0B228
:100C90000190DDF80480681C85B200988542A6DBCF
:100CA00000BFC6E708B58046894692460026002761
:100CB0004BE04FB91023324608214020CDF800A068
:100CC000FFF776FF701CC6B2464522D14FF0000BED
:100CD0001AE0012410E000250AE0514800EB8400EE
:100CE000415D601E4E4A02EB80004155681CC5B252
:100CF000042DF2DB601CC4B2502CECDBFFF71CFDB2
:100D00000BF1010000F0FF0B4FEA09105845E0DC41
:100D10000026781CC7B2102F00D10027012410E054
:100D200000250AE03E4800EB8400415D601E3C4A1D
:100D300002EB80004155681CC5B2042DF2DB601C3B
:100D4000C4B2502CECDBFFF7F7FCB2E72DE9FF4F04
:100D500005460E4617461C46DDF838904FF0000A4F
:100D60000095B3462046E21704EB5272D21021469A
:100D7000E31704EB5373DB10A4EBC3030BB10123A4
:100D800000E000231A44D4B24FF0000858E00020DD
:100D900003904EE00D9810F80A0002900AF101004D
:100DA0001FFA80FA002001901DE0029800F0010077
:100DB00028B14A4631462846FFF705FD0AE0B9F159
:100DC000000F01D1012000E00020024631462846F4
:100DD000FFF7F9FC029840100290701CC6B201980F
:100DE000401CC0B2019001980828DEDB681CC5B227
:100DF0000098281AB84217D1009D0BF1080011E0A5
:100E00009C1E0008C420000838250008282B000874
:100E100084380008E43900082C3A0008AC3A00088D
:100E20003401002000F0FF0B5E460398401CC0B266
:100E300003900398B842ADDB08F1010000F0FF0811
:100E4000A045A4DBBDE8FF8F08B501214FF49070E9
:100E500000F084FD4FF48050ADF8000014208DF8B0
:100E6000030003208DF8020069464D4800F0BAFAED
:100E70004FF480514A4800F062FB2020ADF800009A
:100E800014208DF8030003208DF8020069464548C0
:100E900000F0A8FA2021434800F051FB1020ADF8E3
:100EA00000008DF8030003208DF8020069463D48DC
:100EB00000F098FA10213B4800F041FB102139481E
:100EC00000F03FFBC82000F0D2F81021354800F0B8
:100ED00036FB0021AE20FFF7D3FB00210846FFF7C9
:100EE000CFFB00211220FFF7CBFB00210846FFF7C4
:100EF000C7FB0021B020FFF7C3FB00218120FFF7D3
:100F0000BFFB00214F20FFF7BBFB0021A120FFF713
:100F1000B7FB0021A620FFF7B3FB0021A820FFF7B5
:100F2000AFFB00211F20FFF7ABFB0021C820FFF71C
:100F3000A7FB0021D320FFF7A3FB00210846FFF702
:100F40009FFB0021D520FFF79BFB00218020FFF7AE
:100F500097FB0021D920FFF793FB00211F20FFF70B
:100F60008FFB0021DA20FFF78BFB00211220FFF717
:100F700087FB0021DB20FFF783FB00214020FFF7E8
:100F80007FFB00218D20FFF77BFB00211420FFF762
:100F900077FBFFF703FC0021AF20FFF771FB08BDD3
:100FA000002001400014014008B50121482000F054
:100FB000D5FC2020ADF8000010208DF803000320A0
:100FC0008DF802006946094800F00CFA2021074814
:100FD00000F0B5FA2020ADF800006946044800F0A2
:100FE00001FA2021024800F0AAFA08BD000C0140D5
:100FF0000018014010B56FF0040000F074F92E489D
:1010000000682E49B0FBF1F02D49087008460078C1
:1010100000EB4001C1EBC0104FF6FF7101EAC000C8
:101020002849088010BD0146254A12784A434FF0EE
:10103000E0235A6100229A611A46126942F00102C5
:101040001A6100BF4FF0E022106900F001021AB1EE
:1010500000F48032002AF5D04FF0E022126922F02D
:1010600001024FF0E0231A6100229A6170470146A5
:10107000144A12884A434FF0E0235A6100229A61D1
:101080001A46126942F001021A6100BF4FF0E022D5
:10109000106900F001021AB100F48032002AF5D084
:1010A0004FF0E022126922F001024FF0E0231A61B2
:1010B00000229A61704700000001002000127A00AF
:1010C000140100201601002000BF704700BF4A4AEB
:1010D000128802F04002002AF9D0C2B2464B1B1D12
:1010E0001A80704710B586B00446012144F205000D
:1010F00000F034FC4FF40070ADF8140003208DF8BC
:10110000160018208DF8170005A93C4800F06AF970
:101110004FF48060ADF8140004208DF8170005A985
:10112000364800F05FF925208DF8000003208DF887
:1011300001008DF8020001208DF80300684600F0E0
:1011400088F801940020ADF80800ADF80A00ADF869
:101150000C00ADF810000C20ADF80E0001A92648D7
:1011600000F0A3FC012240F22551234800F035FD98
:101170000121214800F025FD06B010BD10B540F258
:1011800025511D4800F00EFE10B31B4800F08AFDEB
:10119000C4B21B48008800F40040C8B91848008851
:1011A00000F4804060B10A2C03D00020144908806C
:1011B00020E01348008840F400401149088019E0FD
:1011C0000D2C06D10E48008840F480400C49088060
:1011D00010E00B480088C0F30D000A490C54084881
:1011E0000088401C0649088008460088C72801DDA1
:1011F0000020088010BD00000038014000080140B8
:101200001C0100207402002009488047094800475B
:10121000FEE7FEE7FEE7FEE7FEE7FEE7FEE7FEE7A6
:10122000FEE7FEE704480549054A064B7047000003
:10123000A304000831010008A0030020A009002039
:10124000A0050020A005002031490143314A11606A
:10125000704770B5002100230F22C47804B32D4CD1
:10126000246804F4E064C4F5E064210AC1F10403D5
:10127000CA40447804FA03F18478144021430901F8
:10128000254C0678A155047804F01F050124AC40D4
:1012900005786D11AD0005F1E025C5F8004109E0C4
:1012A000047804F01F050124AC401C4D067876112B
:1012B00045F8264070BD1A4A0A400243154B1B1FD1
:1012C0001A60704739B1134A121D12680243114B5C
:1012D0001B1D1A6006E00F4A121D126882430D4B57
:1012E0001B1D1A607047042808D14FF0E0210969DE
:1012F00041F004014FF0E022116107E04FF0E021DE
:10130000096921F004014FF0E022116170470000EB
:101310000000FA050CED00E000E400E080E100E0F0
:1013200080FFFF1F10B50446CC48844208D101213C
:10133000042000F02DFB0021042000F029FB46E0F2
:10134000C748844208D10121082000F021FB002178
:10135000082000F01DFB3AE0C248844208D1012178
:10136000102000F015FB0021102000F011FB2EE0F2
:10137000BD48844208D10121202000F009FB002152
:10138000202000F005FB22E0B848844208D101216A
:10139000402000F0FDFA0021402000F0F9FA16E0AC
:1013A000B348844208D10121802000F0F1FA0021E5
:1013B000802000F0EDFA0AE0AE48844207D1012116
:1013C000801500F0E5FA0021A01500F0E1FA10BD4B
:1013D00010B50121084600F0DBFA0021012000F0E1
:1013E000D7FA10BD2DE9F041024600250026002065
:1013F00000230024002791F803C00CF00F0591F89A
:1014000003C00CF0100CBCF1000F03D091F802C027
:101410004CEA050591F800C0BCF1000F31D014680A
:1014200000202BE04FF0010C0CFA00F3B1F800C0E3
:101430000CEA03069E4220D183004FF00F0C0CFAF9
:1014400003F7BC4305FA03FC4CEA040491F803C01B
:10145000BCF1280F06D14FF0010C0CFA00FCC2F8C9
:1014600014C00AE091F803C0BCF1480F05D14FF059
:10147000010C0CFA00FCC2F810C0401C0828D1D3A3
:101480001460B1F800C0BCF1FF0F34DD54680020D7
:101490002EE000F1080C4FF0010808FA0CF3B1F847
:1014A00000C00CEA03069E4221D183004FF00F0CCE
:1014B0000CFA03F7BC4305FA03FC4CEA040491F868
:1014C00003C0BCF1280F05D100F1080C08FA0CF894
:1014D000C2F8148091F803C0BCF1480F07D100F1A5
:1014E000080C4FF0010808FA0CF8C2F81080401CF4
:1014F0000828CED35460BDE8F0814FF6FF7101801B
:10150000022181700421C170704702460020936857
:101510000B400BB1012000E00020704701468868B5
:1015200080B2704702460020D3680B400BB1012007
:1015300000E0002070470146C86880B27047016132
:101540007047416170470AB1016100E04161704735
:10155000C16070474FF480320A43826181618261C9
:1015600082698269704702460020434B18684FF633
:101570008073184040EA021008433F4B18607047E0
:101580003E49C8617047F0B50A4600230024002197
:10159000002500F00046B6F1004F02D1364EF16949
:1015A00001E0354E7168C0F3034583B200F4401684
:1015B000B6F5401F08D121F070612F4E766826F0F5
:1015C00070662D4F7E6012E000F48016B6F5801F25
:1015D00006D1032606FA05F4A14341F0706106E046
:1015E000460D360103FA06F6B14341F0706122B1AF
:1015F000460D360103FA06F6314300F00046B6F117
:10160000004F02D11C4EF16101E01B4E7160F0BD34
:1016100030B500228B071C0F0F2303FA04F2164B80
:1016200008338C1053F824309343134C08348D1036
:1016300044F8253023468C1053F824308C07240FAF
:1016400000FA04F423430C4C08348D1044F8253080
:1016500030BD0A49DC3108607047000000080140D5
:10166000000C01400010014000140140001801402E
:10167000001C014000200140000001400000204209
:10168000DF48006840F00100DD4908600846406816
:10169000DC490840DA49486008460068DA490840F1
:1016A000D74908600846006820F480200860084692
:1016B000406820F4FE0048604FF41F0088607047C7
:1016C000CF49096821F48031CD4A1160114609687B
:1016D00021F480211160B0F5803F03D0B0F5802F58
:1016E0000ED106E0C649096841F48031C44A116050
:1016F00007E0C349096841F4A021C14A116000E034
:1017000000BF00BF704710B5014600220023002033
:101710004A11012A02D1BA4C236806E0022A02D1FA
:10172000B74C236A01E0B64C636A01F01F02012442
:1017300094401C400CB1012000E0002010BD38B5E1
:10174000002000900024002500BF3120FFF7DBFFC0
:1017500005460098401C00900098B0F5A06F01D09D
:10176000002DF2D03120FFF7CEFF08B1012400E0B8
:101770000024204638BD01460020A14A106820F010
:10178000F80040EAC10010607047A0490860704747
:10179000024600209A4B586820F47C1042EA01036C
:1017A0001843974B58607047984908667047014640
:1017B0000020934A506820F00300084350607047AF
:1017C0008F48406800F00C007047014600208C4AAA
:1017D000506820F0F0000843506070470146002038
:1017E000874A506820F4E060084350607047014623
:1017F0000020834A506820F4605040EAC1005060E5
:10180000704729B17E4A527A02437D4B5A7204E0F6
:101810007B4A527A82437A4B5A7270477B49D8315D
:101820000860704701460020754A506820F4404027
:101830000843506070470021714A20321170704A8D
:1018400082F82010012802D004280AD104E00121E6
:101850006B4A2032117005E00521694A203211706F
:1018600000E000BF00BF70476949086070476449E5
:10187000096A0143624A1162704765494439086048
:10188000704730B500210022002400235C4D6D68B4
:1018900005F00C0121B1042905D0082923D105E068
:1018A0005C4D056022E05B4D05601FE0544D6D68A6
:1018B00005F47012524D6D6805F48034022505EB75
:1018C00092421CB9544D554305600BE04C4D6D6878
:1018D00005F400351DB1504D5543056002E04D4DF6
:1018E0005543056002E04B4D056000BF00BF444D0D
:1018F0006D6805F0F0010909484D6B5C0568DD4035
:1019000045603F4D6D6805F4E061090A434D6B5C2D
:101910004568DD4085603A4D6D6805F46051C90A3F
:101920003E4D6B5C4568DD40C560354D6D6805F426
:101930004041890B3A4D6B5CC568B5FBF3F5056119
:1019400030BD29B12E4A526902432D4B5A6104E041
:101950002B4A526982432A4B5A61704729B1284A5F
:1019600092690243264B9A6104E0254A92698243B8
:10197000234B9A61704729B1214AD2690243204B17
:10198000DA6104E01E4AD26982431D4BDA61704776
:1019900029B11B4AD2680243194BDA6004E0184AA5
:1019A000D2688243164BDA60704729B1144A126933
:1019B0000243134B1A6104E0114A12698243104B2F
:1019C0001A61704712494039086070470F49C8646E
:1019D00070470B49C87170470948406A40F08070F1
:1019E00007494862704701460020054A92680A404C
:1019F0000AB1012000E00020704701498872704759
:101A0000001002400000FFF8FFFFF6FE0000424217
:101A10008004424200127A0000093D001E010020AD
:101A20002E01002010B50446FB48844209D1012153
:101A30008803FFF7ADFF00214FF48040FFF7A8FFB8
:101A400032E0F648844209D101214804FFF7ADFF96
:101A500000214FF40030FFF7A8FF25E0F048844252
:101A600009D101218804FFF7A0FF00214FF4802055
:101A7000FFF79BFF18E0EB48844209D10121C8041D
:101A8000FFF793FF00214FF40020FFF78EFF0BE0DC
:101A9000E548844208D101210805FFF786FF0021AF
:101AA0004FF48010FFF781FF10BD2DE9F04786B09D
:101AB00005460E460024A24600BFA1460027B08975
:101AC00000B100BF2F462C8A4CF6FF700440F0880E
:101AD00004432C82AC894EF6F3100440B08831895F
:101AE0000843718908430443AC81AC8A4FF6FF4038
:101AF0000440B0890443AC8201A8FFF7C2FEC64887
:101B0000874202D1DDF810A001E0DDF80CA0A88921
:101B100000F4004040B10AEBCA0000EB0A10316843
:101B20004900B0FBF1F807E00AEBCA0000EB0A102D
:101B300031688900B0FBF1F86420B8FBF0F00401D3
:101B40002009642101FB1089A88900F4004040B1FC
:101B5000322000EBC900B0FBF1F000F007000443B5
:101B600008E0322000EB09106421B0FBF1F000F036
:101B70000F0004432C8106B0BDE8F0874FF41651E6
:101B8000016000218180C18001810C2141810021FF
:101B90008181704710B502460020108A4FF2FF0382
:101BA00018400B884C8823438C882343CC882343DC
:101BB0001843108210BD0021018041808180C180C6
:101BC000704721B1828942F40052828104E0828907
:101BD0004DF6FF731A4082817047F0B5034600242A
:101BE00000260025002040F66A17B94200D100BF48
:101BF0001846C1F3421401F01F06012707FA06F543
:101C0000012C01D10C3004E0022C01D1103000E095
:101C100014301AB107682F43076002E00768AF432A
:101C20000760F0BD1AB1838A0B43838202E0838A86
:101C30008B4383827047028A4FF6F0731A40028208
:101C4000028A0A430282704782894FF2FF731A4068
:101C5000828182890A438281704721B1828942F060
:101C60000202828104E082894FF6FD731A4082816C
:101C70007047028A4FF6DF731A400282028A0A43D3
:101C80000282704721B1028A42F48042028204E05B
:101C9000028A4BF6FF731A4002827047C1F30802B2
:101CA0008280704701468888C0F3080070478189A8
:101CB00041F0010181817047028BD2B20283028B15
:101CC00042EA012202837047028B02F47F420283C0
:101CD000028B0A430283704721B1828A42F02002BC
:101CE000828204E0828A4FF6DF731A408282704754
:101CF00021B1828A42F01002828204E0828A4FF689
:101D0000EF731A408282704721B1828A42F0080242
:101D1000828204E0828A4FF6F7731A40828270470B
:101D200021B1828942F40042828103E08289C2F3B8
:101D30000E028281704721B1828A42F4006282825F
:101D400004E0828A4FF2FF731A4082827047828ACF
:101D50004FF6FB731A408282828A0A43828270475E
:101D600021B1828A42F00202828204E0828A4FF626
:101D7000FD731A408282704702460020B1F5007F51
:101D800000D100BF13880B400BB1012000E0002000
:101D9000704701F40072B2F5007F00D100BFCA4362
:101DA0000280704770B50246002400230025002001
:101DB00040F66A16B14200D100BFC1F3421501F0EE
:101DC0001F03012606FA03F3012D02D19689334041
:101DD00006E0022D02D1168A334001E0968A334094
:101DE0000C12012606FA04F41688344013B10CB123
:101DF000012000E0002070BD10B50022002340F655
:101E00006A14A14200D100BF0A1201249440A3B277
:101E1000DC43048010BD0000003801400044004055
:101E200000480040004C00400050004070477047A0
:101E3000704770477047754600F02CF8AE460500B5
:101E40006946534620F00700854618B020B5FFF7D5
:101E5000E9F9BDE820404FF000064FF000074FF0D1
:101E600000084FF0000B21F00701AC46ACE8C009B8
:101E7000ACE8C009ACE8C009ACE8C0098D467047C1
:101E800010B50446AFF300802046BDE81040FEF7D1
:101E9000B6B90000004870473C0300200000000075
:101EA00000000000002F00000000070007000014E1
:101EB0007F147F1400242A7F2A12006264081323EF
:101EC00000364955225000000503000000001C2286
:101ED0004100000041221C000014083E08140008C4
:101EE000083E0808000000A0600000080808080874
:101EF000000060600000002010080402003E51490C
:101F0000453E0000427F40000042615149460021A9
:101F100041454B31001814127F10002745454539C3
:101F2000003C4A494930000171090503003649491E
:101F3000493600064949291E0000363600000000D7
:101F40005636000000081422410000141414141422
:101F500000004122140800020151090600324959CB
:101F6000513E007C1211127C007F49494936003EE7
:101F700041414122007F4141221C007F49494941A2
:101F8000007F09090901003E4149497A007F08089C
:101F9000087F0000417F4100002040413F01007F59
:101FA00008142241007F40404040007F020C027F25
:101FB000007F0408107F003E4141413E007F090937
:101FC0000906003E4151215E007F0919294600465D
:101FD000494949310001017F0101003F4040403F34
:101FE000001F2040201F003F4038403F006314087E
:101FF0001463000708700807006151494543000059
:102000007F41410000552A552A55000041417F007B
:102010000004020102040040404040400000010270
:102020000400002054545478007F48444438003859
:102030004444442000384444487F003854545418E1
:1020400000087E0901020018A4A4A47C007F0804F3
:1020500004780000447D4000004080847D00007FC3
:10206000102844000000417F4000007C04180478E0
:10207000007C0804047800384444443800FC2424DC
:1020800024180018242418FC007C080404080048C4
:102090005454542000043F444020003C4040207CE5
:1020A000001C2040201C003C4030403C00442810D4
:1020B0002844001CA0A0A07C004464544C44141488
:1020C00014141414000000000000000000000000C0
:1020D0000000FC000000000002000000000C020CE8
:1020E000020000000000000090D0BCD0BC900003B3
:1020F000000300001824FE448C00030207020100C4
:102100001824D8B04C80000300010201C038E43824
:10211000E0000102020102020806000000000000C7
:1021200000000000000000F80402000000010204AA
:10213000000204F800000004020100009060F86052
:1021400090000000010000002020FC202000000082
:102150000100000000000000000008060000000070
:1021600020202020200000000000000000000000CF
:1021700000000002000000000080601C0200040358
:1021800000000000F8040404F8000102020201004B
:102190000008FC0000000002030200001884442430
:1021A000180003020202020008042424D8000102DD
:1021B0000202010040B088FC800000000003020021
:1021C0003C242424C400010202020100F824242C2F
:1021D000C0000102020201000C04E41C0400000023
:1021E00003000000D8242424D800010202020100C8
:1021F00038444444F80000030202010000001000CB
:1022000000000000020000000000200000000000AC
:1022100006000000002050880402000000000102B7
:102220009090909090000000000000000002048850
:1022300050200002010000001804C424180000000F
:1022400002000000F804E494F80001020202020017
:1022500000E09CF0800002030000030204FC242440
:10226000D800020302020100F80404040C00010279
:102270000202010004FC0404F8000203020201004F
:1022800004FC24740C0002030202030004FC247406
:102290000C00020302000000F0080444CC400001DE
:1022A0000202010004FC2020FC04020300000302DF
:1022B0000404FC040400020203020200000404FC03
:1022C000040406040403000004FC24D00C040203EC
:1022D0000200030204FC04000000020302020203E5
:1022E000FC3CC03CFC0003000300030004FC30C4C1
:1022F000FC04020302000300F8040404F8000102D5
:102300000202010004FC2424180002030200000061
:10231000F8848404F80001020207050004FC246428
:102320009800020302000302182424448C000302D4
:10233000020201000C04FC040C0000020302000075
:1023400004FC0000FC04000102020100047C80E0A7
:102350001C040000030000001CE03CE01C00000323
:1023600000030000049C609C0400020300030200C0
:10237000041CE01C04000002030200000C84641C26
:1023800004000203020203000000FE02020000003B
:1023900007040400000E30C000000000000102002D
:1023A000000202FE00000004040700000004020412
:1023B000000000000000000000000000000008080D
:1023C00008080808000002000000000000000000EB
:1023D0000040A0A0C00000010202030204FC202073
:1023E000C00000030202010000C0202060000001C4
:1023F0000202020000C02024FC00000102020302CD
:1024000000C0A0A0C0000001020202000020F824C9
:1024100024040002030202000040A0A06020000784
:102420000A0A0A0404FC2020C0000203020003027E
:102430000020E4000000000203020000000020E48D
:10244000000008080807000004FC80E020200203C8
:10245000020003020404FC00000002020302020066
:10246000E020E020C00003000300030020E0202063
:10247000C00002030200030200C02020C0000001CF
:102480000202010020E02020C000080F0A02010023
:1024900000C02020E0000001020A0F0820E04020D8
:1024A00020000203020000000060A0A02000000243
:1024B000020203000020F8200000000001020200D8
:1024C00020E00020E00000010202030220E0208062
:1024D00060200000030100006080E08060000003D5
:1024E000000300002060806020000203000302005F
:1024F00020E0208060200808070100000020A06084
:102500002000000203020200000020DE02000000A2
:1025100000070400000000FF00000000000F0000A2
:102520000002DE2000000004070000000201020497
:102530000402000000000000000000000000000095
:102540000000000000000000000000F80000000093
:10255000000000333000000000100C06100C0600D4
:10256000000000000000000040C07840C07840003B
:10257000043F04043F040400007088FC083000009D
:10258000001820FF211E0000F008F000E0180000F5
:1025900000211C031E211E0000F0088870000000AE
:1025A0001E2123241927211010160E000000000000
:1025B0000000000000000000000000E0180402001D
:1025C000000000071820400000020418E00000008E
:1025D0000040201807000000404080F0804040008C
:1025E0000202010F01020200000000F000000000E2
:1025F0000101011F010101000000000000000000B6
:1026000080B070000000000000000000000000002A
:1026100000010101010101010000000000000000B3
:10262000003030000000000000000000806018044E
:10263000006018060100000000E010080810E0002B
:10264000000F102020100F00001010F800000000F4
:102650000020203F2020000000700808088870003B
:1026600000302824222130000030088888483000BB
:102670000018202020110E000000C02010F80000DB
:1026800000070424243F240000F808888808080074
:102690000019212020110E0000E010888818000089
:1026A000000F112020110E0000380808C83808005B
:1026B0000000003F000000000070880808887000DB
:1026C000001C222121221C0000E010080810E0005C
:1026D0000000312222110F00000000C0C0000000E5
:1026E000000000303000000000000080000000000A
:1026F0000000806000000000000080402010080002
:1027000000010204081020004040404040404000CA
:1027100004040404040404000008102040800000A5
:102720000020100804020100007048080808F000AA
:102730000000003036010000C030C828E810E0007A
:102740000718272423140B000000C038E000000005
:10275000203C23020227382008F88888887000006F
:10276000203F202020110E00C03008080808380043
:10277000071820202010080008F808080810E000BA
:10278000203F202020100F0008F88888E80810005B
:10279000203F20202320180008F88888E80810002F
:1027A000203F200003000000C03008080838000067
:1027B00007182020221E020008F808000008F80868
:1027C000203F210101213F20000808F808080000EF
:1027D0000020203F2020000000000808F808080022
:1027E000C08080807F00000008F888C0281808009A
:1027F000203F20012638200008F8080000000000D3
:10280000203F20202020300008F8F800F8F80800C9
:10281000203F003F003F200008F830C00008F808C3
:10282000203F200007183F00E01008080810E000D3
:102830000F10202020100F0008F808080808F000EA
:10284000203F210101010000E01008080810E0000D
:102850000F18242438504F0008F8888888887000A2
:10286000203F2000030C3020007088080808380042
:102870000038202121221C00180808F80808180038
:102880000000203F2000000008F808000008F808B9
:10289000001F202020201F000878880000C838086A
:1028A000000007380E010000F80800F80008F800E2
:1028B000033C0700073C030008186880806818087C
:1028C00020302C03032C30200838C800C8380800FA
:1028D0000000203F2000000010080808C838080049
:1028E0002038262120201800000000FE02020200ED
:1028F0000000007F40404000000C30C0000000009D
:10290000000000010638C00000020202FE000000C4
:10291000004040407F00000000000402020204006A
:1029200000000000000000000000000000000000A7
:10293000808080808080808000020204000000008F
:102940000000000000000000000080808080000087
:102950000019242222223F2008F800808000000075
:10296000003F112020110E00000000808080000038
:10297000000E112020201100000000808088F80047
:10298000000E112020103F20000080808080000079
:10299000001F222222221300008080F088888818DD
:1029A0000020203F202000000000808080808000E8
:1029B000006B94949493600008F80080808000007D
:1029C000203F210000203F20008098980000000058
:1029D0000020203F20200000000000809898000088
:1029E00000C08080807F000008F8000080808000A8
:1029F000203F24022D302000000808F800000000CD
:102A00000020203F20200000808080808080800087
:102A1000203F20003F20003F808000808080000019
:102A2000203F210000203F200000808080800000A7
:102A3000001F202020201F008080008080000000D8
:102A400080FFA12020110E00000000808080800007
:102A5000000E112020A0FF808080800080808000F8
:102A600020203F2120000100000080808080800025
:102A70000033242424241900008080E0808000009A
:102A80000000001F202000008080000000808000E7
:102A9000001F202020103F20808080000080808048
:102AA00000010E30080601008080008000808080D8
:102AB0000F300C030C300F000080800080808000FD
:102AC0000020312E0E312000808080000080808028
:102AD00080818E70180601000080808080808000D8
:102AE0000021302C2221300000000000807C0202F6
:102AF00000000000003F404000000000FF00000018
:102B000000000000FF0000000002027C80000000C6
:102B10000040403F000000000006010102020404E2
:102B200000000000000000000000000000000000A5
:102B30000000000000000000000000000000000095
:102B40000000000000000000000000000000000085
:102B500000F0F0F0000000000000000000017F0124
:102B60000000000000000000001C1C1C0000000011
:102B700000008060301C8C60301C0C0000000000E5
:102B80000000000000000000000000000000000045
:102B900000000000000000E00000000000E0000075
:102BA0000086E69F86868686E69F860000011F01D6
:102BB000010101011F010100000080C06020F82018
:102BC000E0C00000000003070C18FF70E181000066
:102BD0000000070F10107F100F07000080602060BA
:102BE00080000000E02000000F3020309F70DC37B4
:102BF0001030C0000000100E030007181018070066
:102C00000000C02020E0C0000000000080E01F386D
:102C1000E88703C43C040000070F1810100B070DD1
:102C20001010080000808C4C3800000000000000EC
:102C30000000000000000000000000000000000094
:102C4000000000000000000000000000000080E024
:102C5000300804000000000000FEFF01000000003A
:102C6000000000000000030F18204000000408309E
:102C7000E0800000000000000000000001FFFE00F6
:102C800000000000004020180F03000000000000BA
:102C9000000000000000C000000000000042666666
:102CA0003C18FF183C66664200000000000003006C
:102CB0000000000000000000000080000000000094
:102CC000001010101010FF10101010100000000065
:102CD00000000300000000000000000000000000F1
:102CE00000000000000000000000000000000000E4
:102CF00000808C4C38000000000000000000000044
:102D00000000000000000000001010101010101053
:102D10001010100000000000000000000000000083
:102D200000000000000000000000000000000000A3
:102D3000000000000000000000001C1C1C0000003F
:102D4000000000000000000000000000E0380C005F
:102D50000000000080701C03000000000060380EBE
:102D60000100000000000000000080C06020206022
:102D7000C080000000FEFF010000000001FFFE0017
:102D80000001070E181010180E07010000008080C7
:102D900080C0E000000000000000000000FFFF0015
:102DA0000000000000001010101F1F101010000085
:102DB0000080402020202060C0800000000303002D
:102DC000804020381F070000001C1A191818181816
:102DD000181F00000080C020202060C0800000007C
:102DE000000303001010182FE780000000070F10E9
:102DF000101010180F070000000000000000C0E0D5
:102E0000F000000000C0B088868180FFFF80800055
:102E1000000000000010101F1F1010000000E060F4
:102E2000606060606060000000003F1008080818E3
:102E3000F0E0000000070B101010101C0F03000042
:102E4000000080C040202020E0C0000000FCFF21E6
:102E50001008080818F0E0000001070C1810101006
:102E6000080F03000000C0E06060606060E0600088
:102E7000000003000000E018070000000000000050
:102E8000001F1F00000000000080C06020202020E4
:102E900060C080000087EF2C1818303068CF8300A6
:102EA00000070F0810101010180F07000000C0C016
:102EB00020202020C0800000001F3F6040404020B4
:102EC00010FFFE0000000C1C101010080F03000083
:102ED00000000000000000000000000000000000F2
:102EE000000E0E0E0000000000000000001C1C1C64
:102EF00000000000000000000000000000000000D2
:102F000000000000000C0C000000000000000000A9
:102F100000583800000000000000000000000080A1
:102F20004020100000001028448201000000000032
:102F30000000000000000102040810000000000072
:102F400000000000000000000084848484848484E5
:102F500084848400000000000000000000000000E5
:102F60000000102040800000000000000000000071
:102F70000000018244281000000010080402010033
:102F80000000000000C020201010101030E0C00031
:102F90000003030000F010080C070300000000000D
:102FA0001C1C1C0000000000000000C0406020202D
:102FB0002040C00000FCFF01F00E03C1FE03807F33
:102FC0000001070E08111110110904020000000091
:102FD00080E0E000000000000000807C4340477F6C
:102FE000F880000010181F1000000000131F1C10B4
:102FF00020E0E02020202060C080000000FFFF10C3
:10300000101010182FE78000101F1F101010101044
:10301000180F0700000080C0402020202060E00042
:1030200000FCFF0100000000000001000001070E8D
:10303000181010100804030020E0E0202020204099
:10304000C080000000FFFF000000000001FFFE0044
:10305000101F1F10101018080E07010020E0E020BC
:10306000202020202060800000FFFF101010107C26
:1030700000000000101F1F10101010101018060084
:1030800020E0E020202020206060800000FFFF1072
:103090001010107C00000100101F1F100000000025
:1030A00000000000000080C06020202040E0000000
:1030B00000FCFF0100004040C0C140400001070E7D
:1030C000181010100F0F000020E0E020000000009A
:1030D00020E0E02000FFFF101010101010FFFF0094
:1030E000101F1F1000000000101F1F1000002020E4
:1030F00020E0E020202000000000000000FFFF0092
:103100000000000000001010101F1F101010000021
:1031100000000000202020E0E0202020000000002F
:10312000000000FFFF0000000060E0808080C07FA2
:103130003F00000020E0E020000020A060202000F0
:1031400000FFFF30187CE3C000000000101F1F10BC
:10315000000001131F1C181020E0E02000000000F8
:103160000000000000FFFF00000000000000000061
:10317000101F1F10101010101018060020E0E0E0C3
:1031800000000000E0E0E02000FF013FFEC0E01E84
:1031900001FFFF00101F1000031F0300101F1F106E
:1031A00020E0E0C0000000000020E02000FF00035D
:1031B000071C78E08000FF00101F100000000000D6
:1031C000030F1F00000080C060202060C08000004E
:1031D00000FEFF010000000000FFFE000001070EDE
:1031E000181010180C07010020E0E02020202020FB
:1031F00060C0800000FFFF2020202020301F0F0033
:10320000101F1F100000000000000000000080C020
:1032100060202060C080000000FEFF010000000070
:1032200000FFFE000001070E1111133C7C67210016
:1032300020E0E0202020202060C0800000FFFF1060
:103240001030F0D0080F0700101F1F1000000003FF
:103250000F1C10100080C060202020204040E000A3
:1032600000070F0C1818303060E08100001F0C08B8
:1032700010101010180F07008060202020E0E020C0
:10328000202060800100000000FFFF00000000011E
:1032900000000000101F1F100000000020E0E020D0
:1032A000000000000020E02000FFFF000000000000
:1032B0000000FF0000070F18101010101008070082
:1032C0002060E0E02000000020E060200000077F98
:1032D000F88000807C03000000000000071F1C072E
:1032E0000000000020E0E02000E0E0200020E020DE
:1032F0000007FFF8E01FFFFCE01F00000000031FB5
:103300000300011F03000000002060E0A000002077
:10331000E0602000000000038F7CF8C60100000080
:103320000010181E130001171F1810002060E0E0A5
:103330002000000020E06020000001073EF8E018B7
:103340000700000000000010101F1F1010000000F8
:1033500000806020202020A0E0E02000000000008D
:10336000C0F03E0F0300000000101C1F17101010CB
:10337000101806000000000000FC0404040404000F
:103380000000000000FF000000000000000000003E
:10339000007F404040404000000010E0000000007E
:1033A0000000000000000000031C6080000000001E
:1033B00000000000000000030C7080000000040406
:1033C000040404FC0000000000000000000000FFF6
:1033D00000000000000040404040407F000000002E
:1033E00000000010080C040C081000000000000091
:1033F00000000000000000000000000000000000CD
:1034000000000000000000000000000000000000BC
:1034100000000000000000000000000080808080AC
:103420008080808080808080000000040408080084
:10343000000000000000000000000000000000008C
:10344000000000000000000000000000000000007C
:103450000000000000000000000098D8446424240C
:10346000FCF80000000F1F18101010081F1F101884
:103470000020E0F000000000000000000000FFFF5E
:10348000180804040CF8F00000001F0F18101010AA
:10349000180F030000000000000000000000000002
:1034A00000E0F8180404043C3800000000030F0C8E
:1034B000101010100806000000000000000000209E
:1034C000E0F0000000E0F81C04040408FFFF000026
:1034D00000030F18101010081F0F08000000000054
:1034E00000000000000000000000E0F848444444F0
:1034F0004C7870000000030F0C1810101008040026
:103500000000000080C0602020E0C000000404042F
:10351000FFFF040404040000000010101F1F10101F
:10352000100000000000000000000000000000008B
:10353000000070F88C04048CF874040C007076CFD2
:103540008D8D8D89C87870000020E0F000000000AB
:10355000000000000000FFFF08040404FCF8000065
:1035600000101F1F100000101F1F1000000000009F
:1035700000606000000000000000040404FCFC0087
:103580000000000000001010101F1F10101000009D
:10359000000000000000006060000000000000006B
:1035A000040404FCFC0000000000C0C08080C07F58
:1035B0003F0000000020E0F00000000000000000DC
:1035C0000000FFFF80C0F41C0404000000101F1F57
:1035D0001100031F1C1010000000202020E0F0004C
:1035E000000000000000000000FFFF0000000000DD
:1035F00000001010101F1F1010100000000000002D
:10360000000000000000000004FCFC0804FCFC08B2
:1036100004FCFC00101F1F10001F1F10001F1F10B4
:103620000000000000000000000000000004FCFC9E
:1036300008080404FCF8000000101F1F1000001010
:103640001F1F10000000000000000000000000002C
:1036500000E0F0180C04040C18F0E00000030F0C5C
:10366000101010100C0F03000000000000000000FC
:10367000000000000004FCFC080404040CF8F00046
:103680000080FFFF889010101C0F03000000000056
:10369000000000000000000000E0F81C0404040822
:1036A000F8FC000000030F1810109088FFFF800046
:1036B000000000000000000000000000040404FC02
:1036C000FC100804040C0C001010101F1F10101028
:1036D00000000000000000000000000000000000EA
:1036E00000003078CCC48484840C1C0000001E18B8
:1036F00010101011190F06000000000000C000009B
:103700000000000000040404FFFF040404000000A3
:10371000000000000F1F1010100C0000000000003F
:1037200000000000000000000004FCFE0000000497
:10373000FCFE000000000F1F181010081F0F0800EB
:1037400000000000000000000000000000040C3C2D
:10375000FCC40000C43C0C0400000000010F1E0E5D
:103760000100000000000000000000000000000058
:10377000043CFCC400E47CFC84807C040000071F43
:10378000070000071F070000000000000000000005
:10379000000000000004041C7CE4C0341C0404008D
:1037A0000010101C1601131F1C1810000000000050
:1037B000000000000000000000040C3CFCC400C439
:1037C0003C0404000000C080C1370E01000000006E
:1037D00000000000000000000000000000001C04C9
:1037E00004C4F47C1C0400000000101C1F171110FE
:1037F00010180E0000000000000000F80C0400008B
:1038000000000000001028EF000000000000000091
:103810000000003F60400000000000000000FF00CA
:1038200000000000000000000000FF000000000099
:10383000000000000000FF00000000000000040C79
:10384000F80000000000000000000000EF28100059
:1038500000000000000040603F0000000000000089
:1038600000180602020408102020300800000000A2
:103870000000000000000000000000000000000048
:10388000000000000000F010101010FF10101010C9
:10389000F000000000000F04040404FF040404040A
:1038A0000F0000004040405F555555755555555F18
:1038B000404040000040200F094989790909090F5B
:1038C0002040000000FE02424ACA4A4ACA4A4A420E
:1038D00002FE000000FF40504C4340404F50505CFF
:1038E00040FF00000000F888888888FF8888888862
:1038F000F800000000001F080808087F88888888F2
:103900009F80F00080828282828282E2A2928A86F6
:1039100082808000000000000040807F00000000E6
:1039200000000000101010FF109008888888FF88A1
:10393000888808000444827F01808040432C10283E
:10394000468180000010101010D030FF30D0121CC3
:103950001010000010080402010000FF0000010226
:103960000408100004040484E43C2724242424E4F0
:103970000404040004020100FF0909090949897FC0
:103980000000000000FE225A8600FE92929292925F
:10399000FE00000000FF04080700FF4020030C1495
:1039A0002241400000804020180680000718204077
:1039B000800000000100207028262120202438608B
:1039C0000001010000101292929292929212120241
:1039D000FE0000000000003F101010103F0040806B
:1039E0007F000000000000C080808080808080FC1C
:1039F00084808080808080C0C0000000000000FFC4
:103A00007F404040404040FF40404040404040FFF9
:103A10007F00000000000000000000000000007FA8
:103A20007000000000000000000000000000000026
:103A30000000000000000000000000FCF800000092
:103A40000000000000000000000000000000000076
:103A5000FFFE020202020202020202FFFF02020253
:103A6000020202020202FF03000000000000000048
:103A70001F1F040404040404040404FFFF040404DA
:103A80000404040404041F000000000000000000FF
:103A900000000000000000000000007F3F00000068
:103AA0000000000000000000000000000000000016
:103AB0000000000000000000000000000000000006
:103AC000000000000000000000F8F8F0F070200096
:103AD00000000000000000000000000000000000E6
:103AE00000000000000000000000000000000000D6
:103AF0000000000080000000000000000000000046
:103B0000000000000000000000FFFFFFFF000000B9
:103B100000000000000000000000000000000000A5
:103B20008080000000000000000000000000000095
:103B30000000000000FFFFFE060606060606060659
:103B4000060606060606060606FFFFFFFF06060631
:103B5000060606060606060606060606060606FF0C
:103B6000FFFFFF070200000000000000000000004F
:103B70000000000000FFFFFF000000000000000048
:103B8000000000000000000000FFFFFFFF00000039
:103B9000000000000000000000000000000000FF26
:103BA000FFFFFF0000000000000000000000000018
:103BB0000000000000FFFFFF181818181818181848
:103BC000181818181818181818FFFFFFFF181818D9
:103BD000181818181818181818181818181818FF7E
:103BE000FFFFFF00000000000000000000000000D8
:103BF00000000000020101000000000000000000C1
:103C0000000000000000000000FFFFFFFF000000B8
:103C100000000000000000000000000000000001A3
:103C20000100000000000000000000000000000093
:103C30000000000000000000000000000000000084
:103C4000000000000000000000FFFFFFFF00000078
:103C50000000000000000000000000000000000064
:103C60000000000000000000000000000000000054
:103C70000000000000000000000000000000000044
:103C80000000000000000000001F1F0F0F000000D8
:103C90000000000000000000000000000000000024
:103CA000000000000000000000000000CC3C000804
:103CB00000000020340100006C010008683D00088D
:103CC000340100206C080000C80100081EFF0F0727
:103CD000C3C1012D01010181081BC1410A3A010A3A
:103CE000491609150D290126C3870FFFFF2AFF0179
:103CF000500AE0F8FEFFFF3F0F03013913167FFF64
:103D0000FFFEC01AC0182B7F0710891A3C0303035B
:103D1000081AFF0F59131C070F3F2F7DFCF0C080BE
:103D2000261129361AF8044A0F1189407CC0C0C0F8
:103D3000401DF0E0C383011A800129086C8383824F
:103D40000A9908390929085924490115C3E1F0FFE6
:103D500084A24A04E009010203040607080929169F
:083D6000691A2502040608009F
:0400000508000131BD
:00000001FF
