:10000000C0430020C9200000A11B0100B520000052
:10001000B5200000B5200000B52000000000000061
:100020000000000000000000000000008922000025
:10003000B52000000000000025220000B5200000CF
:100040003D2400003D2400003D2400003D2400002C
:100050003D2400003D2400003D2400003D2400001C
:100060003D2400003D2400003D2400003D2400000C
:100070003D2400003D2400003D2400003D240000FC
:100080003D2400003D2400003D2400003D240000EC
:100090003D2400003D2400003D2400003D240000DC
:1000A0003D2400003D2400003D2400003D240000CC
:1000B0003D2400003D2400003D2400003D240000BC
:1000C0003D2400003D2400003D2400003D240000AC
:0C00D0003D2400003D2400003D24000001
:1000DC0053B94AB9002908BF00281CBF4FF0FF31A3
:1000EC004FF0FF3000F00CB8ADF1080C6DE904CE08
:1000FC0000F008F8DDF804E0DDE9022304B07047F5
:10010C00704700BF2DE9F04786468C460846089E8E
:10011C00154674461946002B40F0C2808542B2FA4F
:10012C0082F245D94AB1C2F1200300FA02FC2EFA40
:10013C0003F3954043EA0C0C94404FEA154EA8B2D9
:10014C00BCFBFEF8230C0EFB18CC08FB00F943EAB1
:10015C000C43994528D9EB1808F1FF3704D299457F
:10016C0002D9A8F102072B44A3EB0903A4B2B3FBF9
:10017C00FEFC0EFB1C330CFB00F044EA0344A042D3
:10018C0014D92C190CF1FF3304D2A04202D9ACF1D2
:10019C0002032C44241A43EA07401EB1D440002326
:1001AC0034607360BDE8F0874746DDE76346F1E7EE
:1001BC0092BB431B01214FEA154EAFB2B3FBFEFCC1
:1001CC00200C0EFB1C330CFB07F840EA034398454C
:1001DC0062D9EB180CF1FF3004D2984502D9ACF17E
:1001EC0002002B44A3EB0803A4B2B3FBFEFC0EFBF2
:1001FC001C330CFB07F744EA0344A7424ED92C19D5
:10020C000CF1FF3304D2A74202D9ACF102032C4407
:10021C00E41B43EA0040C0E7C2F1200320FA03F1DB
:10022C00954090402EFA03F303434FEA154EAFB2BC
:10023C00B1FBFEFC0EFB1C10190C0CFB07F841EA81
:10024C000041884504FA02F422D969180CF1FF30F8
:10025C0004D2884502D9ACF102002944A1EB080173
:10026C009BB2B1FBFEFC0EFB1C110CFB07F743EA27
:10027C0001439F420ED9EB180CF1FF3104D29F427F
:10028C0002D9ACF102012B44DB1B41EA004192E79D
:10029C006046E3E76146F7E76046A3E76346B7E7E6
:1002AC00834206D916B9002108467BE7C6E900E06F
:1002BC00F9E7B3FA83F78FB9834201D3724508D8B3
:1002CC00BEEB020460EB030301209C461EB9002127
:1002DC0068E73846FAE7C6E9004CF8E7C7F1200CA6
:1002EC00BB4022FA0CF41C432EFA0CF120FA0CF34E
:1002FC00B84001434FEA14490EFA07F5B3FBF9F87D
:10030C001FFA84FE09FB18300B0C08FB0EFA43EAAB
:10031C0000439A4502FA07F240D9E31808F1FF307E
:10032C0004D29A4502D9A8F102002344A3EB0A0394
:10033C0089B2B3FBF9F809FB183308FB0EFE41EA4E
:10034C0003418E452CD9611808F1FF3304D28E4538
:10035C0002D9A8F10203214443EA0040A0FB029811
:10036C00A1EB0E014145CE46434602D306D14D4585
:10037C0004D2B9EB020E68EB04030138002EA6D0B0
:10038C00B5EB0E0261EB030101FA0CFC22FA07F348
:10039C004CEA0303F940C6E9003198E74046C5E74B
:1003AC004346D9E710F8012B11F8013B012A28BF6D
:1003BC009A42F7D0D01A7047034611F8012B03F874
:1003CC00012B002AF9D17047034613F8012B002AA0
:1003DC00FBD1181A0138704708B5034810F024FDFA
:1003EC00024B00221A6008BD46A901009C0F002098
:1003FC0070B586B00023CDE90333CDF813305948DE
:10040C0019F04BFA38B9584A5848012111F040FB01
:10041C00002006B070BD564C204619F03EFA00285C
:10042C003AD02569A6682B68524A43F400532B60D6
:10043C0033680D2120469847034628B14E4A4B4855
:10044C00012111F02EFBE3E74C494D4B4B604FF46F
:10045C0000538B60F36933B1012220469847034661
:10046C0020B1484AEBE76FF05703FAE7B66986B15B
:10047C002B6813F4005F14BF4FF000734FF08063D0
:10048C004FF0A0720D212046B047034620B13E4AE2
:10049C00D5E76FF05703FAE710F067FC0EF090F910
:1004AC003A493B4E04460EF015FD00231A4608212E
:1004BC00204612F01BFF10F058FC0EF081F9334966
:1004CC0004460EF007FD00231A460721204612F0C1
:1004DC000DFF10F04AFC0EF073F92E4904460EF095
:1004EC00F9FC00231A460221204612F0FFFE10F000
:1004FC003CFC0EF065F9274904460EF0EBFC00239A
:10050C001A460521204612F0F1FE10F02EFC0EF0DA
:10051C0057F900231A460921054612F0E7FE0DF0A3
:10052C003BFE10481C4C83685B689847216864222A
:10053C00B1FBF2F302FB131149B900930B223346C2
:10054C0003A819F038FB154928460EF0C3FC0DF032
:10055C0023FE23680133236000214FF4A4700FF0B5
:10056C00F3FEE3E7F89D01005BA90100449F010045
:10057C00BC9D0100110001007BA90100900F00201F
:10058C00E50300009FA90100C1A90100E6A9010033
:10059C009CF60100E8A901009C0F0020EBA90100CA
:1005AC002DE9F04F91B08407009302F004030293FD
:1005BC00C2F3C20303F10103DDF868900392054610
:1005CC000E46059340F0BA81041D30B1072909D8B5
:1005DC006FF01B0011B0BDE8F08F01F00706341D61
:1005EC00C6F10806009B4FF00008591E4FF0040A94
:1005FC004FF0FF330193CDF810804746C346534666
:10060C000DB1009A22600598002800F3E880984804
:10061C00009A824203D397488242C0F0E080039A4A
:10062C00A4EB050E92074FEA9E0000F103810F2FF9
:10063C0000F2B180002D00F0058107F140020DEBB6
:10064C00020C019A0CF8200C0CF8102C04980130B8
:10065C000490E7E07A285DD84B280ED8472859D863
:10066C0029282DD8252852D054D820287AD02338A0
:10067C00D0F1000B4BEB000B74E04C382E2849D812
:10068C00DFE800F07048484848484848484848481F
:10069C004B484848484848484859484B4B59595981
:1006AC00704B6D487048184B184848827F4B48482F
:1006BC004B487F0000204FF0000B4FF0040A38E04D
:1006CC002A38C0B2012202FA00F010EA0E0F49D10A
:1006DC0010F0625C2FD110EA020B43D06046013C53
:1006EC005444B4FBFAF40AFB04F4002D61D0A3EBE0
:1006FC00050CA4446645FFF46BAF002868D1042BAD
:10070C0047D159F8043B2360043404232AE0019AAE
:10071C00013A01924FF0000B24E011F8010C6C2807
:10072C0034D111F8023C00206C2B8346C5D14FF01C
:10073C00080A5346D3E709F1070929F007090734DA
:10074C00F9E802AB24F0070435B106982044B04216
:10075C003FF63EAFC4E900AB08344FF0000B4FF04E
:10076C00080A534611F8010F002878D0BBF1000F8E
:10077C007FF470AF2528F5D1019B013301934FF025
:10078C00010B4FF0040AECE7584694E7002083462F
:10079C00A5E7082B02D06FF015001BE709F107093C
:1007AC0029F00709F9E80223C4E9002308340823D7
:1007BC00D8E768B9042B02D109F10409A4E7082B86
:1007CC00E9D109F1070929F0070909F10809EDE751
:1007DC00059A013A059259F8042B009210E7039AF6
:1007EC00900720D5A4EB050E4FEA9E004FF0010CAC
:1007FC00BEF5007FCFD20F2FCDD8F5B107F1400257
:10080C000DEB020EC0B2019A0EF8200C0EF8102C53
:10081C00BCF1000F3FF41AAF60F07F000EF8200C13
:10082C0008F101080137C5F10802043406924FF6AD
:10083C00DA7E97E74FF0000CDAE7BCF1000F01D03D
:10084C000136EFE7029802360028EBD10098CDE98B
:10085C000631FFF7B9FDDDE906310644E2E7631B1B
:10086C00B3F5806F97D23DB9A6F10804E018B1E654
:10087C00409D010078FF0100029A28609B082B70B4
:10088C009DF81030C2B1EB7085F80280B8F1000F02
:10089C0005D008A80022C5F1010C97420ED1C5F174
:1008AC0001030DF120094FF0000A01930DF1300BFB
:1008BC00574512D1601B8DE66B70E5E710F8013BD4
:1008CC00190608D504EB0C0E764503F07F03FFF4F4
:1008DC007FAE04F8013B0132DFE7B8F1000F03D023
:1008EC0099F90020002A17DB029BD3B11AF80B20D0
:1008FC0004F8012B0022019B981820448642FFF437
:10090C0067AE99F8000004F8010B00990392204699
:10091C0019F0CEF9039A14440AF1010A09F10109FC
:10092C00C6E799F8002055F822300093029B45F851
:10093C0022300098FFF748FD421CDCE76FF00D00F9
:10094C0048E600BF2DE9F04F95B000AF90F802B02B
:10095C00BB61BB6F7A62C3F3C00304463B618A463A
:10096C0041B9457800780BEB80002044554517D8E9
:10097C00A0EB040AE3787B61BBF1000F02D0BB6FE4
:10098C00D80716D47B6953BB7B6A1BB1BA69514635
:10099C0020469847554628465437BD46BDE8F08F4B
:1009AC00461C3046FFF710FD013030440AF1010AB5
:1009BC00DCE723783B629B00FB603B6A6268FA6170
:1009CC0004EB83097B6A002B40F0FE805546C84639
:1009DC0009EB0B0A0026D04551D1D94413E0BB6F6B
:1009EC009907D1D523783B6299469B00FB606368DD
:1009FC00FB617B6A04EB8909002B7AD15546BBF16C
:100A0C00000F4FD15E46BB6F13F0050F7B6909EBEE
:100A1C00430ABB6F03F002030CBF4FF0020B4FF005
:100A2C00010B7B62D145B6D019F8021B19F8013CB9
:100A3C0054F82380AA4B984502D3AA4B984538D337
:100A4C003B69002B42D0F86910F0C7F900283DD063
:100A5C00E8468AB06A46A44B5361FB69C2E9063189
:100A6C004FF400731384A14B42F8103FA0480023AD
:100A7C004FF4125100F006FD023DC546D2E718F8BE
:100A8C00013B54F82300FFF79FFCFB6F01303BB197
:100A9C00D7F880309E423EBFFB6F23F8160001361C
:100AAC00054498E7BB6F13F004061CBF7E6AD9445B
:100ABC00A9E73B6923B1F86910F08FF90028C7D179
:100ACC00BB6FDA0705D4A5EB0B05ABE77B6A002BF4
:100ADC00A8D04046FFF778FCFB6F43B1D7F88030C5
:100AEC009E423FBFFA6F431C22F816300136054474
:100AFC0098E7BBF1000F6DD0BB6F13F004066CD000
:100B0C00D846002607F140005A46494619F0D0F85D
:100B1C007B695B007B607B69D94409EB4303BB6059
:100B2C00BB6F03F002033B60BB684B4557D1B96FF9
:100B3C006378B86F890706EB030254BF4FEA58017C
:100B4C000021C507D2B200F19A8010F0040F14BF37
:100B5C0040460020FB616270A070E170BA69F968D0
:100B6C007B6A20469847051EFFF615AF3B6A23703B
:100B7C00FB6963707B69E3704146BA697B6A84F8F0
:100B8C0002B007F140009847B0F10008C0F2A48011
:100B9C00FB68BA69AAEB0B01C91A7B684846C91AEB
:100BAC007B6A98470028C0F29980A84408EB00059E
:100BBC004FF0000B07F1300AB34562D30021BA693C
:100BCC007B6A08469847E6E65E464FF0000807F158
:100BDC00300099E75E46D8469AE7B04698E719F890
:100BEC00021B3F4B19F8015C54F82500984202D3C4
:100BFC003C4B98421DD33B6923B1F86910F0EDF8DA
:100C0C00002891D13B68FBB908F1280307F12802B1
:100C1C0008F1010003EB020C07F1500353FA80F0CA
:100C2C0008F102080CF8101C5FFA88F800F8105C48
:100C3C007AE73B692BB1F86910F0CFF800287FF404
:100C4C0073AFBB6FDB0709D506F1280307F1280248
:100C5C00711C9E1806F8205CCEB265E7BB6F580776
:100C6C007FF562AF08F1280307F1280208F10101B2
:100C7C0003EB020808F8105C5FFA81F854E70020D7
:100C8C0068E71BF80A3087F82F3054F82390FB6F75
:100C9C00FBB133F81B80BA697B6A012107F12F0085
:100CAC00984700281ADB0544B8F1000F06D14846D6
:100CBC00FFF78AFB00F101081FFA88F8BA697B6A12
:100CCC00414648469847002808DB05440BF1010BC8
:100CDC0072E7D7F87C80DEE745465CE605465AE6C7
:100CEC00409D010078FF0100F1A901000400000102
:100CFC004C9F0100014B1860704700BF00000020A2
:100D0C0080B505460E46174698460FF037FB03464E
:100D1C0019F006F8DFF81890044649F800304246FE
:100D2C0030463946A84754F8090001F047FA00BF8D
:100D3C00080000002DE9F047058B04462807904673
:100D4C0011D4022905F0070540F0CD80204610F0A3
:100D5C00D7FA78B10138218B042811D8DFE800F0DC
:100D6C00C3106D85950001290CBF45F0100545F0A9
:100D7C002005258388F31188BFF36F8FBDE8F087BA
:100D8C0001F0070AAA4500F0A6800027B9463E46A6
:100D9C00A368002B00F0BD8041F00801218388F38B
:100DAC001188BFF36F8FA168002900F0BB800D681C
:100DBC00002900F0B780D1F8048033465246204613
:100DCC00C047002D76D02B6829461D46F0E701F070
:100DDC0007035A1F012A1BD8002221F00701062BFA
:100DEC00276889B2C4E9002209D13B4603E0628B33
:100DFC00013262831B68002BF9D141F0020121837F
:100E0C00204610F07DFA00287BD041F0200177E0DD
:100E1C00042B0AD121F0070189B22183204610F05E
:100E2C006FFA10B141F020012183218B01F0070AE8
:100E3C00AA4550D00027B946AAE7236921F007013B
:100E4C0041F00601062DD3F8009021832DD1B9F184
:100E5C00000F40D041F00801218388F31188BFF3C3
:100E6C006F8F3A492046C84729E021F007012369D2
:100E7C0041F0040189B2042DD3F804902183E6D00B
:100E8C0000273E464FF0040A82E721F00701236950
:100E9C0041F0050189B2052DD3F808902183D6D0F5
:100EAC0000273E464FF0050A72E700273E464FF0FA
:100EBC00060A6DE72B4687E7B9F1000FD1D14FF049
:100ECC002003EFF3118883F31288BFF36F8F238B0A
:100EDC0023F008032383258BEA062ED525F0100377
:100EEC00238305F007056669218B002EBFF66FAFD3
:100EFC0000232768C4E9003321F0070141F0010108
:100F0C002183218B01F0070AAA454FF000097FF4D9
:100F1C003FAF002F9BD041F00801218388F311884B
:100F2C00BFF36F8F002FC7D03D683946334652460A
:100F3C00204610F011FA2F46F4E7AB067FF51AAFF6
:100F4C0025F02003238305F00705FFE6911301002C
:100F5C002DE9F047DFF85880044607464FF00109A9
:100F6C0014B93846BDE8F08794FAA4F5B5FA85F5BE
:100F7C0009FA05F32E0108EB05156FEA030A24EABA
:100F8C0003042B7B002BEBD058F806301B694BB9B4
:100F9C004644042273682846196807EA0A0700F0D9
:100FAC005DFADDE7284698470028D9D1F0E700BF65
:100FBC00BC9F010030B51049104889B0002218F0D0
:100FCC00C9FD0F4D0F4900220023CDE90623002453
:100FDC000E23CDE90334CDE901440B4B00944FF4BF
:100FEC00407228460EF056FD0849284618F06AFC57
:100FFC00204609B030BD00BF1D10000018060020AF
:10100C0090010020C02E00200D130000A5AA0100A5
:10101C0001480EF06DBE00BF7C0100202DE9F047A9
:10102C0080461F480F4610F0ADFC0646002830D015
:10103C0000252846BDE8F087237B73B12368DB6865
:10104C000BB12046984723681B69D3B96368042207
:10105C001968204600F002FA013610344C45EBD3E7
:10106C00B8F1000FE5D0002DE2D02846FFF770FF55
:10107C000546002FF7D000214FF4A4700FF064F94F
:10108C00F1E7204698470028E0D00AFA06F31D4302
:10109C00E2E7044CDFF8109005464FF0010ADDE75B
:1010AC00B00F0020BC9F0100DC9F0100014B53F8E6
:1010BC00200070471CA0010008B5034608462BB160
:1010CC00044A136000F07EFC002008BD6FF0150090
:1010DC00FBE700BF0400002010B5044C237813B9C3
:1010EC0003480EF005FE0123237010BD4A29002091
:1010FC007C01002010B50446084810F043FC5CB19C
:10110C00BFF35B8F064B53E8001F013943E8001215
:10111C00002AF8D1BFF35B8F10BD00BFA80F0020D1
:10112C00AC0F00200020064BBFF35B8F014653E849
:10113C00000F43E80012002AF9D1BFF35B8F704710
:10114C00A80F002070B5FFF7EDFF084C084E0546C0
:10115C00B44200D370BD63685B792BB123685B68C4
:10116C0013B12946204698471034F1E7BC9F010083
:10117C00DC9F010010B5044C0449204610F093FA92
:10118C00034B1C6010BD00BF2C01002008A0010007
:10119C00A00F0020084A094808B500231370084A1C
:1011AC001360084A4FF400411360FFF785FFBDE858
:1011BC000840FFF7DFBF00BF4B2900208D1901004D
:1011CC00A80F0020AC0F002001460022014800238C
:1011DC0010F08ABA2C010020014810F023BB00BF8C
:1011EC002C010020024B0146186810F06DBB00BFAB
:1011FC00A00F0020014810F0A3BB00BF2C01002061
:10120C0070B5284B187800284BD0FFF7E5FF054642
:10121C0090B1BFF35B8F244B53E8001F013943E8B7
:10122C000012002AF8D1BFF35B8F204C204EB44241
:10123C002DD32846FFF7D6FF1E4B1F4C1B68002BE7
:10124C0019DD18F085FC4FF47A72A0FB020302FB47
:10125C000131C30BD4E9002043EA41439B1A4FEA06
:10126C00D13140F2E93261EB0001934271F100019E
:10127C0001D3FFF767FFD4E9003213F57A7342F11B
:10128C000002C4E90032BDE87040FFF7B3BF6368E9
:10129C005B7923B1236829461B6820469847103494
:1012AC00C5E770BD4A290020AC0F0020BC9F01008F
:1012BC00DC9F0100A80F00201006002070B50D4D1A
:1012CC00297861B90120FFF7A9FE0B4C0B4EB442F3
:1012DC0006D3FFF795FF0028FBD101232B7070BDBF
:1012EC0063685B791BB1236820469B689847103470
:1012FC00EDE700BF4B290020BC9F0100DC9F0100E3
:10130C0000212DE9F0470846FFF788FE044658B344
:10131C0040F267684FF0000918F002FD1B4B1C4AA5
:10132C001B58136033B11B4B1B68092B02DD1A4889
:10133C000EF0DEFC194FDFF860A0002544B120460A
:10134C00FFF706FE044618B94FF0FF384FF0FF398F
:10135C00FFF756FF064628B9B5B942464B465046EC
:10136C000EF0EAFC3546E9E74FF0FF384FF0FF3955
:10137C00D2E72B689B691BB100221146284698477F
:10138C001035BD42F5D3E8E7054DFAE7080000003B
:10139C00A40F0020AC0F00207C010020DC9F01007A
:1013AC00BC9F010013B5184810F0ECFA174B1B78D2
:1013BC007BB14FF02003EFF3118483F31288BFF35A
:1013CC006F8FFFF71DFF84F31188BFF36F8F02B08F
:1013DC0010BD0F4B1B68002BF9D050B90022002315
:1013EC00CDE900230B484FF4004200230FF098F98D
:1013FC00EDE70928EBD1074818F0B8FB064802B016
:10140C00BDE810400EF074BCAC0F00204B2900203E
:10141C00A40F0020180600207C01002010B5064BFC
:10142C001B68044698472146A060044810F0DAF97E
:10143C00BDE81040FFF7B6BF040000202C010020CF
:10144C00044A054B9B1AB1EBD30F34BF52F8310051
:10145C0000207047449F0100BC9F0100084BC31A39
:10146C0010B41B1144680133237143689A714368AB
:10147C001960436801225A7110BCFFF72DBE00BFE2
:10148C00BC9F01002DE9F04F8FB004AFC1F34A2887
:10149C00B8600D4691467B600C0DB8F1000F63D01F
:1014AC00002607F114034FF0040B4FF00A0AC7F89B
:1014BC000C80C7E907667E620193CDF808B0CDF8C1
:1014CC0000A007F11C03F96832464846FFF73AFAC8
:1014DC00B0F5006F03461CD36C468AB0D9F80410E3
:1014EC0004AB2648C3E9050140F2FF71D9611A46E5
:1014FC004FF400711984224B42F8103F21483346B7
:10150C004FF41251FFF7BEFFA5462C37BD46BDE880
:10151C00F08FC0F30A0804F11700184420F00700FC
:10152C0080083B60FFF750FE68F35325044690B1EA
:10153C003B68154AC7E9083600F1100107F114039E
:10154C00F961CDE900A3CDF808B0F96807F11C03E7
:10155C004846FFF7F7F968F353257B68B9682A46C4
:10156C00204610F045FAD0E704F1170020F00700F0
:10157C008008FFF729FE0446EDE700BFBAAA010078
:10158C0004000001749F0100D11901002DE9F04FF6
:10159C0087B0DDE91269DDE9105A04460F4693461F
:1015AC009846A6B31021CDF8009033465246002041
:1015BC00CDF81490FEF7F4FF014605F1170008442E
:1015CC00144B039104F007040BF0070BE40020F01C
:1015DC00070003EA412344EA8B1480081C43FFF7FD
:1015EC00F3FD44EA0554054640B13EB10399CDF8EC
:1015FC000090334652461030FEF7D2FF4346224647
:10160C003946284607B0BDE8F04F10F0F1B9314625
:10161C00D3E700BF00FE0F000EB403B503AB0146C9
:10162C0053F8042B0448019301F082F802B05DF8E2
:10163C0004EB03B0704700BFF71A0100CA0605D4CB
:10164C008B064CBF02490349FFF7E6BF704700BF4A
:10165C00FAAA0100F9AA01002DE9F04F89B09B46C6
:10166C009DF84C300493DDE914930593049B06928A
:10167C00DDE9167604460D46002B00F0878006F057
:10168C000803079310F09CF906F0020A02460028A2
:10169C004BD086492046FFF7BFFF8046BAF1000FBA
:1016AC0008D016F0440F42D181492A462046FFF754
:1016BC00B3FF804406F001035BB17E4B049A7E4974
:1016CC0053F822207D4B2046002A08BF1A46FFF70C
:1016DC00A3FF06F00803002B55D0794B049A7949E7
:1016EC0053F822202046FFF797FF0546069B2BB1A7
:1016FC0075491A462046FFF78FFF0544BBF1000FD2
:10170C0005D072495A462046FFF786FF05444544EA
:10171C00B9F1000F49D1002F4FD1F30700F1C08070
:10172C0031462046FFF78AFFB4E08046B6E7684BA7
:10173C0018680028BDD0674B4FF47A7E1B68B5FB48
:10174C00F3F54FF46162B5FBF0F300FB1355B3FBFB
:10175C00F2FA0EFB05F502FB1A323C21B5FBF0FC4C
:10176C00B2FBF1F300FB1C5501FB13220EFB05F53C
:10177C000092B5FBF0F55849CDE901C5524620461B
:10178C00FFF74AFF95E706F00805AFE7BBF1010F3D
:10179C0006D1B9F1000F64D1002F7BD000250CE0ED
:1017AC00B9F1000FF8D04D485CE04D484D494B461F
:1017BC0022460FF0E1FA002F68D0DFF82C91DFF809
:1017CC002CA1102F31462046B84628BF4FF01008E8
:1017DC00FFF734FF4FF0000B5D4545DC059B514690
:1017EC001A782046FFF718FF4FF0010B1BF0070F7C
:1017FC0003D149462046FFF70FFFD8453BD9059B3F
:10180C00514613F80B202046FFF706FF0BF1010B96
:10181C00BBF1100FEAD1364920464FF0000BFFF711
:10182C00FBFE5A46059B9A5CA2F120015F2928BF5A
:10183C002E2230492046FFF7EFFE0BF1010BBBF1D6
:10184C00100F1DD01BF0070F03D149462046FFF7A0
:10185C00E3FED8455A46E5D849462046FFF7DCFE5C
:10186C00EBE71F48049DA1E749462046FFF7D4FE4D
:10187C000BF1010BB0E720492046FFF7CDFEC5E781
:10188C00059BB7EB0807434405939AD1049B002BA7
:10189C007FF443AF204609B0BDE8F04F10F018B903
:1018AC00064A05492046FFF7B7FE39E701AB0100B0
:1018BC0005AB01002CA001007FB10100FCAA0100C6
:1018CC0040A001002AAB010030AB010034AB010099
:1018DC00B80F0020B40F00200EAB01002D1B01002F
:1018EC00F71A01003D27000041AB010039AB0100A4
:1018FC00E6A9010043AB01003FAB01002DE9F0412B
:10190C000F884B688E6886B005460C469046C7F328
:10191C0082175BB1144A9B1A43F3CF01002920DBD9
:10192C002078C0F3C200FFF78BFD03462146608888
:10193C0051F8102B0197C2F34A22002A01EB020442
:10194C00C0F30B1008BF00210022CDE90408CDE93B
:10195C000214009231462846FFF77EFE06B0BDE821
:10196C00F0810023E2E700BF449F010073B542F20F
:10197C000F738B4228BF0B4605680F4A044605219E
:10198C0068460EF01FFF63680C495B6806460B2225
:10199C00284610F090F863683246694628465B6822
:1019AC0010F089F8636806495B681B22284610F022
:1019BC0082F802B070BD00BF9CF6010062AB010062
:1019CC0046AB0100074A00210123904206D8064A83
:1019DC0001B901231360054B1860704740085B0088
:1019EC000121F2E740420F00B40F0020B80F002095
:1019FC00014B01221A7070474C290020014B00202A
:101A0C0019607047D00F0020024B034801221A7056
:101A1C0010F05EB84D29002070A001000148FFF7BE
:101A2C00A5BF00BF70A0010010B5064B18680C468E
:101A3C00FFF73CFB21460346BDE8104002480F224D
:101A4C00184700BFD00F002070A0010010B9074B41
:101A5C0018707047064B1B781BB141F2883017F099
:101A6C0017BFA42000210EF06FBC00BF4C29002032
:101A7C004D2900202DE9F843DFF874901D4F804666
:101A8C000E46042499F8005095B90DF03FFE2846F7
:101A9C00324641460DF0ECFD05460DF041FEE5B138
:101AAC0001233B7099F8003073B93046BDE8F883D8
:101ABC003246414600200DF0DBFD0546EFE720469F
:101ACC00FFF7C4FF651E2C4600200DF015FE002804
:101ADC00EBD03B78002BF2D1E7E73B78002BE4D03E
:101AEC00013C2046FFF7B2FF3B78002BCAD1DCE764
:101AFC004D2900204C290020F8B5074F0D4604460F
:101B0C004618B44201D12846F8BD14F8011BBB6835
:101B1C0001485B689847F4E7D09D0100014B0360D6
:101B2C0000207047B4A001002DE9F047804600AFBB
:101B3C000C46002936D0E9468AB0D1E90012A368D8
:101B4C006D461C482E464FF0050AC5E90501C5E94E
:101B5C00072346F810AF1848324600234FF42151A2
:101B6C00FFF790FCCD46D4E903126369AD461348E8
:101B7C00C5F810A0C5E90501C5E907230E480023E7
:101B8C0032464FF42151FFF77DFCCD46E3690C4AF8
:101B9C00094801210FF085FFA3690A4A0648012173
:101BAC000FF07FFF214640460DF0C0FDBD46BDE85D
:101BBC00F08700BFB8AB01009C9F0100E7AB0100B0
:101BCC0016AC010025AC010030BFFFF7FDBF00BF14
:101BDC00114B124A2DE9F041D518DFF84480013D34
:101BEC00B5FBF3F55D430F4B08EB0304013CB4FB71
:101BFC00F3F403FB04540E1B07460B49304618F054
:101C0C0057F8701942460021083E18F079F83E67E3
:101C1C0004F10800BDE8F0810100000000000000A4
:101C2C000400000004000000DC9F0100044B9968D4
:101C3C005869884203D003494FF080520A607047BC
:101C4C00F828002004ED00E070B5294C06460D463E
:101C5C00284829490FF0A5FFA36AD9043CD525488B
:101C6C0026490FF09EFF1720A36A1A0504D52148B8
:101C7C0023490FF096FF18201D4CA36A9B0512D523
:101C8C001C4820490FF08DFFA36BA26A100409D5E4
:101C9C001D4A184801210FF004FF1EB1A36A23F45A
:101CAC000043A3621920124CA36A590504D51148AC
:101CBC0016490FF076FF1A20A36ADA050ED50D48E7
:101CCC0013490FF06EFF1B20094A936A43F47F43BC
:101CDC00936200232B7070BD1620C5E7A36A9B048A
:101CEC00F2D504480B490FF05CFF1C20ECE700BF59
:101CFC0000ED00E09C9F010053AC010069AC0100B9
:101D0C007AAC01008DAC0100A6AC0100BBAC0100AB
:101D1C00D6AC0100EEAC010010B5204C2049214896
:101D2C000FF03FFFA36A990136D51E481E490FF0EC
:101D3C0038FF1E20A36ADA0104D51A481B490FF09C
:101D4C0030FF1F20154CA36A1B0304D515481849F6
:101D5C000FF027FF2120A36A590304D51148154918
:101D6C000FF01FFF22200D4CA36A9A0304D50D48D7
:101D7C0011490FF016FF2320A36ADB0304D5094891
:101D8C000E490FF00EFF2420044A936A6FEA0343B6
:101D9C006FEA1343936210BD1D20CBE700ED00E00A
:101DAC001DAD01009C9F010035AD010048AD010047
:101DBC0062AD010080AD0100A5AD0100BFAD010019
:101DCC002DE9F843364D8046894636483649174644
:101DDC000FF0E7FEAB6ADE0627D5344931480FF029
:101DEC00E0FE1124AB6A1D0704D531492D480FF0D4
:101DFC00D8FE12242A4DAB6A980718D52D492948CC
:101E0C000FF0CFFE6E6BAB6A190646D52A4A2548F1
:101E1C00334601210FF045FEB9F1000F03D0AB6A38
:101E2C0023F08003AB62132403E01024DAE76FF095
:101E3C0015061B4DAB6ADA0704D5204919480FF07B
:101E4C00B0FE1424AB6A9B0604D51D4915480FF04F
:101E5C00A8FE1524124B9A6AD50602D49A6A9007EA
:101E6C000AD55B68190507D54146304600F082FA61
:101E7C0010B180F309880224094B9A6A920642BF7A
:101E8C005A6A22F400525A629A6A42F0FF029A622B
:101E9C0000233B702046BDE8F8836FF01506C2E7BF
:101EAC0000ED00E09C9F0100EAAD010000AE0100D6
:101EBC007AAC010033AE01004BAE010061AE010003
:101ECC00EEAC01002DE9F041664B8AB0D3F80480EA
:101EDC0000AF0446C8F30805002686F31188BFF34B
:101EEC006F8F02F07F43B3F17F4F07D102F00C03E9
:101EFC00082B12D15C495D480FF053FE0026344686
:101F0C000023FB71EB1E092B00F28A80DFE803F043
:101F1C000A80837D88888888888610074CBF0C4689
:101F2C000126EDE7524951484E4D0FF03AFE002381
:101F3C00FB71EB6A9A0705D54E494C480FF031FE00
:101F4C00002333E0EB6A002B01DA4B49F5E7EB6A2F
:101F5C005B00F5D5494945480FF023FE6B69A26932
:101F6C0043F480736B61BFF34F8FBFF36F8F6B695B
:101F7C0032F8022C23F480736B61BFF34F8FBFF3E5
:101F8C006F8F4DF602739A4209D0AB6ADBB27BB30A
:101F9C00FA1D01212046FFF713FF034606E02368D4
:101FAC00374A324801210FF07CFD2368FA79DAB9FF
:101FBC0007F1080504F1200C206861682A4603C269
:101FCC00083464451546F7D17A6A002E44D0C2F322
:101FDC00080121B96FEA52226FEA42227A6207F1B4
:101FEC0008011846FFF7A0FD2837BD46BDE8F08173
:101FFC00AB6A13F47F4F04D0F91D0120FFF724FEC8
:10200C00CBE7AB6AB3F5803F9AD3FFF785FEC4E705
:10201C00FA1D0021BEE7F91D0020EFE719498CE7F6
:10202C00194A1A4B18F4F87FE8468AB018BF1346C1
:10203C006A461749C2E905134FF400731384103D27
:10204C00144BD56142F8103F084800234FF411514E
:10205C00FFF718FAC54673E722F4FF7222F001026B
:10206C00BCE700BF00ED00E0AEAE01009C9F01009C
:10207C00D9AE0100F0AE010011AF01001FAF01009D
:10208C003EAF01005AAF010095AE010080AE0100D9
:10209C007EAF010004000001024A536943F01003B3
:1020AC005361704700ED00E0EFF30880EFF3098116
:1020BC0001B57246FFF706FF01BD00BF002080F39B
:1020CC001488BFF36F8F00F083FB00200D4908606C
:1020DC00BFF34F8F0C4880F3088800F03DF82020A8
:1020EC0080F3118809484FF40461401880F3098883
:1020FC00EFF314800221084380F31488BFF36F8F31
:10210C0000F000F994ED00E0C04300200032002004
:10211C00BFF34F8F0549064BCA6802F4E0621343C4
:10212C00CB60BFF34F8F00BFFDE700BF00ED00E0B9
:10213C000400FA050749D1F890200023C2F30722C6
:10214C001846934200DB7047C1F89830C1F8A000E4
:10215C000133F6E700ED00E008B572B6002383F317
:10216C001388FFF7E7FF144B4FF0FF32C3F88020C2
:10217C00C3F88420C3F88820C3F88C20C3F89020BF
:10218C00C3F89420C3F89820C3F89C20C3F880218E
:10219C00C3F88421C3F88821C3F88C21C3F890219B
:1021AC00C3F89421C3F89821C3F89C2162B6BFF3FD
:1021BC004F8FBFF36F8F08BD00E100E0084B9B68A9
:1021CC0083420BD1EFF3058343B1064B5A6842F0BF
:1021DC0080525A605A6A22F400425A6217F07DBC4F
:1021EC00F828002000ED00E0094A93686FF00A011E
:1021FC009967084958674B6843F080534B6000233C
:10220C0083F31188BFF36F8F9368986F704700BF8B
:10221C00F828002000ED00E015498A684FF03000E6
:10222C001044EFF3098C80E8F01F202080F3128813
:10223C00BFF36F8F0F4F4FF000664A698A603E60A4
:10224C004FF07004141920680B4C2060506F002361
:10225C00536780F3118804B5104600F009F9BDE806
:10226C00044002F1300090E8F01F8CF309887047AD
:10227C00F828002004ED00E0F80F00201EF0040FF9
:10228C000CBFEFF30880EFF30980816911F8021C91
:10229C000229FFD001B50FF079FC01BD40B2002836
:1022AC0007DB044A4109012300F01F00834042F878
:1022BC002130704700E100E0054B420900F01F009F
:1022CC0053F82220012303FA00F01040704700BF9E
:1022DC0000E100E040B20028A8BF00F1604001F12D
:1022EC000101B8BF064B4FEA4111ACBF00F561408C
:1022FC0000F00F00C9B2B4BF195480F80013704736
:10230C0014ED00E00B4A08B50B4B22F07F029A60EB
:10231C00BFF34F8FBFF36F8FD3F8882022F4700276
:10232C00C3F888200DF0B4FA0EF02EF800F074F813
:10233C000DF000FB0000000000ED00E042F8203C36
:10234C00009B42F81C3C0A49019B42F8183C029B3A
:10235C0042F8143C21F001014FF0807342F8043C28
:10236C0042F8081C0023203A02654367704700BFFF
:10237C000D0D0000094A0346906870B113F1160F59
:10238C00006E05D0A0F140029A4205D8834203D2D8
:10239C00814228BF0020704700207047F828002099
:1023AC0008B514460A4A0B4B9060026F1A600D4632
:1023BC0000F05EF8204685F30988002163B681F3AE
:1023CC001188BFF36F8F00220023FEF799FC00BF2A
:1023DC00F8280020F80F0020014910220A607047ED
:1023EC0010ED00E072B6404080F31188BFF36F8FA0
:1023FC00BFF34F8F30BF62B6BFF36F8F704700BF14
:10240C0072B6494081F31188BFF34F8F20BF80F320
:10241C00118862B6704700BF044800232021C218FF
:10242C000133272B82F80013F9D1704700E100E04B
:10243C0001B5EFF30580A0F110004FEAC00004498C
:10244C00014409C99847BDE801400249084700000A
:10245C000C9E0100391C0000024B034A0348012169
:10246C0000F084B80000012000000020B4A001009E
:10247C00026E054B403A1A60044A4021C3E901122E
:10248C001846012100F07CB8FC0F002000000B1551
:10249C00072808B5034607D90C480D4A01210FF04F
:1024AC0000FB6FF0150008BD0A48C0F898300A68A8
:1024BC0022F01F021A4342F01002C0F89C208A68D6
:1024CC0042F00102C0F8A0201846ECE7949F0100EE
:1024DC0095AF010000ED00E0F0B50E4685B01F464B
:1024EC0004460025B5420DDA606810B397B1431E5F
:1024FC0018420AD0104A11482B4601210FF0D1FA8C
:10250C006FF01502104605B0F0BD1F28F2D92168F6
:10251C000B42EFD1236801930FF04BFBA36801A989
:10252C000343D0B20393FFF7B3FF10F1160FE7D0BC
:10253C00421C01350C34D5E7BBAF0100949F010060
:10254C00044B0522C3F89420BFF34F8FBFF36F8F5A
:10255C00704700BF00ED00E0BFF35F8F024B00221D
:10256C00C3F89420704700BF00ED00E010B5034C99
:10257C0001232278FFF7B0FF207010BD5F290020E7
:10258C0008B5094A00231278FFF7A6FF10F1160FC1
:10259C0003D0064B0022072800DD08BDC3F89800C5
:1025AC00C3F8A0200130F6E75F29002000ED00E021
:1025BC00F0B54F490868082885B000F29680FFF7FF
:1025CC00CBFF4C4C49680022904201F10C010DD11B
:1025DC00494D4A4F28706846FFF7A0FA002406467A
:1025EC00A64216D1FFF7ACFF00202DE0C4F89820CE
:1025FC0051F80C3C23F01F03134343F01003C4F8B1
:10260C009C3051F8043C43F00103C4F8A030013273
:10261C00DAE7009800EB04114FEA041CCB683B404E
:10262C00B3F5000F4FD011D8B3F5001F35D0B3F56B
:10263C00800F3DD0B3F5801F17D0314A31480121AE
:10264C000FF026FA6FF0150005B0F0BDB3F1807FE6
:10265C0042D0B3F1007FF0D150F80C3088684A6852
:10266C000FF0A7FA40F4802009E050F80C3088688D
:10267C004A680FF09EFA40F0885040F430200390E6
:10268C0001A92878CDE90123FFF702FF0028D9DB47
:10269C002B7801332B700134A2E750F80C3088688A
:1026AC004A680FF086FA40F0885040F40020E6E7C4
:1026BC0050F80C3088684A680FF07BFA40F0E06004
:1026CC0040F40030DBE750F80C3088684A680FF0B3
:1026DC0070FA40F08270D2E750F80C3088684A6883
:1026EC000FF067FA40F08870C9E74FF0FF30ABE7A6
:1026FC00C0A0010000ED00E05F2900200000F0FF09
:10270C00DEAF0100949F010008B5024B1B6898478F
:10271C00002008BD08100020034B044A1860937871
:10272C0043F0020393707047081000201000002043
:10273C00F0B587B007460E461446002110226846B5
:10274C001D4617F0DDFA02238DF802302A46054BA0
:10275C00019321466846CDE904760EF05FF807B088
:10276C00F0BD00BFDF1B010008B504480EF05CFB98
:10277C00404080F311884FF0020002DF0FB00100DF
:10278C0008B50649064821F00701C1F1005202F5CF
:10279C0080320EF078FD002008BD00BF07440020F9
:1027AC000C100020044A0123C2F840354FF080423F
:1027BC000020C2F87835704700E0014020B1034B8F
:1027CC00800143F001031847704700BF00A00100CF
:1027DC0001F09CBA084B70B5C31A0D4607499B1003
:1027EC0004465943064840220FF01AFA2B4601467C
:1027FC002046BDE8704018472C100020B76DDBB6A2
:10280C00A89D010073B50C4C0C4A4023041B00938B
:10281C000D460B460A49A4106143064609480FF0C1
:10282C002BFA011E05DA30462B4602B0BDE870408B
:10283C00184702B070BD00BF2C100020EF1C010027
:10284C00B76DDBB6A89D010010B54FF02003EFF378
:10285C00118483F31288BFF36F8F074A136823F038
:10286C000201DB07116002D401200FF0C5FB84F3D9
:10287C001188BFF36F8F10BD7C100020002270B543
:10288C00012104461046FFF725FD0F4801F026FCF8
:10289C000E4B984215D101F031FC26690C4930469B
:1028AC000EF07EFD00280BDB0125356424690849F8
:1028BC0004F11C000EF074FD002801DBE56400201F
:1028CC0070BD6FF00400FBE7152900000000AD0B94
:1028DC00E0A0010070B501460C2309484B43C41815
:1028EC00D4E90E56403300221844A2630FF085F948
:1028FC002DB132462B460348BDE87040184770BDD9
:10290C002C100020A89D010010B1012804D07047A4
:10291C00034B1B6C5B0701D1FFF7DCBF704700BF9B
:10292C002C10002008B54FF02003EFF3118183F336
:10293C001288BFF36F8F124A136843F002001060C5
:10294C00DA0708D481F31188BFF36F8F0120BDE83B
:10295C00084001F0E5BB4FF08043D3F80C24D3F8CA
:10296C000C34DB07EED507480FF047F981F31188DB
:10297C00BFF36F8F0020BDE80840FFF7ABBF00BF6F
:10298C007C1000206C1000201FB500220123CDE923
:10299C000223094ACDF800D06B46CDF804D00FF0D5
:1029AC0099F9002805DB4FF48042002368460DF0AE
:1029BC00C3F905B05DF804FB071D010010B5074C09
:1029CC0023782BB94FF4A57016F062FF0123237006
:1029DC00BDE81040002001F0A3BB00BF602900201F
:1029EC002DE9F0413849BFF35B8F0746012251E8CE
:1029FC00003F41E800200028F9D1BFF35B8F33B9C9
:102A0C00324933484B60CB608A600EF0DCFC7B1E95
:102A1C00012B2BD8012F07D14FF08043D3F81C3456
:102A2C0003F00303012B21D016F046FF0546F8B93D
:102A3C00284B1B78E3B14FF080430222C3F80823E4
:102A4C000646DFF894804FF08044D4F81824D4F86C
:102A5C001834D20316D503F00303012B01D0012F38
:102A6C0010D15DB386F31188BFF36F8FBDE8F08191
:102A7C004FF02003EFF3118683F31288BFF36F8FAF
:102A8C000125DEE7ADB13046FFF7BAFCD4F81835B6
:102A9C00002BDAD1D4F80421002AD6D0C4F80431A2
:102AAC00D4F804310123C4F81835C8F88031A36078
:102ABC00CBE7002121200DF047FCE7E74FF08043E6
:102ACC000222C3F80423D1E728100020181000209C
:102ADC0048100020802E002000E100E008B50748D7
:102AEC0016F0DBFE38B10648FFF716FE0448FEF779
:102AFC0001F9002008BD6FF01200FBE7D09D01002A
:102B0C00112B00000A2838B5074D044604D1AB68D8
:102B1C000D215B6828469847AB6803485B68E1B2B7
:102B2C009847204638BD00BFD09D010008B5034929
:102B3C0003480FF048F96FF0850008BD5AB001004A
:102B4C00AC9F010008B5034903480FF03CF96FF046
:102B5C00850008BD5AB00100AC9F010008B50349BF
:102B6C0003480FF030F9002008BD00BF5AB0010037
:102B7C00AC9F010008B5034903480FF024F96FF02E
:102B8C00850008BD5AB00100AC9F01002DE9F34748
:102B9C00B3F80880B3F804E00A9FD0F804A0F0451D
:102BAC0006461C4608D23F493F480FF00CF94FF03F
:102BBC00FF3002B0BDE8F087B3F806C01B680CFB11
:102BCC000EF5ED109D4228BF1D4607B10DB93749D2
:102BDC00EAE7F04501D93649E6E712F0070901D0DA
:102BEC003449E1E79AF838309AF841A0C2F3C708A3
:102BFC00BAF1000F30D0194401F00F0141F020015F
:102C0C005F238DF800108DF80130BA46E2885FFA28
:102C1C0089F3B3EBD20F01D30020CAE7434463F02E
:102C2C004F038DF8023003220123694630460FF022
:102C3C006BF803460028BAD1A288514630460FF0F3
:102C4C0063F80028B3D1A3889A447B199A4509F1FB
:102C5C000109DBD91849A7E78DF80330013B734410
:102C6C008DF8043022238DF8053002EB0C03202163
:102C7C00DB10ADF80010013B21218DF802108DF80E
:102C8C0007300822012369468DF806800FF03CF8C6
:102C9C00034608B1094987E72A46394630460FF002
:102CAC0033F886E766B00100AC9F010082B00100EA
:102CBC00A2B00100B3B00100C6B00100DDB001004C
:102CCC00F0B585B045686B6C04464FF4004240F299
:102CDC00E7300021C3FB020151EAC33300AF2FD010
:102CEC0000234FF47A72FDF7F3F96FF00103181A11
:102CFC004FF0FF3363EB01010DF026FB63682046B8
:102D0C009B6A9847064600BB2B6B204698476C463F
:102D1C0088B06A466B4BC2E905304FF4007393835D
:102D2C00694B42F8103F694833464FF4E251FEF7C5
:102D3C00A9FB6FF01505A54628461437BD46F0BD16
:102D4C006FF001004FF0FF31D6E7286AA0B9656833
:102D5C00A4233B7195F840305A3B7B712B6A53BBD3
:102D6C0020460EF0E3FF002837D0594957480FF0A2
:102D7C002AF86FF00405DFE795F82410EB8CD0F8F7
:102D8C0010C0D0F808E0DCF80050DA0754BF43F468
:102D9C00B01383F4D013012623F480128E40DB078A
:102DAC004CBF3543B543CCF80050DEF800309847A3
:102DBC00051ECCDAC0E70021203521200DF0C4FA25
:102DCC00012128460FF00DF8002121200DF0BCFA4E
:102DDC00002128460FF005F8C2E748F2D5023A81E7
:102DEC006368D922BA7293F83C30FB7244F2DB036D
:102DFC00BB810622012307F1080120460EF084FF57
:102E0C000028B2D163684DF240323A8193F83A20EF
:102E1C00BA72DA22FA7293F83F20002A0CBF1222FF
:102E2C0002223A73A8227A7393F83B30BB730722C1
:102E3C00012307F1080120460EF066FF002894D10B
:102E4C00626892F83D30603B3B7292F83E30002B4A
:102E5C000CBFC023C8237B720222012307F1080197
:102E6C0020460EF051FF00287FF47FAF636893F883
:102E7C004130002B0BBF14238B238D22AD227B7290
:102E8C0033233A72BB720322012307F10801204657
:102E9C000EF03AFF00287FF468AF01230222391D9F
:102EAC0020460EF031FF00287FF45FAF80212046D2
:102EBC000EF04BFF054600287FF457AF20460EF06E
:102ECC0029FF39E7F5B0010003000001AC9F0100B8
:102EDC000EB1010038B545682B69B3B110352846E1
:102EEC0001F00EFC044680B90146284601F0D0FBE7
:102EFC00084B98420BD108492246284601F0B0FBFA
:102F0C00224605210620FFF7E5F9002038BD6FF0B9
:102F1C000400FBE70000AD0B292F0000430970B53E
:102F2C0007D10B4B596821B101250C68094E85401E
:102F3C0001B970BD8A682A4002D04B683046984768
:102F4C001CB1236821461C46F2E72346FAE700BF72
:102F5C0080100020BC9D01002DE9F043476840F231
:102F6C000636D0063B7B87B002EA060654BFC2F396
:102F7C004010032001F01F05B6F5837F144645EA87
:102F8C0043158DF8030042D00FD8062E18D007D861
:102F9C00B6B1022E3DD06FF0150007B0BDE8F0833E
:102FAC00B6F5807FF7D101260AE040F20222964264
:102FBC0031D0B6F5407F30D0B6F5007FEBD102268C
:102FCC0022032CD57A6801238B40C2F808353B6963
:102FDC006BBB05F01F026D0976D1920002F1A04285
:102FEC0084F48031D2F80037C1F30041C4F340447B
:102FFC0023F4E16344EA410423F007031C4344EA4D
:10300C00800444EA0624C2F800470020C5E70726DE
:10301C00D6E70426D4E70526D2E70326D0E76303D8
:10302C0041BF01237A688B40C2F80C35CFE71037CB
:10303C000DF102022946384601F018FB14F4403F0A
:10304C0080460CD1294638460FF048F8214B98455C
:10305C00DBD19DF80210384601F05CFBD5E701ABE3
:10306C004FF0000903AA29463846CDE90439CDE9C9
:10307C000199CDF80C9001F0CDF9164B98428AD1FC
:10308C0014F4003315D09DF803308DF80E3084F411
:10309C008034C4F300444B4603AA294638468DF8C5
:1030AC000C608DF80D4001F065FA0A4B9842CDD0BA
:1030BC0071E7CDE9043303AA0DF103032946384621
:1030CC00039301F0A7F9F0E702F5E07253F8223010
:1030DC00FFDE00BF0000AD0BF0B54068057B01F0D2
:1030EC001F0444EA4514056987B0002D60D0B2F581
:1030FC00001F00F1100506D1214628460EF0F0FF06
:10310C00002007B0F0BD01AE0027B2F5800F01978B
:10311C00776038D1B3F1007F14BF052304238DF8F9
:10312C0004300023CDE904630393836823FA01F18F
:10313C0011F0010119D1B2F1A07F16D104F01F03D7
:10314C00620903F5E07339D14FF0A04252F82330F5
:10315C00DB070AD40DF1030632462146284601F05E
:10316C0085FA184B984219D0029603AA2146284694
:10317C0001F050F9144B98421DD1012221462846EA
:10318C0001F0D4FABCE7B3F1C06F05D0B3F1007F06
:10319C0014BF01230223C2E70323C0E731462846AC
:1031AC0001F0BEFA084B9842DED06FF00B00A8E796
:1031BC006FF08500A5E76FF01500A2E751F82330FA
:1031CC00FFDE00BF0400AD0B0000AD0B08B543687B
:1031DC001B68D3F80805D3F80C1501F017FE034B48
:1031EC00984214BF6FF00F00002008BD0000AD0B1B
:1031FC0008B5CA07436800690AD4C1F34202012A20
:10320C0009D0022A0FD00A4A0A4801210EF040FCCC
:10321C006FF0150006E01B684FF0CC72C3F8242544
:10322C004162002008BD1B684FF0CD62F6E700BF7D
:10323C0050B101006C9F0100B0B5044682B0002271
:10324C0000AF01210320FFF745F863689D693A1D23
:10325C00002128460EF02EFE002827DB7B682A680A
:10326C001979186800F0CCF800281FDB6068236916
:10327C00114A00F1080101F063FC104B984218D080
:10328C0023686C4688B06A460D49C2E905134FF4B1
:10329C00007393830B4B42F8103F0B4800234FF401
:1032AC00E251FEF7EFF86FF00F00A5460837BD4668
:1032BC00B0BD0020FAE700BFD93200000000AD0B12
:1032CC0062B10100030000016C9F01000378012B27
:1032DC0008D0022B08D04BB9054B0B6201F1100042
:1032EC000CF006BD034BF8E7034BF6E7034BF4E792
:1032FC000000AD0B0100AE0B0200AE0B0100AD0BDC
:10330C002DE9F04F8BB005460C469146019347686A
:10331C0006694FF0FF324FF0FF3330460CF00CFDD6
:10332C0006F1100A0022002350460CF005FD384629
:10333C0001F066FCDFF8C0B04FF00008C14501D8C1
:10334C0000242EE0237A039313F008014DD11222AE
:10335C000DF11600029116F0D3FC039B60680199E5
:10336C00069003F0010220688DF8151013F0020F7F
:10337C0002998DF8142008901DD109F1FF334345B3
:10338C0002D9237D5B0718D57ABB202205A93846C4
:10339C0001F062FC584512D0184B984228D06FF0BF
:1033AC000404384601F03CFC30460CF0A1FC2046ED
:1033BC000BB0BDE8F08F0A46E8E74022E6E74FF491
:1033CC008042002350460CF0B7FC30B1384601F077
:1033DC0027FC2846FFF7FAFEE1E7336A5B4504F168
:1033EC000C04DCD108F10108A8E76FF08504D8E7DC
:1033FC006FF00F04D5E700BF0000AD0B0B00AD0B59
:10340C002DE9F041594D5A4E00EB8101814202D118
:10341C000020BDE8F081046814F4805FC4F34327F6
:10342C0004F07F0340F08E807F2B4FEA1444EF5D55
:10343C0008BF4FF0FF33192C00F28780DFE804F04F
:10344C000D13191C1F251C85858585366185858581
:10345C0085858585858564797C7FC2F80C355C1CF7
:10346C005CD10430D2E7C2F814355C1CF9D00024CE
:10347C005DE0C2F80835F2E7C2F81035F5E75C1CE0
:10348C00C2F80835EDD0002404E05C1CC2F80C3501
:10349C00E7D001245FEA531C5AD14FF0010E4FF0D4
:1034AC00A04C0EFA03F8CCF80C8508E0C2F80835ED
:1034BC00002FDAD15C1CD4D00024A6460627D0F805
:1034CC00008008F4005CBCF1000F1CBF4FF0000E34
:1034DC00012403F01F0C5B0942D14FEA8C0C0CF158
:1034EC00A04CC8F3C118DCF80037334043EA88031A
:1034FC0043EA072343EA0E0343EA4403CCF80037BC
:10350C00AFE7C2F80C35D3E7C2F86035B3F1FF3F33
:10351C000468A6D0C4F38034002CBAD05C091BD14B
:10352C0001244FF0A04C04FA03FECCF808E5A646A3
:10353C00C5E7C2F86435E9E7C2F86835E6E7C2F8D2
:10354C006C35E3E76FF0150063E76FF0850060E71B
:10355C000023C3F80C35FFDE0023C3F80835FAE767
:10356C000CF5E07C002353F82C30F4E79CB10100FF
:10357C00F0F8FCFF2DE9F341002206460121022060
:10358C00FEF7A8FE0220FEF789FE776835693C68D5
:10359C000021C4F800152E60D7F80C8001AA404613
:1035AC000EF088FC0028C0F29580019BD8F8002012
:1035BC0019791868FFF724FF0028C0F28B806B7A0A
:1035CC00012B21D1AB7A032B1ED1E87A08B101284B
:1035DC001AD12A7A12B1022A16D10E226B6871689E
:1035EC00B3F5164FD1F800C077D02BD8B3F5165FD2
:1035FC0076D014D8B3F5966F74D008D8B3F5967FFF
:10360C0073D0B3F5167F73D06FF0850062E0B3F51D
:10361C00166F70D0B3F5965FF6D15B4B3CE0B3F50B
:10362C00E14F6BD007D8B3F5615F69D0B3F5964F16
:10363C00EAD1564B30E047F612218B42E4D14FF4DD
:10364C00000329E0B3F5613F5CD013D8B3F5963F86
:10365C005BD009D84DF6C0218B4258D0B3F5614FE1
:10366C00D2D14FF46B0317E0B3F5E13FCCD14FF05F
:10367C00EB7311E0B3F5612F4CD008D844498B4261
:10368C004BD0B3F5E12FBFD14FF0E86304E04149D3
:10369C008B42B9D14FF080533169CCF82435736823
:1036AC001B680243C3F86C250B1DD5E9010183E8A7
:1036BC0003007B6899073FD505F1180001F028F944
:1036CC00354B98422CD03548354A01210EF0E0F9A3
:1036DC006FF0040002B0BDE8F0814FF41D03DBE78E
:1036EC00304BD9E74FF49E23D6E74FF4A033D3E702
:1036FC004FF41C33D0E74FF41D23CDE72A4BCBE717
:10370C002A4BC9E74FF06C73C6E7294BC4E74FF45B
:10371C006503C1E74FF07063BEE74FF08063BBE712
:10372C00287E04F10C0204F590710EF05BFC2B7EEC
:10373C000120984000F06AFC0823C4F800353B7A5D
:10374C0053B9C4F81031D4F810316B69C4F834355E
:10375C000123C4F8383523607B689A075CBF4FF4AB
:10376C008073C4F804337B68DB0644BF4FF48003DA
:10377C00C4F804332B69C4F8443500200123C4F881
:10378C004805A360E360A5E700B0130000A04E005D
:10379C0090D0030040420F000000AD0BB49F01001D
:1037AC00A4B101000050270000C0750000F03A00E1
:1037BC0000903A01F8B5044607690D4616F07CF8FE
:1037CC00B0B92E4B1B789BB1642660680EF0A0FB41
:1037DC0000BB01200EF004FC013EF6D1002121209B
:1037EC000CF0B2FDF0E786F31188BFF36F8FF5E7AD
:1037FC004FF02003EFF3118683F31288BFF36F8F22
:10380C00606831460EF084FB90B986F31188BFF3E3
:10381C006F8FEDE74FF02003EFF3118683F31288DF
:10382C00BFF36F8F606831460EF072FB0028DAD060
:10383C003B691D70626838691368C3F84405012040
:10384C00C3F848050020C3F82001D3F82051C3F871
:10385C0058015268D3F85801D20608D5626812682C
:10386C000820C2F800054FF48002C3F8042301229B
:10387C009A6081F31188BFF36F8FF8BD802E002002
:10388C0070B5012383400E4ABFF35B8FDC4352E8D3
:10389C00001F01EA040542E80056002EF7D1BFF3E1
:1038AC005B8F4FF4803282400648C0F80823BFF388
:1038BC005F8FBFF36F8F0B4214BF0120002070BDD0
:1038CC00901000200010014070B40E49D1E9003472
:1038DC00D01AC31844F1000422F07F46C1E9003429
:1038EC00A6F50013B3F5400F09D2074B1B681A0A53
:1038FC001B069C19054B42F10005C3E9004570BC41
:10390C000CF018BE60060020941000206806002001
:10391C0011B3BFF35B8F0123104A834052E800CFF1
:10392C004CEA030C42E800C10029F7D1BFF35B8FCE
:10393C000B4A4FF480338340C2F80433094BBFF376
:10394C005B8F1B68BFF35B8FC340DB0742BF064B2B
:10395C004FF40032C3F80021704700BF90100020D4
:10396C00001001408C10002000E100E00D4B1868A5
:10397C00010A0006BFF35F8F0B4BD3F80435181800
:10398C0041F10001B3F5801F0AD2084BD3E90023A3
:10399C00904271EB030303D210F1807041F10001EE
:1039AC00704700BF941000200010014068060020F2
:1039BC002DE9F04F85B016461F469DF840A00446F1
:1039CC00FFF75EFF0190FFF7D1FFB04271EB0703E9
:1039DC0054D23E4B301A67EB0101984271F1000151
:1039EC004FD23B4B03EB0413D3E902239F4208BF96
:1039FC0096425ED037494FF4803804F1500508FAEE
:103A0C0004F8AD00C1F848832046ADB20EF0C9FAF7
:103A1C0026F07F4B05F1804504F5A87305F5883534
:103A2C00DC464FF003090293029A2CF07F4341F8D5
:103A3C002230C1F84483D1F80435274A6FF00200D4
:103A4C00C01A604420F07F40904232D9286868B197
:103A5C00D1F804350393A3EB0B0020F07F40B0F5B5
:103A6C00000F26D920460EF09CFA039BBAF1000FEA
:103A7C0007D109EB030C09F10109D5E7BAF1000FE5
:103A8C0009D06FF0150520460199FFF741FF284634
:103A9C0005B0BDE8F08F0123104ABFF35B8FA34044
:103AAC0052E8000F184342E800010029F8D1BFF397
:103ABC005B8F07490E98230101EB0412C8500F9B32
:103ACC005360C2E902670025DDE700BF01008000FA
:103ADC005006002000100140FDFF7F008C100020DC
:103AEC007FB51C4C1C4BC4F80833C4F848331B4B33
:103AFC0000254FF0FF304FF0FF31C4F80855C3E9F3
:103B0C0002014FF48033C4F80433154B02264FF4F2
:103B1C0000320121C4F804631120C3F880212A4625
:103B2C00FEF7D8FB1120FEF7B9FB0E4A0123A36068
:103B3C00236013600C4B0D4A0093CDE90155002313
:103B4C002846FFF735FF3046FEF74AFF284604B0FB
:103B5C0070BD00BF0010014003000F005006002094
:103B6C0000E100E090100020D5380000FFFF7F003E
:103B7C002DE9F7432F4CD4F8043399070BD5D4F81F
:103B8C00043143B12C4A0023C4F80431D4F8043175
:103B9C00136801331360D4F80433DA032AD5BFF366
:103BAC005B8F264B53E8002F22F0010143E80010F5
:103BBC000028F7D1BFF35B8FD30702D4D4F8403180
:103BCC00C3B10025C4F84051D4F84031FFF7CEFE04
:103BDC004FF02003EFF3118283F31288BFF36F8F42
:103BEC00174BD3E90267B042B94106D282F3118870
:103BFC00BFF36F8F03B0BDE8F0834FF0FF384FF089
:103C0C00FF39C3E90289D3E900101D604FF48033FA
:103C1C00C4F84833C4F84051D4F8403182F31188C9
:103C2C00BFF36F8F0029E5D0009032463B46284603
:103C3C008847DFE700100140941000208C10002012
:103C4C005006002030B5431C124C85B005D0844280
:103C5C00A8BF0446012CB8BF0124FFF787FE0E4B0A
:103C6C000C4DD3E90013401AB0F5000F10D22218F6
:103C7C00AA4228BF2A4652184FF00000074900916B
:103C8C00CDE9010043F10003FFF792FE05B030BD12
:103C9C002A46F0E7FFFF7F0060060020D5380000C1
:103CAC0008B5FFF763FE024B1B68C01A08BD00BFC6
:103CBC006006002008B5FDF701FB0448044A012109
:103CCC000DF0E6FE0020FEF723FA00BF5C9F01001A
:103CDC00E1B101004FF0704393F8E02F062A09D1AF
:103CEC00D3F8E83FC3F30313033B042B02D8024A77
:103CFC00D05C7047002070470DB20100024AD2F828
:103D0C000034002BFBD0704700E0014010B50EF0E2
:103D1C0058F940B14FF080538E4AD3F82433C3F393
:103D2C000423C2F84035FFF7D5FF10B18A4B8B4AFC
:103D3C005A670EF046F948B14FF080534FF080426D
:103D4C00D3F84432C3F34233C2F83C35FFF7C2FF19
:103D5C0030B1834AD2F8FC3023F08073C2F8FC30C7
:103D6C000EF02FF940B14FF080430022C3F80C2124
:103D7C00C3F81021C3F83825FFF7ACFF20B14FF082
:103D8C0080430322C3F8A025FFF7A4FF60B1754B55
:103D9C000522C3F810260122C3F888260022C3F896
:103DAC0018263F22C3F814264FF08053D3F8302145
:103DBC00511C09BF4FF07043D3F8343193F8E02F06
:103DCC00D3F8E83F08BFC3F30313062A4DD1033BD6
:103DDC00042B03D8644AD35C002B46D04FF080529E
:103DEC00624BD2F80414C3F82015D2F80814C3F8A7
:103DFC002415D2F80C14C3F82815D2F81014C3F8F3
:103E0C002C15D2F81414C3F83015D2F81814C3F8C2
:103E1C003415D2F81C14C3F84015D2F82014C3F88A
:103E2C004415D2F82414C3F84815D2F82814C3F852
:103E3C004C15D2F82C14C3F85015D2F83014C3F822
:103E4C005415D2F83414C3F86015D2F83814C3F8EA
:103E5C006415D2F83C14C3F86815D2F84014C3F8B2
:103E6C006C15D2F84424C3F870250EF0AAF848B1AA
:103E7C004FF080534FF08042D3F8583203F04F0389
:103E8C00C2F8E43E0EF09DF848B14FF08043D3F8F1
:103E9C000024D20744BF6FF00102C3F800244FF096
:103EAC008053D3F83021062A26D1D3F83431033B82
:103EBC00042B02D82E4AD35C63B12E4AD2F83C377D
:103ECC0043F48063C2F83C374FF08053D3F8303161
:103EDC00062B11D14FF08053D3F83431033B042B14
:103EEC0002D8254AD35C3BB14FF01023D3F80822FB
:103EFC004FF08043C3F858254FF01023D3F800221D
:103F0C00002A03DBD3F80432002B22DA1B490123ED
:103F1C004FF01020C1F804351524FFF7EFFEC0F860
:103F2C000042FFF7EBFEC0F80442FFF7E7FE002368
:103F3C00C1F80435FFF7E2FEBFF34F8F0849104B71
:103F4C00CA6802F4E0621343CB60BFF34F8F00BF2B
:103F5C00FDE710BD0030014000C007400DF0ADBAC8
:103F6C0000ED00E00050004008B2010000C000402D
:103F7C0003B2010000100040FEB1010000E001405E
:103F8C000400FA0530B50468CCB1BFF35B8FB4FA0A
:103F9C0084F3C3F11F03DBB201229A4024EA02022C
:103FAC0050E8005FA54204D140E8002CBCF1000FA2
:103FBC00F6D1BFF35B8FE6D102480B7030BD0248DF
:103FCC00FCE700BF0000AD0B0200AD0B10B50368A1
:103FDC00CB40DB0714D401238B400268BFF35B8F0B
:103FEC0043EA020150E8004F944204D140E8001C1F
:103FFC00BCF1000FF6D1BFF35B8FEED1014810BDC1
:10400C000148FCE70000AD0B0400AD0B014BC3F8FD
:10401C000405704700F00140F7B5044618B10128BB
:10402C0023D003B0F0BD4FF080430222C3F8082325
:10403C000122DA60C3F80401D3F8043106460123E7
:10404C008DF8073042F210754FF08047D4B1012C37
:10405C00E7D1D7F80C3403F48033AEBB83B3012023
:10406C000DF0BEFF013DF4D12AE04FF08043002259
:10407C00C3F808035860C3F80021D3F800310DF1E0
:10408C000706DCE7D7F8183403F480333EB9002B6D
:10409C00C7D001200DF0A4FF013DF3D1C1E7D7F843
:1040AC00182402F003023260002BBAD09DF80700EE
:1040BC00012803D10DF094FF013DC7D1012CB0D1E3
:1040CC00054B00225A71ACE7D7F80C2402F0010220
:1040DC003270002BEAD1F3E798100020044B1A79C8
:1040EC0022B9012218609A80024870470248704732
:1040FC00981000200000AD0B0C00AD0B08B5074B61
:10410C001B682BB10020FEF7D7F808B9FEF7C6F8EC
:10411C004FF080430022C3F8182508BD98100020EA
:10412C0038B5B0B1012855D14FF080420023C2F808
:10413C000031D2F80021304A03F18043012119608B
:10414C002E4B1B68002B50D04FF08043C3F8040358
:10415C0040E04FF08043D3F81814D3F81824C80368
:10416C002AD502F00303012B04D013B10020FFF772
:10417C0053FF00234FF08042C2F818350023C2F8D9
:10418C000431D2F804311E4AD2F8FC0040F080739E
:10419C00C2F8FC301B4B1C6844F0010119605D68CF
:1041AC005968491BB1F50A5FFAD31C60C2F8FC00D0
:1041BC000823154A0220BFE7D3F81424D107D8D519
:1041CC00D3F81C249207D1D40C4A12681AB10222DB
:1041DC00C3F8042338BDD3F80421002AFBD00022F5
:1041EC00C3F80421D3F80431F4E71368002BFCD096
:1041FC00002313601368EDE70001004098100020C5
:10420C0000ED00E0001000E00401004010B54FF09C
:10421C008043D3F800216AB10022C3F80021D3F8FF
:10422C0000210122C3F80823114B587910B95A7197
:10423C001B6898474FF08043D3F8042172B10022D9
:10424C00C3F80421D3F80421D3F81824D3F8182484
:10425C00920704D10122C3F818259A6010BD0222DE
:10426C00C3F80823024BBDE810401B680120184717
:10427C009810002070B500F108030C4C34F8133082
:10428C00DA0505460E4607D5C3F3432304EBC302F8
:10429C0054F8333052689847A3682BB1E268314622
:1042AC002846BDE87040184770BD00BF8C00002048
:1042BC0010B4C0B2114A083032F81030D9051BD5F1
:1042CC00C3F3432123F4F85322F8103002F10E0407
:1042DC00002034F8023F13F4807F03D0C3F3432350
:1042EC00994209D001302028F3D1002342F8313013
:1042FC00034810BCFFF76ABE10BC70478C0000204E
:10430C00E4000020F0B505460020044601260746CF
:10431C008C420BD1114BD3F87C2132B10022C3F863
:10432C007C21D3F87C3140F00040F0BDE3B29B001F
:10433C0003F580729B0806FA03F31D420BD002F1C1
:10434C00804202F5C042D2F800C0BCF1000F02D08E
:10435C001760126818430134DAE700BF00600040B0
:10436C00CBB20246083308460C4931F81330990693
:10437C0011D599070FD410685B0B01219940C0F837
:10438C000813126802EB8303D3F8102522F0030202
:10439C00C3F81025704700210DF083BE8C0000205F
:1043AC00F7B5CDB2174E0835074636F81530DB0792
:1043BC000C4624D5FFF7D4FF36F815309A0606D5EF
:1043CC005B0B3A6803F5A273002142F823102046D8
:1043DC00FFF76EFF002301A826F8153001940DF0AD
:1043EC000DFE019B00EB8300074BD0F80027134018
:1043FC0043F00203C0F80037044803B0F0BD044892
:10440C00FBE700BF8C000020F0F8FCFF0000AD0BB8
:10441C000400AD0B2DE9FF41136807460C46154609
:10442C00FBB1CEB2DFF83C81083638F8162002F02A
:10443C002202222A22D00022CDE900228DF80E2061
:10444C008DF80F200DF10E010DF10F0220460DF02D
:10445C00DFFD38F8163023F0020343F0010328F88F
:10446C0016306B684BB393F800C05A683D4EE3B2FC
:10447C00083336F81310880702D5B2B13A481FE05A
:10448C0021F02001C904C90C26F813106AB1BCF143
:10449C00030FF3D86A68386852681278BCF1000FC1
:1044AC0011D102F5A27240F822C036F8132022F086
:1044BC001C0242EA8C0226F81320AB6843BB2B4843
:1044CC0004B0BDE8F08100EB820041EA4231D0F843
:1044DC0010E52EF0030EC0F810E53F6807EB8207DD
:1044EC0041F02001D7F8100526F8131020F44730BE
:1044FC0020F44070C7F810052002D7F810E500F43E
:10450C00F85040EA0C4040EA0E00C7F81005CCE722
:10451C00D3E900672046FFF7CBFE002ECFD0114D1C
:10452C00D5E90023964203D19F4201D1002209E034
:10453C000F480DF10F01FFF725FD0C4B9842BFD131
:10454C009DF80F2045F83260E4B205EBC203083445
:10455C005F6035F8143043EA422343F4807325F846
:10456C001430ACE78C0000200400AD0B0000AD0B48
:10457C00E40000202DE9FF4107460C461E4612B30D
:10458C00CDB2DFF8D080083538F81530980701D453
:10459C00990621D413F01C0F02D05378012B1BD099
:1045AC0001238DF80F300023CDE900230DF10F010D
:1045BC00931C204601320DF02BFD38F8153043F0DA
:1045CC00030328F81530002E42D0E1B2214D0831FA
:1045DC0035F81120930703D41F4804B0BDE8F081CF
:1045EC0096F800E0D7F800C022F020020EF5A27079
:1045FC00D2040023D20C4CF8203025F8112096F868
:10460C0001C0BCF1000F23D03868B67800EB8E00E7
:10461C004FEA0C4CD0F8103523F4981323F4F853CC
:10462C00C0F81035230203F4F8530CF4403C360563
:10463C00D0F8107543EA0C0306F4801642EA4E32A9
:10464C00334342F020023B4325F81120C0F81035CB
:10465C000248C2E78C0000200400AD0B0000AD0B3B
:10466C00014BC3E9021270478C000020C9B208311B
:10467C00044B33F81130990643BF5B0B024813709F
:10468C00024870478C0000200000AD0B0400AD0BFD
:10469C0070B5184E96F8604005464CBB214640223A
:1046AC0006F1100015F02CFB2D68306D2146884268
:1046BC0012D10023C5F87C3145F30730D5F87C3195
:1046CC00FDF7ECFD4FF00043C5F804330A48012315
:1046DC0086F86030B36570BDCBB29B0003F5807279
:1046EC007C2B08BFAC5001F1010108BFAB58DEE7D1
:1046FC000248F0E78C0000200000AD0B0C00AD0B65
:10470C00034B93F86000003818BF0120704700BFBE
:10471C008C0000200148FFF759BC00BFE0000020CE
:10472C000148FFF72FBC00BFE000002073B5CBB2EF
:10473C000C4608331D4931F8133099061AD513F07D
:10474C00020617D15B0B9C00056804F580716E5056
:10475C00695801682144D1F8104544F00104C1F8AE
:10476C0010452AB10168012202FA03F3C1F804339F
:10477C0002B070BDC3F38203042B12D0052B12D0F0
:10478C0001A801940DF03AFC019AD0F81035D340F1
:10479C0003F00103991C204602B0BDE870400DF0F7
:1047AC0080BC0321F7E70221F5E700BF8C00002055
:1047BC002DE9F347544B554FD3F80403396DC0B270
:1047CC0040F00040FFF79EFD051E18DA0023F96D3E
:1047DC00009368460DF074FC4FF0010897F85C30BC
:1047EC00DA075AD4396D4FF00040FFF78BFDF96DA5
:1047FC0068460DF065FC0028F0D125F00045012439
:10480C00002D69D102B0BDE8F08794FAA4F4B4FA93
:10481C0084F4E00804F1080304F0070237F813905D
:10482C001DF80030019408FA02F223EA02030DF895
:10483C00003001A80DF0E2FB019B03F5E0734FEA99
:10484C00990150F82360C9F3820A4B07D146C6F38D
:10485C00014626D520465146FFF70CFD01A80194D0
:10486C000DF0CCFB019B03F5E073F6B250F823304E
:10487C00C3F301439E4207D1002120460DF011FCE9
:10488C00314620460DF00DFC01A801940DF0B6FB4D
:10489C00019B08FA03F3C0F82035009C002CB4D11E
:1048AC00A0E7022E0CD1032120460DF0FAFB0AF0F2
:1048BC000503012BE8D149462046FFF7DBFCE3E773
:1048CC00022120460DF0EDFBBAF1030FF3D0032EBD
:1048DC00DAD1BAF1020FEDE795FAA5F3B3FA83F347
:1048EC0004FA03F29B0003F1804303F5C04325EA6D
:1048FC000205D3F81005D3F81015C0F30420C1F34A
:10490C000141FFF7B7FC7BE7006000408C00002002
:10491C0001460148FFF736BBF0000020CB7B10B4FA
:10492C0033B9D1E900420368C3F80845C3F80C2534
:10493C0003688A68C3F8242503793C225343054A4B
:10494C00D3582BB1006810BC40F30730FDF7A6BC60
:10495C0010BC7047A010002013B53B4B01930023F3
:10496C00C0F80431D0F80421C0F82431D0F8242147
:10497C00C0F81C31D0F81C21C0F80831D0F808213F
:10498C00C0F800324B6381F82F300123036291F899
:10499C002D209A4218BF83604B6B8A6A934204465F
:1049AC000ED24A6AD35CC0F81C350B6803B340F2D4
:1049BC0086238B608B682548C4F8043302B010BD85
:1049CC0091F82C3013B10123C361EEE70B6A13F09D
:1049DC00400F4FF0010316BFC361436181F82D30C6
:1049EC00E3E720460DF07EFB28B1019B013B0193D0
:1049FC00019B002BF5DC91F82F305BB91348019B20
:104A0C00002BDBDC0023C4F8003505231048C4F868
:104A1C000035D3E7D4F8C434C4F8C4348BB10D4A90
:104A2C000B4813F0010F18BF104613F0020F02F1E0
:104A3C00010218BF104613F0040F074B18BF18469D
:104A4C00DDE70348DBE700BFA08601000000AD0BEB
:104A5C000100AD0B0000AE0B0200AE0B13B5334BD7
:104A6C0001930023C0F80431D0F80421C0F824319C
:104A7C00D0F82421C0F81C31D0F81C21C0F8083122
:104A8C00D0F808214B6381F82F308B6A012B044638
:104A9C0017D10B6A5B0614D40223C4F8003201232D
:104AAC00236291F82D20022A18BF23600B688BB16A
:104ABC0040F286238B608B681D48C4F8043302B027
:104ACC0010BD0123E9E720460DF00CFB28B1019B3A
:104ADC00013B0193019B002BF5DC91F82F305BB966
:104AEC001348019B002BEADC0023C4F80035052396
:104AFC001048C4F80035E2E7D4F8C434C4F8C43420
:104B0C008BB10D4A0B4813F0010F18BF104613F070
:104B1C00020F02F1010218BF104613F0040F074BED
:104B2C0018BF1846DDE70348DBE700BFA08601008D
:104B3C000000AD0B0100AD0B0000AE0B0200AE0B84
:104B4C00F8B506792A4D4FF03C0C0CFB06FC05EB36
:104B5C000C0494F82E70002F3DD1A76045F80C2062
:104B6C00636084F82D7084F8317084F8307051B320
:104B7C004B7B84F838308F7B84F839700FBB0A6814
:104B8C0002F01F03520928D19B0003F1A043DFF868
:104B9C0064C0D3F8004740F20C6704EA0C043C43B1
:104BAC00C3F800474C6804F01F0364091AD19B003A
:104BBC0003F1A043D3F8002702EA0C023A43C3F8EE
:104BCC000027FFF7ABFE3C2303FB06550A480123E5
:104BDC0085F82E30F8BD0948FCE703F5E07357F86B
:104BEC002330FFDE03F5E07352F82330F9E700BF02
:104BFC00A0100020F0F8FCFF0000AD0B0C00AD0B7A
:104C0C00036802790521C3F80015044B3C2101FB14
:104C1C000233022283F82E20704700BFA010002020
:104C2C0003680B4A0179C3F80823D3F8002222F059
:104C3C000302C3F800220022C3F80025054B3C20D8
:104C4C0000FB0133012183F82E1083F830207047CC
:104C5C0086420400A01000202DE9F047314F047962
:104C6C00D0F800903C2303FB04730D4693F82D30D1
:104C7C00012B944604D10B78012B06D12A4811E064
:104C8C00022B02D10B78012BF8D13C26274BC9F80B
:104C9C00083306FB047696F830302BB1B368244801
:104CAC00C9F80433BDE8F0878CF00403C3F3800328
:104CBC0086F83030C6F820C0A846B8E80F0006F1D8
:104CCC000C0EAEE80F00D8F80030CEF800306B6850
:104CDC00B362EB6873626B78C9F888352B78C4EBD8
:104CEC00041A012B07EB8A0A17D09BB9CCF3401C92
:104CFC003C2303FB04735146484683F82CC0FFF752
:104D0C002BFE3C235C433A193B59002BCAD182F849
:104D1C003030C7E74FF0010CEAE751464846FFF741
:104D2C009DFEEEE7A01000200500AD0B86420400AE
:104D3C000B00AD0BF0B5324C324887B021460DF06C
:104D4C00D1F9002859D194F82F70FFB9227B931E0A
:104D5C00012B1BD8606AA369984217D1E36963627F
:104D6C006369A362236A274884F82D70C3F3401348
:104D7C00032A84F82C3004D107B0BDE8F040FFF7CB
:104D8C00EBBD07B0BDE8F040FFF768BE1E4E0FCE7E
:104D9C0001AD0FC533682B6047B31A4AD2F8C4343F
:104DAC00C2F8C43413F0020106D001238DF8003090
:104DBC00002384F8303007E013F0040209D00223FA
:104DCC008DF8003084F83010D4E9003168469847EB
:104DDC0013E013F0010305D003238DF8003084F8A1
:104DEC003020F1E704228DF80020E2E7236A8DF8E9
:104DFC0000705B0784F83070E6D507B0F0BD00BFDB
:104E0C00A010002000300040AC100020F7B5064682
:104E1C000DF00AFA08460DF007FA01A801960DF0FC
:104E2C00F9F9019B2E4D00EB83000C46D0F80037AE
:104E3C00019440F20D612B400B43C0F8003701A8E0
:104E4C000DF0E8F9019B00EB83000127D0F8003747
:104E5C002B400B43C0F8003704200DF0C1F8092596
:104E6C0001A801940DF0D6F9019AD0F81035D34071
:104E7C00DB0715D401A801960DF0CCF9019B07FABC
:104E8C0003F3C0F80C3504200DF0AAF830460DF0F1
:104E9C00CBF9013D04200DF0A3F815F0FF05DFD18F
:104EAC0001A801940DF0B6F9019A01239340C0F8C2
:104EBC000C3504200DF094F820460DF0B5F90420C3
:104ECC000DF08EF801A801940DF0A4F9019AD0F818
:104EDC0010350448D34003F00103C01A03B0F0BDF1
:104EEC00F0F8FCFF0100AD0B13B5044670B908F0E7
:104EFC004FF9044650B9064B00930649064B36222F
:104F0C00022008F073FD204602B010BD2469FAE7B8
:104F1C0046B2010012B2010090B3010013B5044671
:104F2C0070B908F035F9044650B9064B00930649A0
:104F3C00064B4722022008F059FD204602B010BD56
:104F4C006469FAE775B2010012B201007BB301008B
:104F5C0013B5044670B908F01BF9044650B9064B5A
:104F6C0000930649064B6022022008F03FFD2046C4
:104F7C0002B010BDE469FAE7A6B2010012B201005A
:104F8C0065B3010013B5044670B908F001F9044685
:104F9C0050B9064B00930649064B7122022008F0CB
:104FAC0025FD204602B010BD246AFAE7DFB20100ED
:104FBC0012B201004FB3010013B5044678B908F0E2
:104FCC00E7F8044658B9094B00930220084B0949ED
:104FDC0040F2B91208F00AFD204602B010BDD4F818
:104FEC0054010028D4BF00200120F6E719B30100BA
:104FFC002FB3010012B2010070B5044600F09CF909
:10500C00B8B96368002198680DF021F90E46054681
:10501C00E5B9214628460DF027F9024698B1636898
:10502C00294698680DF013F9002844D1012A4FD075
:10503C000AE0006883680BB1217A9847237E9807B1
:10504C005FD4D907DDD50022104670BD2B683BB963
:10505C0063680136986831460DF0F9F80546D7E7D4
:10506C0095F908202B7A002AF2DA802B04D0227AC8
:10507C0023F080039342EBD16B68E3602B682046EE
:10508C009847237E9A073CD4DB07E1D5DBE790F900
:10509C000820037A002A13DB13B1227A9A420FD12B
:1050AC004368E360036820469847237E9E0728D414
:1050BC00D80705D5C7E7012AC6D10368002BE6D16E
:1050CC0063680135986829460DF0C1F80028F4D1C1
:1050DC0060684368ABB1237E590712D4237A233B13
:1050EC00012B10D94FF480410DF098FB48B1237A75
:1050FC00113BDBB21B2B06D8084A22FA03F3DA0762
:10510C0001D50122A0E763685B6863602046FFF766
:10511C0073FF431E5A425A4196E700BFFF270F0BFD
:10512C0010B588B0B8B10023CDE904329DF81C301D
:10513C000A4C8DF80C1023F00703CDE901008DF813
:10514C001C3001A8236806932060FFF755FF069BCF
:10515C00236008B010BD0120FBE700BFDC1000206D
:10516C00074B1B6803B970475A68824202D01A6811
:10517C00824203D11A7E42F001021A765B69F1E792
:10518C00DC10002007B5037A013B0F2B03D8006914
:10519C0003B05DF804FB054B00930220044B05495A
:1051AC004FF4907208F022FC0020F1E729B40100C2
:1051BC007FB40100A4B3010007B5037A143B052B9F
:1051CC0003D8006903B05DF804FB054B0093022083
:1051DC00044B05494FF49E7208F008FC0020F1E7DF
:1051EC0029B4010069B40100A4B3010007B5027A27
:1051FC00132A0B4609D10269B2F900109942B8BFC3
:10520C001946118003B05DF804FB054B009305496A
:10521C00054B40F26B12022008F0E8FBF2E700BFEE
:10522C0029B40100A4B301004EB4010001482021AF
:10523C0013F042BFE4120020014B1868704700BF06
:10524C00E010002010B50446064A07490DF052F84C
:10525C0063692BB120B920460121BDE810401847E5
:10526C0010BD00BFA19101009591010010B5074937
:10527C00074A04460DF03EF86369014623B118B99C
:10528C002046BDE81040184710BD00BF9B9101009F
:10529C00A99101007FB50C460546002840D0084670
:1052AC000DF0AEF8284613F06FFF014628BB2046E0
:1052BC000DF0C2FA40B1A3689B6853B1DB681B6860
:1052CC00A34206D10DF088F8A36813B9204600F06C
:1052DC00D5FAA36828469D6013F011FF064698B9CD
:1052EC00104B0293104B0193104B00931049114B30
:1052FC008F22032008F07AFBFEE70B68A3420FD045
:10530C00284613F047FFD0E70460284613F03CFF13
:10531C00864205D1284604B0BDE870400DF05CB85B
:10532C0004B070BDD9B30100D5B4010009B40100BB
:10533C0092B40100E2B40100014B1868704700BF41
:10534C00E41000202DE9F047A2B005460CF0A6FFB2
:10535C00064628460CF09EFF122E04464BD12846DA
:10536C000CF0A0FF0378022B054608D01722002171
:10537C0020460FF037F8064620B102232B7022B0DE
:10538C00BDE8F08701460B2220460FF02BF868226F
:10539C000FFA80F8314620460FF024F869220746B0
:1053AC00314620460FF01EF8B4F91620B4F918E077
:1053BC00B4F91AC0A18ABBB280B2C91A121A7344CA
:1053CC006044ADF84010ADF84220ADF84430ADF873
:1053DC0046006868424610A913F03BFD08B901234A
:1053EC00CCE72122314620460EF0FCFFC0B2FC284F
:1053FC00F5D92E70C3E7152E40F086802846FFF7AE
:10540C00DBFE04AF0646384603F0FAFD34220021D9
:10541C0020460EF0E7FF28B19DF82D3043F0010334
:10542C008DF82D303A46002120460DF027FC6822DD
:10543C00002120460EF0D6FF6922054600212046A9
:10544C000EF0D0FFB4F91AC0B4F91620A18AB4F941
:10545C0018E0ABB280B2121AC91A60447344ADF8AA
:10546C000810ADF80E00314610A80025ADF80C3030
:10547C00ADF80A200DF108080DF0FEFDC14B11939B
:10548C0010AA1A21204612951497CDF84C801D9520
:10549C00FFF746FE1722294620460EF0A3FF68B3FD
:1054AC00BDF9103053B3424639463046DDF81CA0E6
:1054BC00079510F007F9182008F058FB04F11401B7
:1054CC008146BDF910202B4603F068FB04F5907162
:1054DC00484603F0D5F9BAF1000F05D110AA1B21EB
:1054EC002046FFF71DFE4AE78DF813508DF82C501F
:1054FC008DF834508DF83E50CDF81CA042463946FC
:10550C00304610F0DFF8E9E7182E7FF438AF284664
:10551C00FFF752FE02AA0646694620460EF0FFFA35
:10552C00684613F069FB002800F0BC8004AD2846E7
:10553C0003F066FD21224FF4803120460EF052FF1D
:10554C00C0B202288DF8130007D920224FF4803105
:10555C0020460EF047FF8DF8140031224FF48031B5
:10556C0020460EF03FFFC0B202288DF82C0013D954
:10557C0032224FF4803120460EF034FF00B2002866
:10558C00ADF82A0040F3F58030224FF480312046EC
:10559C000EF028FF8DF8280045224FF4803120466C
:1055AC000EF020FFC0B202288DF83E001BD940221D
:1055BC004FF4803120460EF015FF00B20028ADF8F4
:1055CC00360040F3DA8043224FF4803120460EF04F
:1055DC0009FF4422ADF83C004FF4803120460EF018
:1055EC0001FF8DF8350060224FF4803120460EF01B
:1055FC00F9FEC0B2FC280BD89DF8133043431B12A4
:10560C008DF8133043431B0A8DF82C308DF83E3047
:10561C009DF82C209DF8133013439DF83E20134326
:10562C0046D00B224FF4803120460EF0DBFE314683
:10563C00ADF8100010A80DF01FFD524B1193022372
:10564C00129368464FF4803314951D9313F0D4FADB
:10565C0080B110AA1A212046CDF84CD0FFF760FD7E
:10566C006A462946304610F02DF810AA1B21204618
:10567C00FFF756FD02A813F0BFFAC8B102AB10AA8F
:10568C001A2120461393FFF74BFD02AB1A4629460D
:10569C003046139310F016F810AA1B212046FFF782
:1056AC003FFD05E002A813F0A7FA00287FF43EAFF7
:1056BC001722002120460EF095FE50B104F5907093
:1056CC0003F036F9054620B10FF0BCFF284608F070
:1056DC00CDFA3422002120460EF084FE00283FF43F
:1056EC004EAE0DF110080025404603F089FC4246F1
:1056FC00294620468DF813508DF825508DF83450DE
:10570C008DF83E500DF0BAFA6822294620460EF06C
:10571C0069FE69220746294620460EF063FEB4F95D
:10572C001AC0B4F91620A18AB4F918E0BBB280B241
:10573C00121AC91A60447344ADF80810ADF80E0083
:10574C00314610A8ADF80C30ADF80A200DF094FCE1
:10575C000C4B11930123129310AA02AB1A21204671
:10576C00CDF8508013931D95FFF7DAFC02AA414641
:10577C00C6E600238DF82C300EE700238DF83E3062
:10578C0031E700BF34A2010013B5164C23784BB19E
:10579C00154B00931549164B6222022008F026F98E
:1057AC0002B010BD13F042FD08F09EFC07F08EFF16
:1057BC0007F004FEFFF73AFD0FF0CCF901F0B0F959
:1057CC000C484FF4AE7113F077FC0B485C2113F0CE
:1057DC0073FC0FF033F904F09DF813F04CF901232E
:1057EC002370DDE76529002026B50100F3B4010024
:1057FC006FB50100141300200813002010B50146EA
:10580C00034800F071F804460DF0DAF9204610BD9B
:10581C0034A2010010B508460C46FFF7A1FC00208D
:10582C0001F084F9144A002120460EF09EFE01205E
:10583C0001F07CF90021204607F0F0FD20460CF029
:10584C00FBFF10B120460CF0DBFDA3689BB1186880
:10585C0020B108F05BF9A36800221A60A368D8682D
:10586C0020B108F053F9A3680022DA60A06808F0B0
:10587C004DF90023A36010BDFFFF0F001FB5836817
:10588C0004461BBB124A13681C200133136008F03A
:10589C0035F9A06068B90F4B02930F4B01930F4B76
:1058AC0000930F490F4B40F25B12032008F09EF857
:1058BC00FEE71C210CF00EFEA268537E43F00F0392
:1058CC005376A268137E43F00303137604B010BD25
:1058DC00E8100020D9B301003EB5010009B4010065
:1058EC00F3B4010055B50100F7B50D463B49074629
:1058FC0002463AB19669314202D0C6F30F1602E065
:10590C001268F6E71646304608F0F8F80446B0B1CF
:10591C003246002114F0F4F9C4E90075002D36D19B
:10592C0007F036FC054670B92D4B009302202D4B29
:10593C002D493A2208F05AF8204608F0E7F80024DE
:10594C00204603B0F0BDC06898B9042008F0D6F822
:10595C000123E86004606B6200256561284607F04E
:10596C001DFC01382083284607F028FC0138608391
:10597C00E6E7696A01316962890008F0D1F86B6A5F
:10598C00E86003F18043013B40F82340E4E7AB6857
:10599C0013B92846FFF772FFAE68336853B9042079
:1059AC0008F0ACF83060AB681B681C60AB68012277
:1059BC005A60C5E7736801337360AE68716830680C
:1059CC00890008F0ADF83060AA685368126803F1DA
:1059DC008043013B42F82340B2E700BFF0FF0F00C9
:1059EC00B0B50100EAB5010077B5010038B50B4937
:1059FC0005460CF019FF044608B1002038BD2846B6
:105A0C000EF0B1FF0028F8D00A2221460EF0EAFC75
:105A1C0080B2003818BF0120F0E700BF010006007B
:105A2C00F0B5144F144D3B68013385B006460C4657
:105A3C0028683B60D90008F073F80346286068B901
:105A4C000E4B02930E4B01930E4B00930E490F4BD2
:105A5C0040F24712032007F0C9FFFEE7386800F157
:105A6C000052013A43F832602B6803EBC2035C60CE
:105A7C0005B0F0BDEC100020C8120020D9B3010015
:105A8C0039B6010009B4010002B6010051B601009B
:105A9C0007B5054B019301AA2C21FFF741FBBDF97A
:105AAC00040003B05DF804FB000001E02DE9F04FA9
:105ABC0087B08046FFF79AFF0546002840F01F810B
:105ACC0040460EF050FF29460090072240460EF04B
