:020000040800F2
:1000000088090020CD0100083D040008A103000874
:10001000390400087D020008C70E00080000000037
:100020000000000000000000000000001D0C00089F
:100030008102000800000000F90B00087D0D000897
:10004000E7010008E7010008E7010008E7010008F0
:10005000E7010008E7010008E7010008E7010008E0
:10006000E7010008E7010008E7010008E7010008D0
:10007000E7010008E7010008E7010008E7010008C0
:10008000E7010008E7010008E7010008E7010008B0
:10009000E7010008E7010008E7010008E7010008A0
:1000A000E7010008E7010008E7010008E701000890
:1000B000E7010008E7010008E7010008E701000880
:1000C000E7010008E7010008E7010008E701000870
:1000D000E7010008E10D0008E7010008E70100085A
:1000E000E7010008E7010008E7010008E701000850
:1000F000E7010008E7010008E7010008E701000840
:10010000E7010008E7010008E7010008E70100082F
:10011000E7010008E7010008E7010008E70100081F
:10012000E7010008E7010008E7010008E70100080F
:1001300000F002F800F03AF80AA090E8000C8244BF
:100140008344AAF10107DA4501D100F02FF8AFF29C
:10015000090EBAE80F0013F0010F18BFFB1A43F0A5
:1001600001031847AC2D0000CC2D0000103A24BF2D
:1001700078C878C1FAD8520724BF30C830C144BF0C
:1001800004680C607047000000230024002500264E
:10019000103A28BF78C1FBD8520728BF30C148BFEA
:1001A0000B6070471FB51FBD10B510BD00F033F8D0
:1001B0001146FFF7F7FF00F0D3FE00F051F803B44B
:1001C000FFF7F2FF03BC00F080FE00000948804703
:1001D00009480047FEE7FEE7FEE7FEE7FEE7FEE729
:1001E000FEE7FEE7FEE7FEE704480549054A064B41
:1001F00070470000810D00083101000888030020CD
:100200008809002088050020880500207047704775
:10021000704770477047754600F02CF8AE460500F1
:100220006946534620F00700854618B020B5FFF711
:10023000DBFFBDE820404FF000064FF000074FF015
:1002400000084FF0000B21F00701AC46ACE8C009F4
:10025000ACE8C009ACE8C009ACE8C0098D467047FD
:1002600010B50446AFF300802046BDE81040FFF70C
:10027000A6BF0000004870472803002000BFFEE72B
:1002800070472DE9F041024600250026002000239A
:100290000024002791F803C00CF00F0591F803C06B
:1002A0000CF0100CBCF1000F03D091F802C04CEA26
:1002B000050591F800C0BCF1000F31D01468002092
:1002C0002BE04FF0010C0CFA00F3B1F800C00CEA7F
:1002D00003069E4220D183004FF00F0C0CFA03F767
:1002E000BC4305FA03FC4CEA040491F803C0BCF1DA
:1002F000280F06D14FF0010C0CFA00FCC2F814C014
:100300000AE091F803C0BCF1480F05D14FF0010C91
:100310000CFA00FCC2F810C0401C0828D1D31460AD
:10032000B1F800C0BCF1FF0F34DD546800202EE0AE
:1003300000F1080C4FF0010808FA0CF3B1F800C006
:100340000CEA03069E4221D183004FF00F0C0CFAF9
:1003500003F7BC4305FA03FC4CEA040491F803C01C
:10036000BCF1280F05D100F1080C08FA0CF8C2F80E
:10037000148091F803C0BCF1480F07D100F1080CBC
:100380004FF0010808FA0CF8C2F81080401C082849
:10039000CED35460BDE8F081416170470161704780
:1003A00000BFFEE710B580210A48FFF7F7FF2021C4
:1003B0000848FFF7F3FF00F037F880210548FFF702
:1003C000EBFF00F031F820210248FFF7E5FF00F0D5
:1003D0002BF810BD0008014010B580210648FFF73A
:1003E000DBFF20210448FFF7D9FF00F01DF8802132
:1003F0000148FFF7D3FF10BD0008014010B5802170
:100400000848FFF7CBFF00F00FF820210548FFF761
:10041000C5FF00F009F820210248FFF7BDFF00F0FA
:1004200003F810BD00080140012000BF011EA0F12B
:100430000102D0B2FAD1704700BFFEE7704710B595
:100440004FF4A06000F002F810BD00000249014323
:10045000024A1160704700000000FA050CED00E050
:1004600070B500240CE0002506E00020074901EBF0
:1004700085010855681CC5B2402DF6DB601CC4B26E
:10048000042CF0DB00F01CF970BD000020010020FE
:1004900010B504461CB90021A62000F091FB012CE8
:1004A00003D10021A72000F08BFB10BD10B504463E
:1004B0003CB90021C82000F083FB0021A12000F0FE
:1004C0007FFB012C07D10021C02000F079FB002127
:1004D000A02000F075FB10BDF0B514460B46CF17F9
:1004E00001EB5777C7F3C702CF1701EB5777FF1020
:1004F000A1EBC707FEB20123B340DDB24CB1134BF1
:1005000003EB80039B5C2B43104F07EB8007BB542E
:100510001AE00E4B03EB80039B5CDB430B4F07EBB6
:100520008007BB54094B03EB80039B5C2B43074FB5
:1005300007EB8007BB54054B03EB80039B5CDB435D
:10054000024F07EB8007BB54F0BD000020010020E4
:1005500008B501213C2000F051FBA020ADF80000BF
:1005600014208DF8030003208DF8020069464B48E3
:10057000FFF787FEA0214948FFF710FF4FF4805096
:10058000ADF8000010208DF8030069464448FFF7DD
:1005900078FE4FF480514248FFF700FF0420ADF889
:1005A000000010208DF8030069463E48FFF769FE01
:1005B00004213C48FFF7F2FE04213A48FFF7ECFE25
:1005C000C82000F0A7FC04213648FFF7E7FE002111
:1005D000AE2000F0F5FA0021084600F0F1FA002103
:1005E000122000F0EDFA0021084600F0E9FA00219F
:1005F000B02000F0E5FA0021812000F0E1FA0021AE
:100600004F2000F0DDFA0021A12000F0D9FA0021EE
:10061000A62000F0D5FA0021A82000F0D1FA002190
:100620001F2000F0CDFA0021C82000F0C9FA0021F7
:10063000D32000F0C5FA0021084600F0C1FA0021DD
:10064000D52000F0BDFA0021802000F0B9FA002189
:10065000D92000F0B5FA00211F2000F0B1FA0021E6
:10066000DA2000F0ADFA0021122000F0A9FA0021F2
:10067000DB2000F0A5FA0021402000F0A1FA0021C3
:100680008D2000F09DFA0021142000F099FAFFF768
:10069000E7FE0021AF2000F093FA08BD00080140FA
:1006A000001001400014014010B50246012000E096
:1006B00050430B1EA1F10104E1B2F9D110BD0000BD
:1006C00070B500242BE004F1B001C8B2002100F0A5
:1006D00077FA0021084600F073FA0021122000F09A
:1006E0006FFAFFF75FFE782000F09AFAFFF786FEB8
:1006F000402000F095FAFFF781FE002509E0094946
:1007000001EB8501085D00F08BFAFFF777FE681CAE
:10071000C5B2402DF3DBFFF75FFE601CC4B2042CB2
:10072000D1DB70BD2001002008B580468946924685
:10073000002600274BE04FB9102332460821402005
:10074000CDF800A000F0E4F8701CC6B2464522D1F6
:100750004FF0000B1AE0012410E000250AE01C48CD
:1007600000EB8400415D601E194A02EB8000415598
:10077000681CC5B2042DF2DB601CC4B2502CECDB4B
:10078000FFF79EFF0BF1010000F0FF0B4FEA09108D
:100790005845E0DC0026781CC7B2102F00D1002796
:1007A000012410E000250AE0094800EB8400415DC7
:1007B000601E074A02EB80004155681CC5B2042D3B
:1007C000F2DB601CC4B2502CECDBFFF779FFB2E720
:1007D000200100202DE9FE4F0746884692461C4620
:1007E0000197CDF80080082C02D14FF006091FE0D8
:1007F0002046E31704EB5373DB1021464FEAE47CF9
:1008000004EB5C7C4FEAEC0CA4EBCC0CBCF1000FCD
:1008100002D04FF0010C01E04FF0000C634422467F
:1008200004EBD27C4FEA6C0C03FB0CF303F0FF09E2
:10083000AAF12000C6B200255EE0082C07D106EB25
:1008400046002F4901EB400010F805B01DE00C2CCC
:1008500007D106EB46002B4901EB800010F805B0EC
:1008600013E0102C05D1284800EB061010F805B055
:100870000BE0182C07D106EBC600244901EB8000E1
:1008800010F805B001E0BDE8FE8F002002901CE0EA
:100890000BF0010028B1414638460C9AFFF71CFEC8
:1008A00009E00C9808B9012000E00020024641460A
:1008B0003846FFF711FE4FEA6B0B08F1010000F01C
:1008C000FF080298401CC0B2029002980828DFDBA3
:1008D000781CC7B2082C0BD004EBD4714A100199D4
:1008E000791A8A4204D1019F00980830C0B2009062
:1008F000DDF80080681CC5B24D459EDB00BFC2E735
:1009000000110008281300089C1700088C1D00081F
:100910002DE9FC4F0746884616461C46BB46CDF8D7
:1009200004802046E21704EB5272D2102146E317EE
:1009300004EB5373DB10A4EBC3030BB1012300E002
:1009400000231A44624392B20092002555E0102C15
:1009500005D12C4800EB461010F805A01BE0182C20
:1009600007D106EBC600284901EBC00010F805A02E
:1009700011E0202C05D1254800EBC61010F805A089
:1009800009E0402C05D1224800EB462010F805A0D4
:1009900001E0BDE8FC8F4FF000091CE00AF0010007
:1009A00028B1414638460B9AFFF796FD09E00B98AF
:1009B00008B9012000E00020024641463846FFF712
:1009C0008BFD4FEA6A0A08F1010000F0FF0809F107
:1009D000010000F0FF09B9F1080FDFDB781CC7B296
:1009E000A7EB0B00A04204D15F4601980830C0B2CB
:1009F0000190DDF80480681C85B200988542A6DB72
:100A000000BFC6E7E82A0008482C0008902C000820
:100A1000102D00082DE9FF4F82B0064691461F4673
:100A2000DDE90F4A4FF0000B082C01D14FF0020B0B
:100A3000002530E0781B401EC1B20A20FFF734FECB
:100A4000B9FBF0F00A21B0FBF1F201FB1208B8F19A
:100A5000000F0ED104EBD4710BEB610101FB0561BA
:100A6000C8B223463022CDE900A40399FFF7B2FEB5
:100A70000FE004EBD4710BEB610101FB0561C8B21F
:100A800008F13001CAB22346CDE900A40399FFF76B
:100A9000A1FE681CC5B2BD42CCDB06B0BDE8F08F3C
:100AA0002DE9FF4F05460E4617461C46DDF83890E7
:100AB0004FF0000A0095B3462046E21704EB52724D
:100AC000D2102146E31704EB5373DB10A4EBC303EE
:100AD0000BB1012300E000231A44D4B24FF0000808
:100AE00045E0002003903BE00D9810F80A000290CA
:100AF0000AF101001FFA80FA002001901DE002981F
:100B000000F0010028B14A4631462846FFF7E4FCD0
:100B10000AE0B9F1000F01D1012000E000200246F7
:100B200031462846FFF7D8FC029840100290701C0E
:100B3000C6B20198401CC0B2019001980828DEDBC3
:100B4000681CC5B20098281AB84204D1009D0BF168
:100B5000080000F0FF0B5E460398401CC0B20390F3
:100B60000398B842C0DB08F1010000F0FF08A0457F
:100B7000B7DBBDE8FF8F2DE9F84106460F46144666
:100B80001D46DDF81C8013E0CDF8008022782B464E
:100B900039463046FFF71EFE082D02D1B01DC6B201
:100BA00005E0284605EBD07106EB6101CEB2641C6E
:100BB0002078202802DB20787E28E5DDBDE8F8815A
:100BC00070B505460C46FFF7EDFB782000F028F8DD
:100BD000FFF714FC1CB1402000F022F802E00020D6
:100BE00000F01EF8FFF70AFC284600F019F8FFF79E
:100BF00005FCFFF7F1FB70BD7047000029B1064A04
:100C000092690243044B9A6104E0034A9269824369
:100C1000014B9A61704700000010024070470000CD
:100C200070B5044600251BE004F0800020B180214F
:100C30000D48FFF7B3FB03E080210B48FFF7ACFB47
:100C4000FFF7F2FB20210848FFF7A8FBFFF7ECFBBA
:100C500020210548FFF7A0FB6006040E681CC5B202
:100C6000082DE1DB70BD00000008014010B500F068
:100C700001F810BD0CB500200190009033480068C9
:100C800040F480303149086000BF3048006800F40B
:100C9000003000900198401C0190009818B901980C
:100CA000B0F5A06FF1D12948006800F4003010B110
:100CB0000120009001E0002000900098012843D11D
:100CC0002348006840F01000214908600846006889
:100CD00020F0030008600846006840F00200086049
:100CE0001A48406819494860084640684860084604
:100CF000406840F4806048600846406820F47C10FA
:100D000048600846406840F4E810486008460068BB
:100D100040F08070086000BF0C48006800F0007070
:100D20000028F9D00948406820F0030007494860CE
:100D30000846406840F00200486000BF0348406831
:100D400000F00C000828F9D10CBD00000010024092
:100D500000200240042808D14FF0E021096941F049
:100D600004014FF0E022116107E04FF0E021096932
:100D700021F004014FF0E02211617047704700003C
:100D800010B51348006840F001001149086008469A
:100D90004068104908400E494860084600680E49FE
:100DA00008400B4908600846006820F4802008606D
:100DB0000846406820F4FE0048604FF41F00886039
:100DC000FFF754FF4FF000600449086010BD0000B9
:100DD000001002400000FFF8FFFFF6FE08ED00E003
:100DE00010B540F225511D4800F03EF810B31B48E5
:100DF00000F064F8C4B21A48008800F40040C8B992
:100E00001748008800F4804060B10A2C03D000200D
:100E10001349088020E01248008840F4004010493F
:100E2000088019E00D2C06D10D48008840F4804060
:100E30000B49088010E00A480088C0F30D000949FA
:100E40000C5407480088401C054908800846008863
:100E5000C72801DD0020088010BD000000380140D7
:100E6000080000206002002070B502460024002324
:100E70000025002040F66A16B14200D100BFC1F340
:100E8000421501F01F03012606FA03F3012D02D1DA
:100E90009689334006E0022D02D1168A334001E0E4
:100EA000968A33400C12012606FA04F41688344060
:100EB00013B10CB1012000E0002070BD014688880C
:100EC000C0F30800704700BFFEE700BF7047000096
:100ED00010B56FF00400FFF73DFF0A4800680A49AB
:100EE000B0FBF1F0094908700846007800EB4001BA
:100EF000C1EBC0104FF6FF7101EAC0000449088041
:100F000010BD00000C00002000127A00000000203C
:100F1000020000200146114A12884A434FF0E023A4
:100F20005A6100229A611A46126942F001021A615E
:100F300000BF4FF0E022106900F001021AB100F486
:100F40008032002AF5D04FF0E022126922F001022F
:100F50004FF0E0231A6100229A61704702000020DE
:100F60001CB52024FFF7B4FFFFF769FAFFF7F0FA8A
:100F70000020FFF78DFA0020FFF798FAFFF7A0FB9B
:100F8000E1015448FFF708FAA2E00120524920236A
:100F90004022CDE9001000210846FFF781FDFFF750
:100FA0008FFB4FF4FA70FFF7B5FFFFF759FA0120F6
:100FB00010230022114600900820FFF7A9FC012011
:100FC00010230246002100901820FFF7A1FC012009
:100FD00010230222002100902820FFF799FC012015
:100FE00010233EA2194600900420FFF7C4FDFFF72E
:100FF00067FB4FF4FA70FFF78DFFFFF731FA01201E
:10100000102338A2002100900846FFF7B4FD01200C
:10101000102336A2194600900020FFF7ACFD0120F6
:1010200010232246002100903020FFF7D3FB601CE4
:10103000C4B27E2C00DD202401201021032322468F
:10104000CDE900102820FFF7E5FCFFF739FB4FF44E
:10105000FA70FFF75FFFFFF703FA01201823002261
:10106000042100901046FFF753FC012020230022AA
:10107000114600901820FFF74BFCFFF721FB4FF4BF
:10108000FA70FFF747FFFFF7EBF901200C2319A2D5
:10109000002100900846FFF76EFD0120102316A2E4
:1010A000002100901846FFF766FD0120182313A2C7
:1010B000002100902420FFF75EFDFFF701FB4FF4B5
:1010C000FA70FFF727FF012204210B20FFF72CFB0A
:1010D0005BE7000000100140200000203230313971
:1010E0002F30320041534349493A0000434F4445B1
:1010F0003A000000410000004200000043000000F0
:101100000000000000000000002F000000000700A9
:10111000070000147F147F1400242A7F2A12006223
:1011200064081323003649552250000005030000CF
:1011300000001C224100000041221C000014083E57
:1011400008140008083E0808000000A0600000081D
:101150000808080800006060000000201008040271
:10116000003E5149453E0000427F4000004261512F
:101170004946002141454B31001814127F100027C9
:1011800045454539003C4A4949300001710905038C
:1011900000364949493600064949291E00003636BD
:1011A0000000000056360000000814224100001420
:1011B00014141414000041221408000201510906FD
:1011C00000324959513E007C1211127C007F49497E
:1011D0004936003E41414122007F4141221C007FAF
:1011E00049494941007F09090901003E4149497ABD
:1011F000007F0808087F0000417F41000020404137
:101200003F01007F08142241007F40404040007FA2
:10121000020C027F007F0408107F003E4141413EE6
:10122000007F09090906003E4151215E007F09192E
:1012300029460046494949310001017F0101003F2B
:101240004040403F001F2040201F003F4038403FAB
:10125000006314081463000708700807006151490F
:10126000454300007F41410000552A552A550000A2
:1012700041417F0000040201020400404040404020
:10128000000001020400002054545478007F4844B8
:10129000443800384444442000384444487F0038EF
:1012A0005454541800087E0901020018A4A4A47C18
:1012B000007F080404780000447D400000408084E2
:1012C0007D00007F102844000000417F4000007C2A
:1012D00004180478007C0804047800384444443836
:1012E00000FC242424180018242418FC007C080482
:1012F000040800485454542000043F444020003C5B
:101300004040207C001C2040201C003C4030403CE1
:10131000004428102844001CA0A0A07C0044645471
:101320004C441414141414140000000000000000B5
:10133000000000000000FC000000000002000000AF
:10134000000C020C020000000000000090D0BCD095
:10135000BC900003000300001824FE448C0003022C
:10136000070201001824D8B04C80000300010201DC
:10137000C038E438E0000102020102020806000061
:101380000000000000000000000000F8040200005F
:1013900000010204000204F8000000040201000041
:1013A0009060F86090000000010000002020FC2008
:1013B00020000000010000000000000000000806FE
:1013C000000000002020202020000000000000007D
:1013D0000000000000000002000000000080601C0F
:1013E0000200040300000000F8040404F8000102F5
:1013F000020201000008FC000000000203020000DD
:101400001884442418000302020202000804242461
:10141000D80001020202010040B088FC80000000F8
:10142000000302003C242424C40001020202010043
:10143000F824242CC0000102020201000C04E41C68
:101440000400000003000000D8242424D800010276
:101450000202010038444444F80000030202010083
:10146000000010000000000002000000000020004A
:101470000000000006000000002050880402000068
:101480000000010290909090900000000000000089
:101490000002048850200002010000001804C42447
:1014A0001800000002000000F804E494F8000102B3
:1014B0000202020000E09CF0800002030000030230
:1014C00004FC2424D800020302020100F8040404EE
:1014D0000C0001020202010004FC0404F8000203F3
:1014E0000202010004FC24740C0002030202030047
:1014F00004FC24740C00020302000000F008044401
:10150000CC4000010202010004FC2020FC04020384
:10151000000003020404FC040400020203020200AF
:10152000000404FC040406040403000004FC24D0AA
:101530000C0402030200030204FC04000000020386
:1015400002020203FC3CC03CFC0003000300030059
:1015500004FC30C4FC04020302000300F804040489
:10156000F80001020202010004FC24241800020316
:1015700002000000F8848404F8000102020705005C
:1015800004FC24649800020302000302182424448B
:101590008C000302020201000C04FC040C00000297
:1015A0000302000004FC0000FC0400010202010030
:1015B000047C80E01C040000030000001CE03CE010
:1015C0001C00000300030000049C609C0400020354
:1015D00000030200041CE01C0400000203020000DF
:1015E0000C84641C04000203020203000000FE02DB
:1015F0000200000007040400000E30C000000000DC
:1016000000010200000202FE0000000404070000C6
:1016100000040204000000000000000000000000C0
:101620000000080808080808000002000000000088
:10163000000000000040A0A0C00000010202030260
:1016400004FC2020C00000030202010000C0202092
:10165000600000010202020000C02024FC00000122
:101660000202030200C0A0A0C000000102020200AA
:101670000020F82424040002030202000040A0A07D
:10168000602000070A0A0A0404FC2020C0000203AC
:10169000020003020020E400000000020302000038
:1016A000000020E4000008080807000004FC80E0B7
:1016B00020200203020003020404FC0000000202D6
:1016C00003020200E020E020C0000300030003004A
:1016D00020E02020C00002030200030200C02020FE
:1016E000C00000010202010020E02020C000080F1D
:1016F0000A02010000C02020E0000001020A0F08D9
:1017000020E0402020000203020000000060A0A0B2
:1017100020000002020203000020F8200000000068
:101720000102020020E00020E000000102020302AA
:1017300020E0208060200000030100006080E08045
:1017400060000003000300002060806020000203AE
:101750000003020020E0208060200808070100004C
:101760000020A0602000000203020200000020DE32
:101770000200000000070400000000FF000000005D
:10178000000F00000002DE2000000004070000003F
:10179000020102040402000000000000000000003A
:1017A000000000000000000000000000000000F841
:1017B00000000000000000333000000000100C06A4
:1017C000100C0600000000000000000040C078403F
:1017D000C0784000043F04043F040400007088FC0B
:1017E00008300000001820FF211E0000F008F00063
:1017F000E018000000211C031E211E0000F00888D4
:10180000700000001E2123241927211010160E003D
:10181000000000000000000000000000000000E0E8
:1018200018040200000000071820400000020418FD
:10183000E00000000040201807000000404080F059
:10184000804040000202010F01020200000000F08F
:10185000000000000101011F010101000000000063
:101860000000000080B070000000000000000000D8
:101870000000000000010101010101010000000061
:1018800000000000003030000000000000000000F8
:1018900080601804006018060100000000E01008D5
:1018A0000810E000000F102020100F00001010F8AA
:1018B000000000000020203F2020000000700808E9
:1018C0000888700000302824222130000030088869
:1018D000884830000018202020110E000000C02091
:1018E00010F8000000070424243F240000F80888B2
:1018F000880808000019212020110E0000E010883F
:1019000088180000000F112020110E000038080870
:10191000C83808000000003F000000000070880880
:1019200008887000001C222121221C0000E0100801
:101930000810E0000000312222110F00000000C05A
:10194000C0000000000000303000000000000080F7
:1019500000000000000080600000000000008040E7
:101960002010080000010204081020004040404000
:101970004040400004040404040404000008102053
:101980004080000000201008040201000070480898
:101990000808F0000000003036010000C030C82800
:1019A000E810E0000718272423140B000000C038BB
:1019B000E0000000203C23020227382008F8888835
:1019C00088700000203F202020110E00C030080841
:1019D00008083800071820202010080008F8080818
:1019E0000810E000203F202020100F0008F8888811
:1019F000E8081000203F20202320180008F88888DD
:101A0000E8081000203F200003000000C030080854
:101A10000838000007182020221E020008F80800DD
:101A20000008F808203F210101213F20000808F8A4
:101A3000080800000020203F2020000000000808C7
:101A4000F8080800C08080807F00000008F888C087
:101A500028180800203F20012638200008F8080038
:101A600000000000203F20202020300008F8F8006F
:101A7000F8F80800203F003F003F200008F830C081
:101A80000008F808203F200007183F00E010080871
:101A90000810E0000F10202020100F0008F80808A0
:101AA0000808F000203F210101010000E0100808B3
:101AB0000810E0000F18242438504F0008F88888D8
:101AC00088887000203F2000030C302000708808B8
:101AD000080838000038202121221C00180808F8C6
:101AE000080818000000203F2000000008F8080047
:101AF0000008F808001F202020201F000878880018
:101B000000C83808000007380E010000F80800F887
:101B10000008F800033C0700073C03000818688031
:101B20008068180820302C03032C30200838C800A7
:101B3000C83808000000203F2000000010080808F6
:101B4000C83808002038262120201800000000FE98
:101B5000020202000000007F40404000000C30C044
:101B600000000000000000010638C0000002020270
:101B7000FE000000004040407F0000000000040222
:101B8000020204000000000000000000000000004D
:101B9000000000008080808080808080000202043D
:101BA0000000000000000000000000000000808035
:101BB000808000000019242222223F2008F80080A3
:101BC00080000000003F112020110E000000008066
:101BD00080800000000E11202020110000000080F5
:101BE0008088F800000E112020103F200000808027
:101BF00080800000001F222222221300008080F03B
:101C0000888888180020203F202000000000808065
:101C100080808000006B94949493600008F80080AA
:101C200080800000203F210000203F200080989805
:101C3000000000000020203F202000000000008065
:101C40009898000000C08080807F000008F80000A5
:101C500080808000203F24022D302000000808F8FA
:101C6000000000000020203F2020000080808080B5
:101C700080808000203F20003F20003F8080008047
:101C800080800000203F210000203F200000808055
:101C900080800000001F202020201F008080008006
:101CA0008000000080FFA12020110E0000000080B5
:101CB00080808000000E112020A0FF8080808000A6
:101CC0008080800020203F212000010000008080D3
:101CD000808080000033242424241900008080E0C8
:101CE000808000000000001F202000008080000095
:101CF00000808000001F202020103F208080800076
:101D00000080808000010E30080601008080008085
:101D1000008080800F300C030C300F0000808000AA
:101D2000808080000020312E0E31200080808000D5
:101D30000080808080818E70180601000080808085
:101D4000808080000021302C222130000000000023
:101D5000807C020200000000003F404000000000C4
:101D6000FF00000000000000FF0000000002027CF5
:101D7000800000000040403F00000000000601011C
:101D80000202040400000000000000000000000047
:101D90000000000000000000000000000000000043
:101DA0000000000000000000000000000000000033
:101DB0000000000000F0F0F0000000000000000053
:101DC00000017F010000000000000000001C1C1C3E
:101DD0000000000000008060301C8C60301C0C0093
:101DE00000000000000000000000000000000000F3
:101DF0000000000000000000000000E00000000003
:101E000000E000000086E69F86868686E69F8600C4
:101E100000011F01010101011F010100000080C03C
:101E20006020F820E0C00000000003070C18FF70DD
:101E3000E18100000000070F10107F100F07000065
:101E40008060206080000000E02000000F30203023
:101E50009F70DC371030C0000000100E0300071820
:101E6000101807000000C02020E0C00000000000A3
:101E700080E01F38E88703C43C040000070F1810F7
:101E8000100B070D1010080000808C4C380000006B
:101E90000000000000000000000000000000000042
:101EA0000000000000000000000000000000000032
:101EB000000080E0300804000000000000FEFF0188
:101EC00000000000000000000000030F1820400088
:101ED00000040830E0800000000000000000000066
:101EE00001FFFE0000000000004020180F0300006A
:101EF00000000000000000000000C0000000000022
:101F0000004266663C18FF183C666642000000000E
:101F1000000003000000000000000000000080003E
:101F200000000000001010101010FF101010101012
:101F3000000000000000030000000000000000009E
:101F40000000000000000000000000000000000091
:101F50000000000000808C4C3800000000000000F1
:101F60000000000000000000000000000010101041
:101F700010101010101010000000000000000000F1
:101F80000000000000000000000000000000000051
:101F900000000000000000000000000000001C1C09
:101FA0001C00000000000000000000000000000015
:101FB000E0380C000000000080701C0300000000EE
:101FC0000060380E0100000000000000000080C02A
:101FD00060202060C080000000FEFF0100000000C3
:101FE00001FFFE000001070E181010180E07010077
:101FF0000000808080C0E0000000000000000000C1
:1020000000FFFF000000000000001010101F1F1054
:10201000101000000080402020202060C0800000C0
:1020200000030300804020381F070000001C1A191D
:1020300018181818181F00000080C020202060C049
:1020400080000000000303001010182FE78000003C
:1020500000070F10101010180F07000000000000FC
:102060000000C0E0F000000000C0B088868180FF62
:10207000FF808000000000000010101F1F101000E3
:102080000000E060606060606060000000003F1081
:1020900008080818F0E0000000070B101010101CD2
:1020A0000F030000000080C040202020E0C000009E
:1020B00000FCFF211008080818F0E0000001070CE0
:1020C00018101010080F03000000C0E0606060608E
:1020D00060E06000000003000000E018070000005E
:1020E00000000000001F1F00000000000080C06012
:1020F0002020202060C080000087EF2C181830308E
:1021000068CF830000070F0810101010180F070089
:102110000000C0C020202020C0800000001F3F60C1
:102120004040402010FFFE0000000C1C1010100862
:102130000F0300000000000000000000000000008D
:1021400000000000000E0E0E000000000000000065
:10215000001C1C1C0000000000000000000000002B
:102160000000000000000000000C0C000000000057
:1021700000000000005838000000000000000000CF
:102180000000008040201000000010284482010060
:102190000000000000000000000001020408100020
:1021A00000000000000000000000000000848484A3
:1021B0008484848484848400000000000000000083
:1021C000000000000000102040800000000000001F
:1021D00000000000000001824428100000001008E8
:1021E000040201000000000000C0202010101010A8
:1021F00030E0C0000003030000F010080C070300EB
:10220000000000001C1C1C0000000000000000C0BA
:10221000406020202040C00000FCFF01F00E03C100
:10222000FE03807F0001070E08111110110904023E
:102230000000000080E0E000000000000000807C62
:102240004340477FF880000010181F100000000076
:10225000131F1C1020E0E02020202060C080000020
:1022600000FFFF10101010182FE78000101F1F1024
:1022700010101010180F0700000080C04020202010
:102280002060E00000FCFF010000000000000100F1
:102290000001070E181010100804030020E0E020D1
:1022A00020202040C080000000FFFF000000000050
:1022B00001FFFE00101F1F10101018080E0701006C
:1022C00020E0E020202020202060800000FFFF1080
:1022D0001010107C00000000101F1F1010101010B4
:1022E0001018060020E0E020202020206060800000
:1022F00000FFFF101010107C00000100101F1F10C5
:102300000000000000000000000080C060202020CD
:1023100040E0000000FCFF0100004040C0C1404020
:102320000001070E181010100F0F000020E0E02031
:102330000000000020E0E02000FFFF10101010104F
:1023400010FFFF00101F1F1000000000101F1F10C3
:102350000000202020E0E0202020000000000000FD
:1023600000FFFF000000000000001010101F1F10F1
:102370001010000000000000202020E0E0202020BD
:1023800000000000000000FFFF0000000060E0808F
:102390008080C07F3F00000020E0E020000020A0FF
:1023A0006020200000FFFF30187CE3C00000000028
:1023B000101F1F10000001131F1C181020E0E02048
:1023C000000000000000000000FFFF00000000000F
:1023D00000000000101F1F10101010101018060031
:1023E00020E0E0E000000000E0E0E02000FF013F2E
:1023F000FEC0E01E01FFFF00101F1000031F0300BE
:10240000101F1F1020E0E0C0000000000020E020AE
:1024100000FF0003071C78E08000FF00101F100081
:1024200000000000030F1F00000080C0602020603B
:10243000C080000000FEFF010000000000FFFE0061
:102440000001070E181010180C07010020E0E02012
:102450002020202060C0800000FFFF2020202020BE
:10246000301F0F00101F1F100000000000000000B0
:10247000000080C060202060C080000000FEFF01DE
:102480000000000000FFFE000001070E1111133CC8
:102490007C67210020E0E0202020202060C0800018
:1024A00000FFFF101030F0D0080F0700101F1F10A2
:1024B000000000030F1C10100080C06020202020AE
:1024C0004040E00000070F0C1818303060E0810039
:1024D000001F0C0810101010180F0700806020203B
:1024E00020E0E020202060800100000000FFFF00CD
:1024F0000000000100000000101F1F10000000007D
:1025000020E0E020000000000020E02000FFFF00AD
:10251000000000000000FF0000070F18101010104E
:10252000100807002060E0E02000000020E06020AC
:102530000000077FF88000807C030000000000009E
:10254000071F1C070000000020E0E02000E0E02062
:102550000020E0200007FFF8E01FFFFCE01F000064
:102560000000031F0300011F03000000002060E0C3
:10257000A0000020E0602000000000038F7CF8C66F
:10258000010000000010181E130001171F18100092
:102590002060E0E02000000020E060200000010753
:1025A0003EF8E0180700000000000010101F1F1088
:1025B0001000000000806020202020A0E0E020002B
:1025C00000000000C0F03E0F0300000000101C1FC0
:1025D00017101010101806000000000000FC040482
:1025E000040404000000000000FF000000000000E0
:1025F00000000000007F404040404000000010E02C
:10260000000000000000000000000000031C6080CB
:102610000000000000000000000000030C708000BB
:1026200000000404040404FC00000000000000009A
:10263000000000FF00000000000040404040407FDC
:102640000000000000000010080C040C081000003E
:10265000000000000000000000000000000000007A
:10266000000000000000000000000000000000006A
:10267000000000000000000000000000000000005A
:102680008080808080808080808080800000000446
:102690000408080000000000000000000000000026
:1026A000000000000000000000000000000000002A
:1026B000000000000000000000000000000098D8AA
:1026C00044642424FCF80000000F1F1810101008A8
:1026D0001F1F10180020E0F00000000000000000A4
:1026E0000000FFFF180804040CF8F00000001F0FA2
:1026F00018101010180F0300000000000000000068
:102700000000000000E0F8180404043C3800000059
:1027100000030F0C1010101008060000000000004D
:1027200000000020E0F0000000E0F81C04040408B1
:10273000FFFF000000030F18101010081F0F080003
:102740000000000000000000000000000000E0F8B1
:10275000484444444C7870000000030F0C181010DB
:10276000100804000000000080C0602020E0C000CD
:1027700000040404FFFF040404040000000010101F
:102780001F1F1010100000000000000000000000DB
:1027900000000000000070F88C04048CF874040C35
:1027A000007076CF8D8D8D89C87870000020E0F0A4
:1027B00000000000000000000000FFFF0804040407
:1027C000FCF8000000101F1F100000101F1F100059
:1027D0000000000000606000000000000000040431
:1027E00004FCFC000000000000001010101F1F106F
:1027F00010100000000000000000006060000000F9
:1028000000000000040404FCFC0000000000C0C044
:102810008080C07F3F0000000020E0F0000000004A
:10282000000000000000FFFF80C0F41C0404000052
:1028300000101F1F1100031F1C101000000020209B
:1028400020E0F000000000000000000000FFFF009A
:102850000000000000001010101F1F1010100000DA
:1028600000000000000000000000000004FCFC0864
:1028700004FCFC0804FCFC00101F1F10001F1F10AC
:10288000001F1F10000000000000000000000000FA
:102890000004FCFC08080404FCF8000000101F1FE2
:1028A000100000101F1F10000000000000000000BA
:1028B0000000000000E0F0180C04040C18F0E00028
:1028C00000030F0C101010100C0F0300000000008C
:1028D00000000000000000000004FCFC08040404E8
:1028E0000CF8F0000080FFFF889010101C0F030010
:1028F00000000000000000000000000000E0F81CE4
:1029000004040408F8FC000000030F18101090885D
:10291000FFFF800000000000000000000000000039
:10292000040404FCFC100804040C0C001010101F1C
:102930001F10101000000000000000000000000048
:102940000000000000003078CCC48484840C1C009B
:1029500000001E1810101011190F060000000000D2
:1029600000C000000000000000040404FFFF040495
:1029700004000000000000000F1F1010100C0000E9
:102980000000000000000000000000000004FCFE49
:1029900000000004FCFE000000000F1F18101008CB
:1029A0001F0F0800000000000000000000000000F1
:1029B00000040C3CFCC40000C43C0C0400000000FB
:1029C000010F1E0E010000000000000000000000CA
:1029D00000000000043CFCC400E47CFC84807C0417
:1029E0000000071F070000071F070000000000008D
:1029F00000000000000000000004041C7CE4C0345F
:102A00001C0404000010101C1601131F1C181000D9
:102A100000000000000000000000000000040C3C6A
:102A2000FCC400C43C0404000000C080C1370E0197
:102A30000000000000000000000000000000000096
:102A400000001C0404C4F47C1C0400000000101CE2
:102A50001F17111010180E0000000000000000F8F1
:102A60000C04000000000000001028EF000000002F
:102A7000000000000000003F604000000000000077
:102A80000000FF0000000000000000000000FF0048
:102A900000000000000000000000FF000000000037
:102AA0000000040CF800000000000000000000001E
:102AB000EF28100000000000000040603F00000010
:102AC0000000000000180602020408102020300850
:102AD00000000000000000000000000000000000F6
:102AE00000000000000000000000F010101010FFB7
:102AF00010101010F000000000000F04040404FF88
:102B0000040404040F0000004040405F5555557513
:102B10005555555F404040000040200F09498979D4
:102B20000909090F2040000000FE02424ACA4A4A31
:102B3000CA4A4A4202FE000000FF40504C43404057
:102B40004F50505C40FF00000000F888888888FFE4
:102B500088888888F800000000001F080808087F9F
:102B6000888888889F80F00080828282828282E2C8
:102B7000A2928A8682808000000000000040807F50
:102B80000000000000000000101010FF10900888E6
:102B90008888FF88888808000444827F01808040FC
:102BA000432C1028468180000010101010D030FFF8
:102BB00030D0121C1010000010080402010000FFA9
:102BC000000001020408100004040484E43C2724EB
:102BD000242424E40404040004020100FF09090978
:102BE0000949897F0000000000FE225A8600FE92FB
:102BF00092929292FE00000000FF04080700FF403E
:102C000020030C1422414000008040201806800060
:102C10000718204080000000010020702826212095
:102C200020243860000101000010129292929292CA
:102C300092121202FE0000000000003F101010105F
:102C40003F0040807F000000000000C08080808046
:102C5000808080FC84808080808080C0C0000000F4
:102C6000000000FF7F404040404040FF4040404067
:102C7000404040FF7F000000000000000000000016
:102C80000000007F70000000000000000000000055
:102C9000000000000000000000000000000000FC38
:102CA000F80000000000000000000000000000002C
:102CB00000000000FFFE020202020202020202FF06
:102CC000FF020202020202020202FF0300000000F1
:102CD000000000001F1F040404040404040404FF93
:102CE000FF0404040404040404041F0000000000A2
:102CF0000000000000000000000000000000007F55
:102D00003F00000000000000000000000000000084
:102D100000000000000000000000000000000000B3
:102D200000000000000000000000000000F8F8F0C3
:102D3000F070200000000000000000000000000013
:102D40000000000000000000000000000000000083
:102D500000000000000000008000000000000000F3
:102D600000000000000000000000000000FFFFFF66
:102D7000FF00000000000000000000000000000054
:102D80000000000080800000000000000000000043
:102D9000000000000000000000FFFFFE060606061F
:102DA00006060606060606060606060606FFFFFFD8
:102DB000FF060606060606060606060606060606BA
:102DC000060606FFFFFFFF070200000000000000EC
:102DD000000000000000000000FFFFFF00000000F6
:102DE00000000000000000000000000000FFFFFFE6
:102DF000FF000000000000000000000000000000D4
:102E0000000000FFFFFFFF000000000000000000C6
:102E1000000000000000000000FFFFFF1818181855
:102E200018181818181818181818181818FFFFFF6D
:102E3000FF1818181818181818181818181818182B
:102E4000181818FFFFFFFF0000000000000000003E
:102E5000000000000000000002010100000000006E
:102E600000000000000000000000000000FFFFFF65
:102E7000FF00000000000000000000000000000053
:102E80000000000101000000000000000000000040
:102E90000000000000000000000000000000000032
:102EA00000000000000000000000000000FFFFFF25
:102EB000FF00000000000000000000000000000013
:102EC0000000000000000000000000000000000002
:102ED00000000000000000000000000000000000F2
:102EE000000000000000000000000000001F1F0F95
:102EF0000F000000000000000000000000000000C3
:102F000000000000000000000000000000000000C1
:102F1000302F000800000020200100006C01000894
:102F200050300008200100206808000088010008D7
:102F300000000000000000000000000000A24A04A1
:102F40000000000000000000010203040607080959
:102F5000FF0F07C3C1C1C1C101010181C1C1C1C10D
:102F6000C14101010101C1C1C1C1C1C1C1C1010151
:102F7000010101C1C1C1C1C1C1C1C1010101010141
:102F8000C1C1C1C1C1C1C1C1C1C1C1C1C3870FFFDD
:102F9000FF0000FFFFFFFFFFE0F8FEFFFF3F0F0312
:102FA000010000000000FFFFFFFFFF7FFFFFFEC0EA
:102FB00000C0FEFFFF7F07FFFFFFFF0000000000D3
:102FC000FFFFFFFFFF030303FFFFFFFFFFFF00FF04
:102FD000FF0000FFFFFFFFFF070F3FFFFFFEFCF0BA
:102FE000C08000000000FFFFFFFFFF0007FFFFFFA2
:102FF000F8FFFFFF0F0000FFFFFFFF0000000000D1
:10300000FFFFFFFFFFC0C0C0FFFFFFFFFFFF00FF8C
:10301000FFF0E0C383838383808080808383838306
:103020008383828080808383838383808080838383
:10303000838383808080808383838380808080807B
:10304000838383838383838383838383C3E1F0FFC9
:0400000508000131BD
:00000001FF
