:03000000021015D6
:0C101500787FE4F6D8FD75811C020ADF2C
:1008FB00323031392F30320041534349493A0043AA
:10090B004F44453A00FF0F07C3C1C1C1C1010101EB
:10091B0081C1C1C1C1C14101010101C1C1C1C1C17C
:10092B00C1C1C10101010101C1C1C1C1C1C1C1C16C
:10093B000101010101C1C1C1C1C1C1C1C1C1C1C15C
:10094B00C1C3870FFFFF0000FFFFFFFFFFE0F8FEB3
:10095B00FFFF3F0F03010000000000FFFFFFFFFF41
:10096B007FFFFFFEC000C0FEFFFF7F07FFFFFFFF03
:10097B000000000000FFFFFFFFFF030303FFFFFF6B
:10098B00FFFFFF00FFFF0000FFFFFFFFFF070F3F11
:10099B00FFFFFEFCF0C08000000000FFFFFFFFFF29
:1009AB000007FFFFFFF8FFFFFF0F0000FFFFFFFF38
:1009BB000000000000FFFFFFFFFFC0C0C0FFFFFFF4
:1009CB00FFFFFF00FFFFF0E0C38383838380808002
:1009DB0080838383838383828080808383838383E9
:1009EB0080808083838383838080808083838383E1
:1009FB0080808080808383838383838383838383CB
:050A0B0083C3E1F0FFD0
:100ADF00750820120BA3E4FF120F9DE4FF120F37CE
:100AEF00750C20750DFF750E09750F107B40E4FD19
:100AFF00FF120DF17FF47E01120F83120EA3120E5F
:100B0F00A3750C10E4FBFD7F08120CDB750C107B3A
:100B1F0001E4FD7F18120CDB750C107B02E4FD7FE6
:100B2F0028120CDB7BFF7A0879FB750E107D027F94
:100B3F0004120E597FF47E01120F83120EA37BFF56
:100B4F007A097903750E10E4FDFF120E597BFF7AB7
:100B5F0009790A750E107D02E4FF120E59751610F1
:100B6F00AB08E4FD7F30120A100508E508D3947E28
:100B7F004003750820E508FB7A00750D03750E100C
:100B8F007D027F28120D677FF47E01120F83120EF4
:040B9F00A3020AEFB4
:100003000000000000000000002F000000000700B7
:10001300070000147F147F1400242A7F2A12006231
:1000230064081323003649552250000005030000DD
:1000330000001C224100000041221C000014083E65
:1000430008140008083E0808000000A0600000082B
:10005300080808080000606000000020100804027F
:10006300003E5149453E0000427F4000004261513D
:100073004946002141454B31001814127F100027D7
:1000830045454539003C4A4949300001710905039A
:1000930000364949493600064949291E00003636CB
:1000A300000000005636000000081422410000142E
:1000B300141414140000412214080002015109060B
:1000C30000324959513E007C1211127C007F49498C
:1000D3004936003E41414122007F4141221C007FBD
:1000E30049494941007F09090901003E4149497ACB
:1000F300007F0808087F0000417F41000020404145
:100103003F01007F08142241007F40404040007FB0
:10011300020C027F007F0408107F003E4141413EF4
:10012300007F09090906003E4151215E007F09193C
:1001330029460046494949310001017F0101003F39
:100143004040403F001F2040201F003F4038403FB9
:10015300006314081463000708700807006151491D
:10016300454300007F41410000552A552A550000B0
:1001730041417F000004020102040040404040402E
:10018300000001020400002054545478007F4844C6
:10019300443800384444442000384444487F0038FD
:1001A3005454541800087E0901020018A4A4A47C26
:1001B300007F080404780000447D400000408084F0
:1001C3007D00007F102844000000417F4000007C38
:1001D30004180478007C0804047800384444443844
:1001E30000FC242424180018242418FC007C080490
:1001F300040800485454542000043F444020003C69
:100203004040207C001C2040201C003C4030403CEF
:10021300004428102844001CA0A0A07C004464547F
:100223004C441414141414140000000000000000C3
:100233000000000000000000000000F800000000C3
:10024300000000333000000000100C06100C060004
:10025300000000000000000040C07840C07840006B
:10026300043F04043F040400007088FC08300000CD
:10027300001820FF211E0000F008F000E018000025
:1002830000211C031E211E0000F0088870000000DE
:100293001E2123241927211010160E000000000030
:1002A3000000000000000000000000E0180402004D
:1002B300000000071820400000020418E0000000BE
:1002C3000040201807000000404080F080404000BC
:1002D3000202010F01020200000000F00000000012
:1002E3000101011F010101000000000000000000E6
:1002F30080B070000000000000000000000000005B
:1003030000010101010101010000000000000000E3
:10031300003030000000000000000000806018047E
:10032300006018060100000000E010080810E0005B
:10033300000F102020100F00001010F80000000024
:100343000020203F2020000000700808088870006B
:1003530000302824222130000030088888483000EB
:100363000018202020110E000000C02010F800000B
:1003730000070424243F240000F8088888080800A4
:100383000019212020110E0000E0108888180000B9
:10039300000F112020110E0000380808C83808008B
:1003A3000000003F0000000000708808088870000B
:1003B300001C222121221C0000E010080810E0008C
:1003C3000000312222110F00000000C0C000000015
:1003D300000000303000000000000080000000003A
:1003E3000000806000000000000080402010080032
:1003F30000010204081020004040404040404000FB
:1004030004040404040404000008102040800000D5
:100413000020100804020100007048080808F000DA
:100423000000003036010000C030C828E810E000AA
:100433000718272423140B000000C038E000000035
:10044300203C23020227382008F88888887000009F
:10045300203F202020110E00C03008080808380073
:10046300071820202010080008F808080810E000EA
:10047300203F202020100F0008F88888E80810008B
:10048300203F20202320180008F88888E80810005F
:10049300203F200003000000C03008080838000097
:1004A30007182020221E020008F808000008F80898
:1004B300203F210101213F20000808F8080800001F
:1004C3000020203F2020000000000808F808080052
:1004D300C08080807F00000008F888C028180800CA
:1004E300203F20012638200008F808000000000003
:1004F300203F20202020300008F8F800F8F80800FA
:10050300203F003F003F200008F830C00008F808F3
:10051300203F200007183F00E01008080810E00003
:100523000F10202020100F0008F808080808F0001A
:10053300203F210101010000E01008080810E0003D
:100543000F18242438504F0008F8888888887000D2
:10055300203F2000030C3020007088080808380072
:100563000038202121221C00180808F80808180068
:100573000000203F2000000008F808000008F808E9
:10058300001F202020201F000878880000C838089A
:10059300000007380E010000F80800F80008F80012
:1005A300033C0700073C03000818688080681808AC
:1005B30020302C03032C30200838C800C83808002A
:1005C3000000203F2000000010080808C838080079
:1005D3002038262120201800000000FE020202001D
:1005E3000000007F40404000000C30C000000000CD
:1005F300000000010638C00000020202FE000000F5
:10060300004040407F00000000000402020204009A
:1006130000000000000000000000000000000000D7
:1006230080808080808080800002020400000000BF
:1006330000000000000000000000808080800000B7
:100643000019242222223F2008F8008080000000A5
:10065300003F112020110E00000000808080000068
:10066300000E112020201100000000808088F80077
:10067300000E112020103F200000808080800000A9
:10068300001F222222221300008080F0888888180D
:100693000020203F20200000000080808080800018
:1006A300006B94949493600008F8008080800000AD
:1006B300203F210000203F20008098980000000088
:1006C3000020203F202000000000008098980000B8
:1006D30000C08080807F000008F8000080808000D8
:1006E300203F24022D302000000808F800000000FD
:1006F3000020203F202000008080808080808000B8
:10070300203F20003F20003F808000808080000049
:10071300203F210000203F200000808080800000D7
:10072300001F202020201F00808000808000000008
:1007330080FFA12020110E00000000808080800037
:10074300000E112020A0FF80808080008080800028
:1007530020203F2120000100000080808080800055
:100763000033242424241900008080E080800000CA
:100773000000001F20200000808000000080800017
:10078300001F202020103F20808080000080808078
:1007930000010E3008060100808000800080808008
:1007A3000F300C030C300F0000808000808080002D
:1007B3000020312E0E312000808080000080808058
:1007C30080818E7018060100008080808080800008
:1007D3000021302C2221300000000000807C020226
:1007E30000000000003F404000000000FF00000048
:1007F30000000000FF0000000002027C80000000F7
:100803000040403F00000000000601010202040412
:1008130000000000000000000000F010101010FFA6
:1008230010101010F000000000000F04040404FF77
:10083300040404040F0000004040405F5555557503
:100843005555555F404040000040200F09498979C4
:100853000909090F2040000000FE02424ACA4A4A21
:10086300CA4A4A4202FE000000FF40504C43404047
:100873004F50505C40FF00000000F888888888FFD4
:1008830088888888F800000000001F080808087F8F
:10089300888888889F80F00080828282828282E2B8
:1008A300A2928A8682808000000000000040807F40
:1008B3000000000000000000101010FF10900888D6
:1008C3008888FF88888808000444827F01808040EC
:1008D300432C1028468180000010101010D030FFE8
:1008E30030D0121C1010000010080402010000FF99
:0808F3000000010204081000DE
:100F8300EF4E60157D087C07ED1DAA0470011C4A15
:090F930070F6EF1F70EA1E80E702
:010F9C002232
:100F9D008F09EF7006FD7FA6120EE2E50964017060
:080FAD0006FD7FA7120EE222EF
:100F37008F09EF700DFD7FC8120EE2E4FD7FA1124D
:100F47000EE2E5096401700DFD7FC0120EE2E4FDBB
:060F57007FA0120EE22251
:08102B007F01AE071FEE70FA11
:01103300229A
:0F0FF700D291D29012102BC29112102BC29022C5
:0A102100C291D29012102BD291223E
:0F100600D29112102BD29012102BC29002102BED
:020F0B00AD0730
:100F0D00E4FCECC3940874809480501DC290ED30C5
:100F1D00E704D2918002C29112102BD29012102BA5
:090F2D00C290ED25E0FD0C80D915
:010F36002298
:080EDA00E4FD120EE2E4FDFF4D
:100EE200AB05AA07120FF77F78120F0B121006EB51
:100EF20060047F408002E4FF120F0B121006AF0263
:090F0200120F0B1210060210215F
:100F5D00A907742029F9ED24B0FFE4FD120EE2E992
:100F6D0054F0C4540F4410FFE4FD120EE2E9540F87
:060F7D00FFE4FD020EE29C
:100FCD00E4FD7F8D120EE2E4FD7F14120EE2E4FDCE
:050FDD007FAF020EE2EF
:100FE200E4FD7F8D120EE2E4FD7F10120EE2E4FDBD
:050FF2007FAE020EE2DB
:100EA300E4F9E9C3940474809480502AE924B0FFE0
:100EB300120EDAE4FD7F12120EE2E4F509C3E5092E
:100EC300944074809480500B7D01E4FF120EE20580
:060ED3000980EA0980CC51
:010ED90022F6
:040A10008F138D149F
:100A1400E4F517E516C313FDF518E4F519F51AE521
:100A24001664087007F51B751C068029E516131358
:100A340013541FFF7E00E5165407600590000180E3
:100A440003900000E5822FFFE5833EFE7C00120C3C
:100A5400748E1B8F1CEB24E0F517AD14AF13120F2B
:100A64005DE4F519F51AC3E51A951CE519951B50B3
:100A740069E518FD7C00AE19AF1A120C86ED4C70B6
:100A84000FE51664086009AD140514AF13120F5D69
:100A9400E5166408701075F006E517A42403F582C2
:100AA400E5F034008014E5166410702E75F010E53E
:100AB40017A4242BF582E5F03402F583E582251A88
:100AC400F582E5833519F583E493FF7D01120EE287
:0A0AD400051AE51A70900519808CD0
:010ADE0022F5
:040FB5008F13A905E8
:100FB9007F017E00AD0119ED6009AD137C00120CB3
:030FC9007480F140
:010FCC002202
:080D67008F098D0A8A0B8B0C29
:100D6F00E4F511F512E50E64087003751102E4F550
:100D7F000FE50FC3950D5069C3E50D950F14FD7F5A
:100D8F000A120FB5AC0BAD0CCFCDCFCECCCE120C13
:100D9F00867C007D0A120C868D10E5127025E50DFC
:100DAF0014FFE50FC39F501BE5107014E50EC3131E
:100DBF002511850FF0A42509FF850E167B208018BD
:100DCF00751201E50EC3132511850FF0A42509FF38
:100DDF00E5102430FB850E16AD0A120A10050F80A0
:010DEF009073
:010DF00022E0
:0A0E59008F098D0A8B0B8A0C890D9E
:100E6300E4F50FAB0BAA0CA90D850F827583001255
:100E73000C47602BAF0F050F8F82758300120C4751
:100E8300FB850E16AD0AAF09120A10E50E64087051
:0F0E93000474068004E50EC3132509F50980C415
:010EA200222D
:060CDB008F098D0A8B0B4E
:100CE100E50C131313541FFF7E00E50C54077C0021
:100CF10060047D0180027D00ED2FFFEC3EFEAD0C16
:100D01007C00120C748E0F8F10E4F50DF50EC3E507
:100D11000E9510E50D950F504CE50CFD7C00AE0DC8
:100D2100AF0E120C86ED4C7009AD0A050AAF09121F
:100D31000F5DE50C6410702DE50BC43354E0241BEA
:100D4100F582E43408F583E582250EF582E58335E5
:100D51000DF583E493FF7D01120EE2050EE50E70A1
:050D6100AD050D80A9A5
:010D6600226A
:060DF1008F098D0A8B0B37
:100DF700E4F510F511E50C131313541FFFE50C541C
:100E07000760047E0180027E00EF2EF50CE4F512E8
:100E1700E512C3950C503AE512250AFDAF09120FEA
:100E27005DE4F513E513C3950B5022AB0DAA0EA98C
:100E37000F0511E511AE107002051014F5828E83AF
:100E4700120C47FF7D01120EE2051380D7051280B1
:010E5700BFDB
:010E58002277
:100BA300C2927FC87E00120F83D2927FAE120EDAFA
:100BB3007F12120EDAE4FD7FB0120EE2E4FD7F81B4
:100BC300120EE2E4FD7F4F120EE2E4FD7FA1120E4E
:100BD300E2E4FD7FA6120EE2E4FD7FA8120EE2E43A
:100BE300FD7F1F120EE2E4FD7FC8120EE2E4FD7FDB
:100BF300D3120EDCE4FD7FD5120EE2E4FD7F8012FA
:100C03000EE2E4FD7FD9120EE2E4FD7F1F120EE235
:100C1300E4FD7FDA120EE2E4FD7F12120EE2E4FD40
:100C23007FDB120EE2E4FD7F40120EE2E4FD7F8DD6
:100C3300120EE2E4FD7F14120EE2120EA3E4FD7F16
:040C4300AF020EE20C
:100C4700BB010CE58229F582E5833AF583E0225062
:100C570006E92582F8E622BBFE06E92582F8E222AC
:0D0C6700E58229F582E5833AF583E49322C6
:100C7400EF8DF0A4A8F0CF8CF0A428CE8DF0A42E94
:020C8400FE224E
:100C8600BC000BBE0029EF8DF084FFADF022E4CC52
:100C9600F875F008EF2FFFEE33FEEC33FCEE9DEC1B
:100CA600984005FCEE9DFE0FD5F0E9E4CEFD22ED61
:100CB600F8F5F0EE8420D21CFEADF075F008EF2FAB
:100CC600FFED33FD4007985006D5F0F222C398FD9C
:050CD6000FD5F0EA2239
:00000001FF
