:10000000806A00205D2E000063DA0100312E0000BE
:10001000312E0000312E0000312E000000000000C3
:100020000000000000000000000000002D2700007C
:10003000312E000000000000D9260000312E000003
:10004000DD270000DD270000DD270000DD270000A0
:10005000DD270000DD270000DD270000DD27000090
:10006000DD270000DD270000DD270000DD27000080
:10007000DD270000DD270000DD270000DD27000070
:10008000DD270000DD270000DD270000DD27000060
:10009000DD270000DD270000DD270000DD27000050
:1000A000DD270000DD270000DD270000DD27000040
:1000B000DD270000DD270000DD270000DD27000030
:1000C000DD270000DD270000DD270000DD27000020
:0C00D000DD270000DD270000DD27000018
:1000DC0053B94AB9002908BF00281CBF4FF0FF31A3
:1000EC004FF0FF3000F00CB8ADF1080C6DE904CE08
:1000FC0000F008F8DDF804E0DDE9022304B07047F5
:10010C00704700BF2DE9F04786468C460846089E8E
:10011C00154674461946002B40F0C2808542B2FA4F
:10012C0082F245D94AB1C2F1200300FA02FC2EFA40
:10013C0003F3954043EA0C0C94404FEA154EA8B2D9
:10014C00BCFBFEF8230C0EFB18CC08FB00F943EAB1
:10015C000C43994528D9EB1808F1FF3704D299457F
:10016C0002D9A8F102072B44A3EB0903A4B2B3FBF9
:10017C00FEFC0EFB1C330CFB00F044EA0344A042D3
:10018C0014D92C190CF1FF3304D2A04202D9ACF1D2
:10019C0002032C44241A43EA07401EB1D440002326
:1001AC0034607360BDE8F0874746DDE76346F1E7EE
:1001BC0092BB431B01214FEA154EAFB2B3FBFEFCC1
:1001CC00200C0EFB1C330CFB07F840EA034398454C
:1001DC0062D9EB180CF1FF3004D2984502D9ACF17E
:1001EC0002002B44A3EB0803A4B2B3FBFEFC0EFBF2
:1001FC001C330CFB07F744EA0344A7424ED92C19D5
:10020C000CF1FF3304D2A74202D9ACF102032C4407
:10021C00E41B43EA0040C0E7C2F1200320FA03F1DB
:10022C00954090402EFA03F303434FEA154EAFB2BC
:10023C00B1FBFEFC0EFB1C10190C0CFB07F841EA81
:10024C000041884504FA02F422D969180CF1FF30F8
:10025C0004D2884502D9ACF102002944A1EB080173
:10026C009BB2B1FBFEFC0EFB1C110CFB07F743EA27
:10027C0001439F420ED9EB180CF1FF3104D29F427F
:10028C0002D9ACF102012B44DB1B41EA004192E79D
:10029C006046E3E76146F7E76046A3E76346B7E7E6
:1002AC00834206D916B9002108467BE7C6E900E06F
:1002BC00F9E7B3FA83F78FB9834201D3724508D8B3
:1002CC00BEEB020460EB030301209C461EB9002127
:1002DC0068E73846FAE7C6E9004CF8E7C7F1200CA6
:1002EC00BB4022FA0CF41C432EFA0CF120FA0CF34E
:1002FC00B84001434FEA14490EFA07F5B3FBF9F87D
:10030C001FFA84FE09FB18300B0C08FB0EFA43EAAB
:10031C0000439A4502FA07F240D9E31808F1FF307E
:10032C0004D29A4502D9A8F102002344A3EB0A0394
:10033C0089B2B3FBF9F809FB183308FB0EFE41EA4E
:10034C0003418E452CD9611808F1FF3304D28E4538
:10035C0002D9A8F10203214443EA0040A0FB029811
:10036C00A1EB0E014145CE46434602D306D14D4585
:10037C0004D2B9EB020E68EB04030138002EA6D0B0
:10038C00B5EB0E0261EB030101FA0CFC22FA07F348
:10039C004CEA0303F940C6E9003198E74046C5E74B
:1003AC004346D9E7014B00221A607047E44700200E
:1003BC002DE9F0418AB000AF0024C7E90144C7F829
:1003CC000B40524828F0CAFB034678B9504A7A626F
:1003DC0002223A624F4807F120024FF4825101F099
:1003EC00D7FB00202837BD46BDE8F0814A4D284692
:1003FC0028F0B4FB00284BD0D5F81080AE68D8F8A4
:10040C000030464A43F40053C8F8003033680D21DD
:10041C002846984730B16D4688B06A46404BC2E9D1
:10042C00053012E03F49404B4B604FF400538B605A
:10043C00F369ABB1012228469847044698B16D4642
:10044C0088B06A46394BC2E90534032342F8103FA1
:10045C00304800234FF4C25101F09AFBAD46C0E77F
:10046C006FF08504EBE7D8F80030B66913F4005F41
:10047C0014BF4FF000734FF080634FF0A0720D214A
:10048C002846B04720B16D4688B06A46284BC6E76F
:10049C0008F0F6FA07F038FF09F0AEFA2549264EB7
:1004AC00044609F013FF00231A460921204620F0C8
:1004BC0026FA08F0E5FA07F027FF09F09DFA002369
:1004CC001A460521054620F01AFA0EF0C7FF0F4810
:1004DC001A4C83685B68984723686421B3FBF1F27C
:1004EC0001FB12333BB93146381D02F03FFE391D7A
:1004FC00284609F0EBFE0EF0B1FF236801332360B0
:10050C0000214FF4A4701CF0FBF8E5E7E48E020028
:10051C00E6A20200789002009C8E020011000100FD
:10052C0006A30200D8470020B10300002AA3020052
:10053C004CA3020071A3020050B60200E447002055
:10054C002DE9F04F91B08407009302F0040302935D
:10055C00C2F3C20303F10103DDF868800392054680
:10056C000E46059340F0BE81041D30B1072909D811
:10057C006FF01B0011B0BDE8F08F01F00706341DC1
:10058C00C6F10806009B4FF00009591E4FF0040AF3
:10059C004FF0FF330193CDF810904F46CB465346A6
:1005AC000DB1009A22600598002800F3EB809A4860
:1005BC00009A824203D399488242C0F0E380039AA6
:1005CC00A4EB050E92074FEA9E0000F106810F2F57
:1005DC0000F2B480002D00F0088107F140020DEB11
:1005EC00020C019A0CF8200C0CF8102C0498013019
:1005FC000490EAE07A2860D84B280ED847285CD8BB
:10060C0029282FD8252855D057D820287DD02338F5
:10061C00D0F1000B4BEB000B77E0A0F14C0CBCF1D4
:10062C002E0F4AD8DFE80CF071494949494949492C
:10063C00494949494C49494949494949495A494C07
:10064C004C5A5A5A714C6E497149184C1849498385
:10065C00804C49494C49800000204FF0000B4FF072
:10066C00040A39E0A0F12A0C5FFA8CFC012202FA90
:10067C000CFC1CEA0E0F48D11CF062502ED11CEA67
:10068C00020B42D0013C5444CAF1000C04EA0C04A5
:10069C00002D61D0A3EB050CA444B4453FF668AF24
:1006AC00002868D1042B47D158F8043B236004344C
:1006BC0004232AE0019A013A01924FF0000B24E046
:1006CC0011F8010C6C2834D111F8023C00206C2B71
:1006DC008346C4D14FF0080A5346D3E708F1070804
:1006EC0028F007080734F8E802AB24F0070435B10A
:1006FC0006982044B0423FF63BAFC4E900AB083447
:10070C004FF0000B4FF0080A534611F8010F002868
:10071C0078D0BBF1000F7FF46DAF2528F5D1019B8C
:10072C00013301934FF0010B4FF0040AECE75846EC
:10073C0093E700208346A5E7082B02D06FF0150045
:10074C0018E708F1070828F00708F8E80223C4E9BD
:10075C00002308340823D8E768B9042B02D108F128
:10076C000408A4E7082BE9D108F1070828F00708CA
:10077C0008F10808EDE7059A013A059258F8042BA0
:10078C0000920DE7039A900720D5A4EB050E4FEAD3
:10079C009E004FF0010CBEF5007FCFD20F2FCDD8AD
:1007AC00F5B107F140020DEB020EC0B2019A0EF842
:1007BC00200C0EF8102CBCF1000F3FF417AF60F0BA
:1007CC007F000EF8200C09F101090137C5F1080270
:1007DC00043406924FF6DA7E97E74FF0000CDAE716
:1007EC00BCF1000F01D00136EFE702980236002869
:1007FC00EBD10098CDE906311DF041F9DDE9063168
:10080C000644E2E7631BB3F5806F97D245B9A6F1B6
:10081C000804E018AEE600BF248E0200B0FF020010
:10082C00029A28609B082B709DF81030C2B1EB70B7
:10083C0085F80290B9F1000F05D008A80022C5F187
:10084C00010C97420ED1C5F101030DF120084FF0B8
:10085C00000A01930DF1300B574512D1601B89E64C
:10086C006B70E5E710F8013B190608D504EB0C0E8C
:10087C00B64503F07F033FF67BAE04F8013B013233
:10088C00DFE7B9F1000F03D098F90020002A17DB3D
:10089C00029BD3B11AF80B2004F8012B0022019B08
:1008AC0098182044B0423FF663AE98F8000004F864
:1008BC00010B0099039220461DF0FDF8039A144495
:1008CC000AF1010A08F10108C6E798F8002055F86A
:1008DC0022300093029B45F8223000981DF0CFF88F
:1008EC00421CDCE76FF00D0044E600BF2DE9F04F31
:1008FC0095B000AF0446D7F878B0BB61CBF3C0031A
:10090C007A623B61396251B903784678807800EBA2
:10091C00830020443B6A9E421AD8031B3B6294F826
:10092C0002A0E3787B615646BAF1000F02D01BF0AF
:10093C00010F17D17B695BBB7B6A1BB1BA69396A42
:10094C00204698473D6A28465437BD46BDE8F08F8F
:10095C00451C28461DF093F83B6A013001332844AE
:10096C003B62D7E794F800806368FB617B6A4FEACF
:10097C008802FA6004EB8808002B40F001813D6A84
:10098C00C1460AEB080300264B454ED1D04413E078
:10099C001BF0020FD0D094F800804FEA8803FB6064
:1009AC006368FB617B6A04EB8808002B78D13D6A95
:1009BC00BAF1000F4ED156461BF0050F0CBF0223A7
:1009CC0001237B627B6908EB430A0BF002033B6259
:1009DC00D045B8D018F8021B18F8013C54F82390F5
:1009EC00AC4B994502D3AC4B994539D33B69002BA1
:1009FC0043D0F8691CF037F900283ED0E9468AB09C
:100A0C006A46A64B5361FB69C2E906314FF4007389
:100A1C001384A34B42F8103FA24800234FF4125109
:100A2C0001F0B6F8023DCD46D2E719F8012B7B62F6
:100A3C0054F822001DF023F8FA6F7B6A01303AB1AA
:100A4C00D7F8802096423EBFFA6F22F81600013686
:100A5C00054499E71BF004061CBF7E6AD044ABE743
:100A6C003B6923B1F8691CF0FEF80028C6D11BF0D5
:100A7C00010F05D17B6AED1AAAE73B6A002BA7D0C0
:100A8C0048461CF0FCFFFB6F43B1D7F880309E4208
:100A9C003FBFFA6F431C22F816300136054497E726
:100AAC00BAF1000F71D01BF0040671D0D1460026AC
:100ABC0007F14000524641461CF0FDFF7B695B008C
:100ACC00BB607B69D04408EB43037B610BF00203F2
:100ADC007B607B6998455DD12378FB6163781BF063
:100AEC00020F06EB03020CBF4FEA590100211BF069
:100AFC00010FD2B240F09D801BF0040F14BF48468A
:100B0C00002094F802B094F803803B616270A070EE
:100B1C00E170BA69F9687B6A20469847051EFFF6B2
:100B2C0012AFFB6923703B69637084F80380BA6968
:100B3C007B6A84F802B0494607F140009847B0F14F
:100B4C000008C0F2A3803B6ABA697869A3EB0A017A
:100B5C00FB68C91ABB68C91A7B6A98470028C0F29F
:100B6C009780A84408EB00054FF0000B07F1300A02
:100B7C00B34560D30021BA697B6A08469847E2E620
:100B8C004FF0000907F1300094E75646D14695E73F
:100B9C00B14693E718F8021B3E4A18F8015C54F86A
:100BAC002530934202D33C4A93421CD33B6923B178
:100BBC00F8691CF058F800288BD17B68F3B909F15F
:100BCC00280207F12800024409F1010302F8101C65
:100BDC0007F1500252FA83F309F102095FFA89F91D
:100BEC0003F8105C75E73B692BB1F8691CF03BF816
:100BFC0000287FF46EAF1BF0010F09D006F128021C
:100C0C0007F12801731C561806F8205CDEB260E769
:100C1C001BF0040F3FF45DAF09F1280207F1280126
:100C2C0009F1010302EB010909F8105C5FFA83F981
:100C3C004FE7002065E71BF80A3087F82F3054F88F
:100C4C002390FB6FFBB133F81B80BA697B6A0121DF
:100C5C0007F12F00984700281ADB0544B8F1000F64
:100C6C0006D148461CF00BFF00F101081FFA88F86A
:100C7C00BA697B6A414648469847002808DB054418
:100C8C000BF1010B74E7D7F87C80DEE745465AE69A
:100C9C00054658E6248E0200B0FF020082A3020033
:100CAC000400000180900200014B1860704700BFE7
:100CBC000000002030B587B00025CDE903010446C3
:100CCC00009503A90548059500F018F9DDE90430F5
:100CDC009842B8BF255407B030BD00BFC1CC01004D
:100CEC002DE9F047058B04462807904611D40229BC
:100CFC0005F0070540F0CD8020461CF06BFA78B16A
:100D0C000138218B042811D8DFE800F0C3106D8561
:100D1C00950001290CBF45F0100545F020052583F1
:100D2C0088F31188BFF36F8FBDE8F08701F0070AD5
:100D3C00AA4500F0A6800027B9463E46A368002BC2
:100D4C0000F0BD8041F00801218388F31188BFF3C6
:100D5C006F8FA168002900F0BB800D68002900F09E
:100D6C00B780D1F80480334652462046C047002D48
:100D7C0076D02B6829461D46F0E701F007035A1F71
:100D8C00012A1BD8002221F00701062B276889B203
:100D9C00C4E9002209D13B4603E0628B0132628335
:100DAC001B68002BF9D141F00201218320461CF075
:100DBC0011FA00287BD041F0200177E0042B0AD1F6
:100DCC0021F0070189B2218320461CF003FA10B1EF
:100DDC0041F020012183218B01F0070AAA4550D054
:100DEC000027B946AAE7236921F0070141F0060163
:100DFC00062DD3F8009021832DD1B9F1000F40D0EE
:100E0C0041F00801218388F31188BFF36F8F3A49B1
:100E1C002046C84729E021F00701236941F004016D
:100E2C0089B2042DD3F804902183E6D000273E46E6
:100E3C004FF0040A82E721F00701236941F0050114
:100E4C0089B2052DD3F808902183D6D000273E46D1
:100E5C004FF0050A72E700273E464FF0060A6DE791
:100E6C002B4687E7B9F1000FD1D14FF02003EFF3F8
:100E7C00118883F31288BFF36F8F238B23F0080341
:100E8C002383258BEA062ED525F01003238305F04A
:100E9C0007056669218B002EBFF66FAF002327680C
:100EAC00C4E9003321F0070141F001012183218BBA
:100EBC0001F0070AAA454FF000097FF43FAF002F5D
:100ECC009BD041F00801218388F31188BFF36F8F09
:100EDC00002FC7D03D6839463346524620461CF099
:100EEC00A5F92F46F4E7AB067FF51AAF25F02003E2
:100EFC00238305F00705FFE665D201002DE9F04FCD
:100F0C00814695B08B4617461C460025387808B9A3
:100F1C00284658E37B1C2528039306D05946C8471E
:100F2C000028C0F250830135FBE1182200210EA8E5
:100F3C001CF0CCFD7B78252B7DD00023781C9846AB
:100F4C009E469C461E46014610F8012B2B2A00F0AB
:100F5C00A18000F29880202A00F09F80232A00F0C4
:100F6C009F802BB19DF8403043F040038DF840300A
:100F7C00B8F1000F05D09DF8403043F020038DF8F8
:100F8C004030BEF1000F05D09DF8403043F0100307
:100F9C008DF84030BCF1000F05D09DF8403043F087
:100FAC0008038DF840302EB19DF8403043F0040317
:100FBC008DF840309DF8403003F04400442803D1B4
:100FCC006FF386138DF840309DF840302A2A43F099
:100FDC0080038DF840307FD19DF8412042F0010212
:100FEC004B1C8DF841201A782E2A9DF841200CBFFD
:100FFC000121002161F341028DF8412078D15A780A
:10100C002A2A6ED0013300224FF00A0C194611F82F
:10101C00010BA0F13006092E40F295809DF840108E
:10102C001292C1F3400040EAD2700A4660F34102CA
:10103C008DF840205CE0BA1C03928DF843309DF88B
:10104C004130DA0740F12E8154F8048BB8F1000FCF
:10105C0007DA9DF8402042F004028DF84020C8F1D8
:10106C0000085E0740F1278154F804ABBAF1000F79
:10107C0080F226819DF841306FF341038DF84130A9
:10108C004FF0FF3A1CE12D2A0DD0302A7FF469AFC6
:10109C00012358E74FF0010C55E74FF0010E52E7D2
:1010AC004FF001084FE701264DE70EFB0262303A84
:1010BC000346184610F8016BA6F1300CBCF1090F71
:1010CC00F3D999428FD09DF840101192D20F62F350
:1010DC0041018DF8401086E70B4600224FF00A0EB6
:1010EC00E7E79DF8412042F004028DF841200233DD
:1010FC001A786C2A47D02BD8682A31D06A2A4BD060
:10110C004C2A51D01A4612F8013B0392782B9DF8C9
:10111C0041208DF8433000F2BE806D2B51D8692BE5
:10112C0000F2B980572B67D8412B03D0453B022BDB
:10113C0000F2B1809DF84230042262F302038DF874
:10114C004230012373E00CFB0202303A0B465DE7A0
:10115C00742A25D07A2AD5D19DF8412006210CE09D
:10116C005A78682A9DF8412006D1012161F3C60204
:10117C008DF841200233C5E7022161F3C6028DF8D8
:10118C0041200133BEE75A786C2A9DF8412001D1E9
:10119C000421EBE70321F0E79DF841200521ECE762
:1011AC009DF841200721E8E7BDF8402022F4F042E9
:1011BC0022F0020242F4804242F00202ADF84020DA
:1011CC00DFE76E3BD9B201238B4040F282410B42E8
:1011DC0037D113F0240F51D1D8075CD59DF842308C
:1011EC00032161F302038DF8423002F07803A3F17E
:1011FC0040014B424B411AE0A3F15801C9B2012006
:10120C0000FA01F111F4624F94D140F6010631421B
:10121C001DD111F4043F3ED09DF8423060F302031F
:10122C0002F07802402A8DF8423034D000239DF829
:10123C004020C2F340010B4363F341028DF8402080
:10124C00FDE69DF84230022161F30203E8E79DF8C8
:10125C004210022002F0780260F30201402A8DF85D
:10126C00421002BF9DF8401041F001018DF8401072
:10127C00632BDBD1131E18BF0123D8E79DF8423036
:10128C00032161F3020312F0780F8DF8423014BF82
:10129C0001230023CBE79DF8403043F001038DF888
:1012AC004030C3E79DF94020002AB4BFDDF84480EC
:1012BC004FF0FF38D5E698077FF5E2AEDDF848A091
:1012CC009DF841100023CDE911339DF8423003F015
:1012DC000703012BC1F3C30133D1CB1E042B04D85C
:1012EC00DFE803F0214646212100236801294FEA5B
:1012FC00E372CDE90E321CD19DF93830DA17CDE905
:10130C000E3204349DF8403013F0030650D0039B8A
:10131C003A46594648461CF07CF80028C0F25381E6
:10132C000544039FF2E554F8043BDA17CDE90E327D
:10133C00E8E70229E5D11AB243F3C033CDE90E2315
:10134C00DFE7022B24D1CB1E042B04D8DFE803F0FB
:10135C00181010181800012954F8043B4FF0000223
:10136C0014D00229CDE90E32CCD19BB20E93C9E731
:10137C00073424F00704F4E80223CDE90E23C1E777
:10138C0054F8043B0E9300230F93BBE7DBB2CDE77D
:10139C00042B08D1073424F00704D4E900230834C3
:1013AC00CDE90E23AEE7032BACD154F8043BDDE7BB
:1013BC009DF843007828B4D862281CD825283FF41F
:1013CC00ADAD5828ADD10DF136030093DDE90E011A
:1013DC0008AB10AA1BF0D7FFBAF1000F074680F23A
:1013EC009A80002F9DD00DF13603D81B002E00F0F3
:1013FC00C1800130BEE06338152892D801A252F8A2
:10140C0020F000BFE5140000F71400002F130000BB
:10141C002F1300002F1300002F130000F7140000EF
:10142C002F1300002F1300002F1300002F130000A8
:10143C00851500001D150000431500002F1300003A
:10144C002F130000691400002F1300001D1500005D
:10145C002F1300002F1300001D150000BAF1000F10
:10146C000E9F35DB514638461CF010FB07EB000A8B
:10147C00002F3FF456AF00269DF8423013F01002B7
:10148C00059200F0938002305B06119A48BF129BC4
:10149C000492104448BFC018B8F1000F40F3A0806C
:1014AC009DF84020A8EB0008C2F380035007069378
:1014BC0000F19680510640F189803EB15946304684
:1014CC00C84700287FDB069B01351E4630227EE094
:1014DC0038461CF0D4FAC9E70E9B8DF82030002654
:1014EC0008AF0DF1210A0120C6E719075CBFC3F351
:1014FC0000135E01DDE90E2348BF2B26002BBFF63F
:10150C0062AF524263EB4303CDE90E232D265AE71B
:10151C00002658E700269DF840200DF13603DB1B12
:10152C006FF386129A458DF840207FF65AAFAAEBDE
:10153C000303119355E70E9890B30DF13603009306
:10154C0010AA08AB00211BF01EFFBDF8423003F0BF
:10155C00EF0343F4F04343F01003BAF1000F0746D6
:10156C00ADF84230D6DA00283FF4DBAE0DF136038D
:10157C00181A00269A467FE70E9B07293FF6D1AE34
:10158C00DFE801F00C04060C08080C0C1D70C8E612
:10159C001D80C6E6EA17C3E90052C2E61D60C0E62C
:1015AC002E4F064607F1050A052065E71A0748BFC6
:1015BC00013069E70793104606925946C847002840
:1015CC00DDE9062304DA15B0BDE8F08F202243468E
:1015DC001946002903F1FF33ECDC45446D1A98469B
:1015EC002EB159463046C8470028ECDB01359DF832
:1015FC004230DA0601D41B0705D559463020C847BE
:10160C000028E0DB0135059B33B19DF843005946BA
:10161C00C8470028D7DB0135049E2E4405E0594607
:10162C003020C8470028CEDB0135731B002BF6DCBD
:10163C0053463A46594648461BF0EBFE0028C2DB9F
:10164C000544A844A8EB0503002B7FF76AAE594666
:10165C002020C8470028B6DB0135F3E736A402008A
:10166C0002F084BF2DE9F047DFF8588004460746A6
:10167C004FF0010914B93846BDE8F08794FAA4F587
:10168C00B5FA85F509FA05F32E0108EB05156FEA95
:10169C00030A24EA03042B7B002BEBD058F806300A
:1016AC001B694BB94644042273682846196807EA3B
:1016BC000A0700F059FADDE7284698470028D9D1E7
:1016CC00F0E700BFF890020030B51049104889B01F
:1016DC00002227F073FB0F4D0F4900220023CDE9A8
:1016EC00062300240E23CDE90334CDE901440B4B32
:1016FC0000944FF4407228461AF09EFB0849284685
:10170C0027F041FA204609B030BD00BF3117000068
:10171C0060060020D801002080550020211A00000E
:10172C003CA4020001481AF0E1BC00BFC801002033
:10173C002DE9F04780461F480F461CF0EAF8064694
:10174C00002830D000252846BDE8F087237B73B1F4
:10175C002368DB680BB12046984723681B69D3B913
:10176C00636804221968204600F0FEF90136103433
:10177C004C45EBD3B8F1000FE5D0002DE2D0284654
:10178C00FFF770FF0546002FF7D000214FF4A4702F
:10179C001AF0B6FFF1E7204698470028E0D00AFA85
:1017AC0006F31D43E2E7044CDFF8109005464FF0BA
:1017BC00010ADDE7F8470020F890020018910200BA
:1017CC00014B53F8200070476C91020008B503469A
:1017DC0008462BB1044A136000F078FC002008BDC9
:1017EC006FF01500FBE700BF0400002010B5044C9F
:1017FC00237813B903481AF079FC0123237010BD28
:10180C0020500020C801002010B5044608481CF0E8
:10181C0080F85CB1BFF35B8F064B53E8001F0139B6
:10182C0043E80012002AF8D1BFF35B8F10BD00BF54
:10183C00F0470020F44700200020064BBFF35B8FDD
:10184C00014653E8000F43E80012002AF9D1BFF318
:10185C005B8F7047F047002070B5FFF7EDFF084C29
:10186C00084E0546B44200D370BD63685B792BB15A
:10187C0023685B6813B12946204698471034F1E77A
:10188C00F89002001891020010B5044C044920464F
:10189C001BF0D0FE034B1C6010BD00BF7801002074
:1018AC0058910200E8470020084A094808B500236F
:1018BC001370084A1360084A4FF400411360FFF795
:1018CC0085FFBDE80840FFF7DFBF00BF21500020B7
:1018DC001BD90100F0470020F447002001460022EC
:1018EC00014800231BF0C7BE7801002001481BF003
:1018FC0060BF00BF78010020024B014618681BF046
:10190C00AABF00BFE847002001481BF0E0BF00BFA2
:10191C007801002070B5284B187800284BD0FFF7C1
:10192C00E5FF054690B1BFF35B8F244B53E8001FD6
:10193C00013943E80012002AF8D1BFF35B8F204C29
:10194C00204EB4422DD32846FFF7D6FF1E4B1F4C1A
:10195C001B68002B19DD27F02BFA4FF47A72A0FBD1
:10196C00020302FB0131C30BD4E9002043EA4143DB
:10197C009B1A4FEAD13140F2E93261EB00019342FC
:10198C0071F1000101D3FFF767FFD4E9003213F5C1
:10199C007A7342F10002C4E90032BDE87040FFF7EF
:1019AC00B3BF63685B7923B1236829461B68204663
:1019BC0098471034C5E770BD20500020F447002034
:1019CC00F890020018910200F04700205806002001
:1019DC0070B50D4D297861B90120FFF7A9FE0B4CAC
:1019EC000B4EB44206D3FFF795FF0028FBD1012321
:1019FC002B7070BD63685B791BB1236820469B68B4
:101A0C0098471034EDE700BF21500020F8900200F9
:101A1C001891020000212DE9F0470846FFF788FED7
:101A2C00044648B340F267684FF000091AF082FE92
:101A3C001A4B186030B11A4B1B68092B02DD194880
:101A4C001AF054FB184FDFF85CA0002544B1204677
:101A5C00FFF708FE044618B94FF0FF384FF0FF3976
:101A6C00FFF758FF064628B9B5B942464B465046D3
:101A7C001AF05CFB3546E9E74FF0FF384FF0FF39C1
:101A8C00D4E72B689B691BB1002211462846984766
:101A9C001035BD42F5D3E8E7044DFAE7EC470020DA
:101AAC00F4470020C801002018910200F8900200B1
:101ABC0013B518481BF02DFF174B1B787BB14FF05B
:101ACC002003EFF3118483F31288BFF36F8FFFF7BA
:101ADC0021FF84F31188BFF36F8F02B010BD0F4B41
:101AEC001B68002BF9D050B900220023CDE900234C
:101AFC000B484FF4004200231BF04EF8EDE70A2888
:101B0C00EBD1074827F066F9064802B0BDE8104053
:101B1C001AF0ECBAF447002021500020EC470020CA
:101B2C0060060020C801002010B5064B1B68044657
:101B3C0098472146A06004481BF01BFEBDE81040EE
:101B4C00FFF7B6BF0400002078010020044A054BC3
:101B5C009B1AB1EBD30F34BF52F831000020704701
:101B6C0058900200F8900200084BC31A10B41B11D5
:101B7C0044680133237143689A7143681960436860
:101B8C0001225A7110BCFFF731BE00BFF890020061
:101B9C002DE9F04F8FB004AFC1F34A28B8600D4661
:101BAC0091467B600C0DB8F1000F63D0002607F155
:101BBC0014034FF0040B4FF00A0AC7F80C80C7E966
:101BCC0007667E620193CDF808B0CDF800A007F14E
:101BDC001C03F96832464846FEF788FEB0F5006FE4
:101BEC0003461CD36C468AB0D9F8041004AB2648C3
:101BFC00C3E9050140F2FF71D9611A464FF4007137
:101C0C001984224B42F8103F214833464FF41251AD
:101C1C00FFF7BEFFA5462C37BD46BDE8F08FC0F3DD
:101C2C000A0804F11700184420F0070080083B60F4
:101C3C00FFF754FE68F35325044690B13B68154AF0
:101C4C00C7E9083600F1100107F11403F961CDE979
:101C5C0000A3CDF808B0F96807F11C034846FEF75D
:101C6C0045FE68F353257B68B9682A4620461BF06D
:101C7C0086FED0E704F1170020F007008008FFF77C
:101C8C002DFE0446EDE700BF51A402000400000144
:101C9C00A89002005FD901002DE9F04F87B0DDE973
:101CAC001269DDE9105A04460F4693469846A6B3CE
:101CBC001021CDF80090334652460020CDF81490F8
:101CCC00FEF73EFC014605F117000844144B039146
:101CDC0004F007040BF0070BE40020F0070003EA04
:101CEC00412344EA8B1480081C43FFF7F7FD44EAB8
:101CFC000554054640B13EB10399CDF800903346EA
:101D0C0052461030FEF71CFC434622463946284604
:101D1C0007B0BDE8F04F1BF032BE3146D3E700BF31
:101D2C0000FE0F000EB403B503AB014653F8042BB1
:101D3C00044801931BF049FE02B05DF804EB03B0BC
:101D4C00704700BFFFD90100CA0605D48B064CBFF3
:101D5C0002490349FFF7E6BF704700BF91A4020098
:101D6C0090A402002DE9F04F89B09B469DF84830B5
:101D7C000493DDE913930593049B0692DDE9157634
:101D8C0004460D46002B00F0878006F008030793ED
:101D9C001BF0DDFD06F0020A024600284BD08649F6
:101DAC002046FFF7BFFF8046BAF1000F08D016F0AF
:101DBC00440F42D181492A462046FFF7B3FF8044A5
:101DCC0006F001035BB17E4B049A7E4953F8222046
:101DDC007D4B2046002A08BF1A46FFF7A3FF06F0EA
:101DEC000803002B55D0794B049A794953F82220DB
:101DFC002046FFF797FF0546069B2BB175491A46FF
:101E0C002046FFF78FFF0544BBF1000F05D0724948
:101E1C005A462046FFF786FF05444544B9F1000FAA
:101E2C0049D1002F4FD1F30700F1C0803146204635
:101E3C00FFF78AFFB4E08046B6E7684B18680028C5
:101E4C00BDD0674B4FF47A7E1B68B5FBF3F54FF4AE
:101E5C006162B5FBF0F300FB1355B3FBF2FA0EFB1A
:101E6C0005F502FB1A323C21B5FBF0FCB2FBF1F399
:101E7C0000FB1C5501FB13220EFB05F50092B5FB74
:101E8C00F0F55849CDE901C552462046FFF74AFF07
:101E9C0095E706F00805AFE7BBF1010F06D1B9F1E4
:101EAC00000F64D1002F7BD000250CE0B9F1000F9E
:101EBC00F8D04D485CE04D484D494B4622461AF04F
:101ECC00A1FE002F68D0DFF82C91DFF82CA1102F89
:101EDC0031462046B84628BF4FF01008FFF734FFB4
:101EEC004FF0000B5D4545DC059B51461A782046AA
:101EFC00FFF718FF4FF0010B1BF0070F03D14946FA
:101F0C002046FFF70FFFD8453BD9059B514613F8E8
:101F1C000B202046FFF706FF0BF1010BBBF1100F56
:101F2C00EAD1364920464FF0000BFFF7FBFE5A462C
:101F3C00059B9A5CA2F120015F2928BF2E22304913
:101F4C002046FFF7EFFE0BF1010BBBF1100F1DD07C
:101F5C001BF0070F03D149462046FFF7E3FED84597
:101F6C005A46E5D849462046FFF7DCFEEBE71F480A
:101F7C00049DA1E749462046FFF7D4FE0BF1010B67
:101F8C00B0E720492046FFF7CDFEC5E7059BB7EB30
:101F9C000807434405939AD1049B002B7FF443AF6D
:101FAC00204609B0BDE8F04F1BF016BD064A0549A6
:101FBC002046FFF7B7FE39E798A402009CA4020064
:101FCC007C910200BDAA020093A402009091020031
:101FDC00C1A40200C7A40200CBA402000048002048
:101FEC00FC470020A5A4020035DA0100FFD901004E
:101FFC00D7D90100D8A40200D0A40200DAA40200B0
:10200C00DCA40200D6A402002DE9F0410F884B6835
:10201C008E6886B005460C469046C7F382175BB1B6
:10202C00134A9B1A43F3CF0100291FDB2078C0F31E
:10203C00C200FFF78BFD03462146608851F8102B38
:10204C000097C2F34A22002A01EB0204C0F30B10E2
:10205C0008BF0021CDE90308CDE901140022314667
:10206C002846FFF77FFE06B0BDE8F0810023E3E7CA
:10207C005890020073B542F20F738B4228BF0B4687
:10208C0005680F4A0446052168461AF033FE63685A
:10209C000C495B6806460B2228461BF089FC6368DA
:1020AC003246694628465B681BF082FC6368064929
:1020BC005B681B2228461BF07BFC02B070BD00BF86
:1020CC0050B60200FBA40200DFA40200074A002164
:1020DC000123904206D8064A01B901231360054B2F
:1020EC001860704740085B000121F2E740420F0086
:1020FC00FC47002000480020014B01221A70704759
:10210C0022500020014B0020196070471848002015
:10211C00024B034801221A701BF05EBC23500020B6
:10212C00C09102000148FFF7A5BF00BFC09102009B
:10213C0010B5064B18680C46FFF742FB21460346C8
:10214C00BDE8104002480F22184700BF1848002075
:10215C00C091020010B9074B18707047064B1B78E2
:10216C001BB141F2883026F025BEA42000211AF0C4
:10217C00C7BA00BF22500020235000202DE9F8439D
:10218C00DFF874901D4F80460E46042499F80050D9
:10219C0095B919F09FFC28463246414619F048FC87
:1021AC00054619F0A1FCE5B101233B7099F800300C
:1021BC0073B93046BDE8F88332464146002019F029
:1021CC0037FC0546EFE72046FFF7C4FF651E2C469B
:1021DC00002019F075FC0028EBD03B78002BF2D1D5
:1021EC00E7E73B78002BE4D0013C2046FFF7B2FF39
:1021FC003B78002BCAD1DCE7235000202250002072
:10220C00014B00201960704730480020024B0348F6
:10221C0001221A701BF0E0BB35500020EC9102003B
:10222C000148FFF727BF00BFEC91020010B5064B29
:10223C0018680C46FFF7C4FA21460346BDE8104067
:10224C0002480F22184700BF30480020EC910200D2
:10225C00F8B5074F0D4604464618B44201D128463E
:10226C00F8BD14F8011BBB6801485B689847F4E79C
:10227C00B48E02002DE9F84305464FF02003EFF32E
:10228C00118683F31288BFF36F8F0E4B0E4F1C68B1
:10229C00DFF838804FF00C092CB986F31188BFF3A6
:1022AC006F8FBDE8F883D4E90123002D18BF1346C6
:1022BC002BB198F8102009FB02F2B85C98472468FF
:1022CC00EAE700BF4C48002040480020C84F0020DF
:1022DC0070B5194B1C7CBFF35B8F04F01F030122FC
:1022EC009A40164B610903EB8103D04353E8001F5E
:1022FC0001EA000543E80056002EF7D1BFF35B8FCF
:10230C000A4213D00E4B0F4D8BB10C236343EA18CA
:10231C00E85C51781BF0FFFB0020FFF7ABFF0C23B0
:10232C005C432A1900232B51C2E9013370BD83F39E
:10233C001188BFF36F8FEFE7C84F0020544800207F
:10234C0023DB0100404800202DE9F041354B0746C6
:10235C001D7C4FF02003EFF3118883F31288BFF339
:10236C006F8F0C24304B314E6C431A19195D0029B8
:10237C004CD007CA06EB040C8CE8070000221A5557
:10238C0088F31188BFF36F8F0C236B43F218F05C4A
:10239C00002839D07B1C10D0D2F808C0244C254A18
:1023AC004FF400400021ECFB004100232046FDF7D8
:1023BC008FFE0121381A02F06BF81AF0E7F80120B1
:1023CC00FFF758FFBFF35B8F1B4B6A0903EB8203CC
:1023DC0005F01F0101228A4053E8000F104343E827
:1023EC0000010029F8D1BFF35B8F144B3BB10C23D8
:1023FC0003FB05F03318305C59781BF080FBFFF7BA
:10240C0067FF1AF0D7F80120BDE8F0810146284695
:10241C0000F016F80028B3D007C8344484E807004D
:10242C00AEE700BFC84F00203448002040480020D1
:10243C003F420F0040420F00544800200BDB0100CC
:10244C002DE9F04F85B00E4603A900F043F81E4B62
:10245C00039DD3F800A0DFF87480431E1BB203EB7E
:10246C004303044605EB83054FF400474FF0000B84
:10247C0024B9A146484605B0BDE8F08F6868144AF7
:10248C00C4465946E0FB07C100236046FDF720FE19
:10249C000190A8680E4AC4465946E0FB07C10023C8
:1024AC006046FDF715FEBAF1FF3FA94601D0824503
:1024BC0005D9731CDED0019B1844B042DAD9013C1B
:1024CC00A4B20C3DD4E700BF080000203F420F002F
:1024DC0040420F0008B9024B0B600020704700BF50
:1024EC00FC910200014910220A60704710ED00E0D7
:1024FC0072B6404080F31188BFF36F8FBFF34F8FDC
:10250C0030BF62B6BFF36F8F704700BF72B64940E1
:10251C0081F31188BFF34F8F20BF80F3118862B60F
:10252C00704700BF2DE9F047814600AF0C460029EB
:10253C004CD06E468AB0D1E90012A3686D4627488C
:10254C00A8464FF0050AC5E90501C5E9072348F877
:10255C0010AF2348424600234FF42151FFF718FBDC
:10256C00B546D4E903126369AD461E48C5F810A000
:10257C00C5E90501C5E907231948002342464FF474
:10258C002151FFF705FBB54688B0E3696D46164A45
:10259C00A8464FF0030AC5E9052348F810AF1048C8
:1025AC00002342464FF4C251FFF7F2FAB546A36935
:1025BC00AD460E4AC5F810A0C5E90523084800230E
:1025CC0042464FF4C251FFF7E3FAB546214648465E
:1025DC0019F090FABD46BDE8F08700BF54A5020083
:1025EC00D090020083A50200B2A50200C1A5020092
:1025FC0040B2002807DB044A4109012300F01F0008
:10260C00834042F82130704700E100E0054B42095D
:10261C0000F01F0053F82220012303FA00F01040B1
:10262C00704700BF00E100E040B20028A8BF00F1F5
:10263C00604001F10101B8BF064B4FEA4111ACBF3C
:10264C0000F5614000F00F00C9B2B4BF195480F816
:10265C000013704714ED00E030BFFFF7FDBF00BF63
:10266C000B4A08B50B4B22F07F029A60BFF34F8FD9
:10267C00BFF36F8FD3F8882022F47002C3F8882040
:10268C0019F0F4FA1AF0BCF800F0D6FB19F032FB92
:10269C000000000000ED00E0094A0A49936809684F
:1026AC009967094958674B6843F080534B60002386
:1026BC0083F31188BFF36F8F9368986F704700BFD7
:1026CC00C84F00205CA0020000ED00E012498A68AF
:1026DC004FF030001044EFF3098C80E8F01F2020FD
:1026EC0080F31288BFF36F8F0C4F4FF000668A692E
:1026FC008A603E60506F0023536780F3118804B5E5
:10270C00104600F035FCBDE8044002F1300090E8C2
:10271C00F01F8CF309887047C84F002004ED00E0CF
:10272C001EF0040F0CBFEFF30880EFF309808169F2
:10273C0011F8021C0229FFD001B51BF084F901BD70
:10274C0042F8203C009B42F81C3C0A49019B42F891
:10275C00183C029B42F8143C21F001014FF08073AD
:10276C0042F8043C42F8081C0023203A02654367F7
:10277C00704700BF1BCD0100094A0346906870B139
:10278C0013F1160F406E05D0A0F140029A4205D805
:10279C00834203D2814228BF00207047002070473B
:1027AC00C84F002008B5094B0D461446986000F040
:1027BC00DFFB204685F30988002163B681F311887D
:1027CC00BFF36F8F002200231AF0A1FAC84F00202C
:1027DC0001B572B60B4A506900281EBF0021516129
:1027EC0026F0D6F962B6EFF30580A0F110004FEA9F
:1027FC00C0000549014409C99847BDE80140034997
:10280C0008470000C84F0020FC8E02001D28000065
:10281C00044B99689869884203D003494FF0805261
:10282C000A607047C84F002004ED00E02DE9F0412C
:10283C0086B0064600AF0D46474B7B6102244FF431
:10284C00825146483C6107F110021BF00BF9444BD6
:10285C009B6AD9046DD5434B4048C7E9044307F143
:10286C0010024FF482511BF0FDF817203C4B9B6A71
:10287C001A050BD53C4B7B61022338483B6107F1B1
:10288C0010024FF482511BF0EDF81820344CA36A5F
:10289C009B0523D5E846354B7B6102232F483B61D2
:1028AC0007F110024FF482511BF0DCF8A36BA26A03
:1028BC00100412D588B06A462D492848C2E9051380
:1028CC00032342F8103F4FF4C2511BF0CBF8C5461E
:1028DC001EB1A36A23F40043A3621920204B9B6A08
:1028EC0059050BD5234B7B6102231C483B6107F137
:1028FC0010024FF482511BF0B5F81A20184B9A6A4B
:10290C00D20518D51C4B7B61022314483B6107F19F
:10291C0010024FF482511BF0A5F81B20104A936A49
:10292C0043F47F439362183700232B70BD46BDE8F8
:10293C00F08116209AE79B6A9B04EFD50F4B7B61C5
:10294C00022306483B6107F110024FF482511BF041
:10295C0089F81C20E2E700BFEFA50200D09002002E
:10296C0000ED00E005A6020016A6020029A6020052
:10297C0042A6020057A6020072A602008AA6020016
:10298C0010B586B0364B3748059304AA02244FF491
:10299C00825104941BF066F8334B9B6A9A015DD507
:1029AC00324B304804AA4FF48251CDE904431BF05A
:1029BC0059F81E202C4B9B6ADB010AD52C4B29485D
:1029CC00059304AA02234FF4825104931BF04AF896
:1029DC001F20254B9B6A1C030AD5264B21480593C7
:1029EC0004AA02234FF4825104931BF03BF82120DC
:1029FC001D4B9B6A59030AD51F4B1A48059304AA11
:102A0C0002234FF4825104931BF02CF82220164B16
:102A1C009B6A9A030AD5194B1248059304AA022300
:102A2C004FF4825104931BF01DF823200E4B9B6A2C
:102A3C00DB030AD5124B0B48059304AA02234FF46F
:102A4C00825104931BF00EF82420074A936A6FEA14
:102A5C0003436FEA1343936206B010BD1D20A9E730
:102A6C00B9A60200D090020000ED00E0D1A6020051
:102A7C00E4A60200FEA602001CA7020041A7020069
:102A8C005BA702002DE9F04786B0814600AF8A466D
:102A9C009046514B7B61022450483C6107F1100277
:102AAC004FF482511AF0DEFF4D4B9B6ADE0645D582
:102ABC004C4B4A48C7E9044307F110024FF48251CA
:102ACC0011241AF0CFFF464B9B6A1D070BD5464BC2
:102ADC007B61022341483B6107F110024FF48251A4
:102AEC0012241AF0BFFF3E4DAB6A980728D56C46EE
:102AFC003E4B7B6102233B614FF48251374807F117
:102B0C0010021AF0AFFF6E6BAB6A190660D588B075
:102B1C006A46374B3148C2E90536032342F8103F69
:102B2C004FF4C2511AF09EFFA546BAF1000F03D024
:102B3C00AB6A23F08003AB62132403E01024C2E7DA
:102B4C006FF01506264B9B6ADA070BD5294B7B6178
:102B5C00022322483B6107F110024FF482511424E6
:102B6C001AF080FF1E4B9B6A9B060BD5224B7B6198
:102B7C0002231A483B6107F110024FF482511524CD
:102B8C001AF070FF164B9A6AD50602D49A6A90070F
:102B9C000AD55B68190507D549463046FFF7ECFDA9
:102BAC0010B180F3098802240D4B9A6A920642BF39
:102BBC005A6A22F400525A629A6A42F0FF029A62EE
:102BCC0020460023183788F80030BD46BDE8F08752
:102BDC006FF01506B0E700BF86A70200D090020088
:102BEC0000ED00E09CA7020016A60200CFA7020091
:102BFC00E7A70200FDA702008AA602002DE9F04318
:102C0C00774B8BB0D3F8048000AF0546C8F30804AB
:102C1C00002686F31188BFF36F8F02F07F43B3F168
:102C2C007F4F0ED102F00C03082B19D16D4BFB61B9
:102C3C0002236D48BB6107F118024FF482511AF060
:102C4C0011FF002635460023FB71E31E092B00F211
:102C5C00A680DFE803F00A999C95A4A4A4A4A49FE1
:102C6C0010074CBF0D460126EDE7E9465F4BFB61B3
:102C7C004FF0020807F118025B48C7F818804FF4B0
:102C8C0082511AF0EFFE0023554CFB71E36A9A0750
:102C9C000BD5574BC7E90683534807F118024FF47D
:102CAC0082511AF0DFFE002441E0E36A002B01DAC6
:102CBC00504BEFE7E36A5B00F5D54F4B4A48C7E949
:102CCC00068307F118024FF482511AF0CBFE6369A8
:102CDC00AA6943F480736361BFF34F8FBFF36F8FA7
:102CEC00636932F8022C23F480736361BFF34F8F56
:102CFC00BFF36F8F4DF602739A4208D0A36ADBB212
:102D0C008BB3FA1D01212846FFF7BCFE3AE088B0D0
:102D1C002B686A4639493448C2E90513032342F843
:102D2C00103F4FF4C2511AF09DFE2C68CD46FB7932
:102D3C00ABB92022294607F108001AF0BCFE7B6AC9
:102D4C00002E47D0C3F3080222B96FEA53236FEA6F
:102D5C0043237B6207F108012046FFF7E3FB2C3786
:102D6C00BD46BDE8F083A36A13F47F4F04D0F91D70
:102D7C000120FFF75BFD05E0A36AB3F5803F92D31A
:102D8C00FFF7FEFD0446D2E7FA1D0021BBE7F91D53
:102D9C000020EEE71A4BFB610223BB617CE7194A6A
:102DAC00194B18F4F87FE8468AB018BF13466A46E8
:102DBC0016490D48C2E905134FF400731384103CF7
:102DCC00134BD4614FF4115142F8103F1AF04AFEE4
:102DDC00C54668E723F4FF7323F00103B9E700BF8E
:102DEC0000ED00E04AA80200D090020075A8020095
:102DFC008CA80200ADA80200BBA80200DAA8020051
:102E0C00F6A8020031A802001CA802001AA90200B0
:102E1C0004000001024A536943F0100353617047E8
:102E2C0000ED00E0EFF30880EFF3098101B5724685
:102E3C00FFF7E4FE01BD00BF044800232021C218A7
:102E4C000133272B82F80013F9D1704700E100E021
:102E5C00002080F31488BFF36F8FFEF701FC002075
:102E6C000D490860BFF34F8F0C4880F3088800F0C1
:102E7C002BF8202080F3118809484FF40461401886
:102E8C0080F30988EFF314800221084380F314883F
:102E9C00BFF36F8FFFF7E4FB94ED00E0806A002036
:102EAC00C05800200749D1F890200023C2F3072214
:102EBC001846934200DB7047C1F89830C1F8A00067
:102ECC000133F6E700ED00E008B572B6002383F39A
:102EDC001388FFF7E7FF144B4FF0FF32C3F8802045
:102EEC00C3F88420C3F88820C3F88C20C3F8902042
:102EFC00C3F89420C3F89820C3F89C20C3F8802111
:102F0C00C3F88421C3F88821C3F88C21C3F890211D
:102F1C00C3F89421C3F89821C3F89C2162B6BFF37F
:102F2C004F8FBFF36F8F08BD00E100E0084B9B682B
:102F3C0083420BD1EFF3058343B1064B5A6842F041
:102F4C0080525A605A6A22F400425A6219F0F8BB55
:102F5C00C84F002000ED00E0024B034A034801215A
:102F6C0000F092B80000012000000020FC9102004B
:102F7C00426E054B403A1A60044A4021C3E90112E3
:102F8C001846012100F08AB85848002000000B15A3
:102F9C002DE9F041DFF8B4E09C4600AF1546002364
:102FAC008B421ADA4468002C4DD0BCF1000F1DD0B6
:102FBC00661E344215D06C4688B06A462449C2E974
:102FCC000513032342F8103F224800234FF4C2514B
:102FDC00FEF7DEFD6FF01505A5462846BD46BDE89B
:102FEC00F0811F2CE7D902681642E4D1202C02682C
:102FFC0086685FFA85F814D9B4F1004F13D8013CF8
:10300C00B4FA84F4C4F11F046400B8F1070F46EA63
:10301C0004060AD96C4688B06A460F4BC2E90535DE
:10302C00CFE70824F1E73E24EFE722F01F022A4302
:10303C0042F0100246F00106CEF89850CEF89C20D3
:10304C000135CEF8A06001330C30A9E700ED00E0AB
:10305C0031A90200C890020054A90200044B0522B9
:10306C00C3F89420BFF34F8FBFF36F8F704700BF2F
:10307C0000ED00E0BFF35F8F024B0022C3F89420F9
:10308C00704700BF00ED00E010B5034C012322781F
:10309C00FFF77EFF207010BD3650002008B5094A9E
:1030AC0000231278FFF774FF10F1160F03D0064BB4
:1030BC000022072800DD08BDC3F89800C3F8A02043
:1030CC000130F6E73650002000ED00E014490868A6
:1030DC00082810B521D8FFF7CDFF124C4968002203
:1030EC00904201F10C0105D10F4B1870FFF7B6FFA0
:1030FC00002010BDC4F8982051F80C3C23F01F039D
:10310C00134343F01003C4F89C3051F8043C43F0D3
:10311C000103C4F8A0300132E2E74FF0FF30E8E7DA
:10312C000892020000ED00E036500020014B1860C0
:10313C00704700BF0C0000200CB410B586B009B964
:10314C000DF10B000024CDE9040109AB089A0094A1
:10315C0004A905480393FDF7D1FE049B1C7006B02F
:10316C00BDE8104002B07047F1DA01000EB410B5A2
:10317C0087B009AB00246FF0004153F8042B049086
:10318C000591009404A905480393FDF7B7FE049B31
:10319C001C7007B0BDE8104003B07047F1DA0100B5
:1031AC0010B586B009B90DF10F000024CDE904016A
:1031BC00009404A90348FDF7A1FE049B1C7006B003
:1031CC0010BD00BFF1DA01004FF02003EFF31182C4
:1031DC0083F31288BFF36F8F06490123C1F8403582
:1031EC004FF08041C1F8783582F31188BFF36F8FAF
:1031FC000020704700E001404FF08043C0B2C3F89C
:10320C001C05BFF34F8F0549054BCA6802F4E062F9
:10321C001343CB60BFF34F8F00BFFDE700ED00E021
:10322C000400FA0520B1034B800143F00103184759
:10323C00704700BF50910200084B70B5C31A0D4681
:10324C0007499B1004465943064840221AF085FC56
:10325C002B4601462046BDE87040184778480020B0
:10326C00B76DDBB6848E020073B50C4C0C4A402350
:10327C00041B00930D460B460A49A41061430646F5
:10328C0009481AF096FC011E05DA30462B4602B0AE
:10329C00BDE87040184702B070BD00BF78480020F0
:1032AC0029DC0100B76DDBB6848E020010B54FF03F
:1032BC002003EFF3118483F31288BFF36F8F074A57
:1032CC00136823F00201DB07116002D401201AF00D
:1032DC00A5FE84F31188BFF36F8F10BDC848002082
:1032EC00002270B5012104461046FFF79DF90F48E6
:1032FC0001F01CFB0E4B984215D11AF082FE266988
:10330C000C49304619F0B6FF00280BDB012535645B
:10331C002469084904F11C0019F0ACFF002801DBFA
:10332C00E564002070BD6FF00400FBE7793300000A
:10333C000000AD0B2892020070B501460C23094821
:10334C004B43C418D4E90E56403300221844A263F0
:10335C001AF0F0FB2DB132462B460348BDE8704005
:10336C00184770BD78480020848E020010B10128E7
:10337C0004D07047034B1B6C5B0701D1FFF7DCBF1C
:10338C00704700BF7848002008B54FF02003EFF3DA
:10339C00118183F31288BFF36F8F124A136843F0C5
:1033AC0002001060DA0708D481F31188BFF36F8F25
:1033BC000120BDE8084001F0C9BA4FF08043D3F8B2
:1033CC000C24D3F80C34D307EED507481AF0B2FB13
:1033DC0081F31188BFF36F8F0020BDE80840FFF721
:1033EC00ABBF00BFC8480020B84800201FB5002262
:1033FC000123CDE90223094ACDF800D06B46CDF864
:10340C0004D01AF004FC002805DB4FF480420023A2
:10341C00684618F08BFE05B05DF804FB41DC01003A
:10342C0010B5074C23782BB94FF4A57025F0C2FCCE
:10343C0001232370BDE81040002001F087BA00BFC3
:10344C00375000202DE9F0413849BFF35B8F074618
:10345C00012251E8003F41E800200028F9D1BFF3D8
:10346C005B8F33B9324933484B60CB608A6019F0BB
:10347C0014FF7B1E012B2BD8012F07D14FF080435B
:10348C00D3F81C3403F00303012B21D025F075FB7A
:10349C000546F8B9284B1B78E3B14FF08043022264
:1034AC00C3F808230646DFF894804FF08044D4F824
:1034BC001834D4F81824D20316D503F00303012BC7
:1034CC0001D0012F10D15DB386F31188BFF36F8F3C
:1034DC00BDE8F0814FF02003EFF3118683F31288DF
:1034EC00BFF36F8F0125DEE7ADB13046FFF70EF865
:1034FC00D4F81835002BDAD1D4F80421002AD6D010
:10350C00C4F80431D4F804310123C4F81835C8F8D0
:10351C008031A360CBE70021212019F0F1F8E7E717
:10352C004FF080430222C3F80423D1E774480020F3
:10353C0064480020944800206255002000E100E01F
:10354C0008B5074825F00AFB38B10648FFF7EEFD31
:10355C000448FDF7A9FB002008BD6FF01200FBE743
:10356C00B48E0200753500000A2838B5074D0446A4
:10357C0004D1AB680D215B6828469847AB680348BB
:10358C005B68E1B29847204638BD00BFB48E02009C
:10359C0010B50C461022002120461AF097FA044A66
:1035AC000423C4E900230122A260237310BD00BFD1
:1035BC00800040007FB5074B05930748022304AAFF
:1035CC004FF4825104931AF03BFB6FF0850007B067
:1035DC005DF804FBB6A90200E89002007FB5074B2A
:1035EC0005930748022304AA4FF4825104931AF05E
:1035FC0027FB002007B05DF804FB00BFB6A9020052
:10360C00E89002007FB5074B05930748022304AAF4
:10361C004FF4825104931AF013FB6FF0850007B03E
:10362C005DF804FBB6A90200E89002007FB5074BD9
:10363C0005930748022304AA4FF4825104931AF00D
:10364C00FFFA6FF0850007B05DF804FBB6A9020025
:10365C00E8900200F0B50546B3F808C0988889B028
:10366C0084450E9E0DD2254B2548079306AA0223AE
:10367C004FF4825106931AF0E3FA4FF0FF3009B081
:10368C00F0BDDF881B6807FB00F4E4109C4228BFE8
:10369C001C4606B10CB91B4BE6E7844501D91A4B05
:1036AC00E2E7530701D0194BDEE72023ADF80030D9
:1036BC0021238DF8023022238DF80530D3088DF8A4
:1036CC000630D319C9B20138DB108DF80310013B59
:1036DC0001448DF804108DF8073068680123082226
:1036EC0069461AF0B6FA034608B1094BBCE768689C
:1036FC00224631461AF0ADFAC1E700BFC2A902005A
:10370C00E8900200DEA90200FEA902000FAA020046
:10371C0022AA0200F0B589B0456800AF04462868BB
:10372C0025F01CFAC8B92B686C4688B01B686A4631
:10373C0055495648C2E905134FF400739383544B13
:10374C0042F8103F4FF4E2511AF07AFA6FF0150577
:10375C00A54628462437BD46F0BDA868C0B96568A3
:10376C004AF2A473BB80AB6883BB20461AF09EFA66
:10377C0000283DD0474BFB6102234448BB6107F155
:10378C0018024FF482511AF05BFA6FF00405E0E76F
:10379C00297BEB89D0F810C0D0F808E0DCF8005099
:1037AC00DA0754BF43F4B01383F4D013012623F487
:1037BC0080128E40DB074CBF3543B543CCF800502C
:1037CC00DEF800309847051EC9DAC2E7002108353B
:1037DC00212018F095FF012128461AF081FA0021CA
:1037EC00212018F08DFF002128461AF079FABCE749
:1037FC00294B18689B88B860BB816068012306223E
:10380C0007F108011AF025FA0028B3D1234B1868E8
:10381C009A889B79B860BA81BB73606801230722D0
:10382C0007F108011AF015FA0028A3D14CF6A103F0
:10383C003B8160680123022207F108011AF009FAA2
:10384C00002897D1164B60681A889B783A81BB7216
:10385C000322012307F108011AF0FBF9002889D192
:10386C00606801230222391D1AF0F3F9002881D176
:10387C00802120461AF00BFA054600287FF47AAF17
:10388C0020461AF020FA64E73AAA0200E8900200F7
:10389C000300000153AA020070AA02002891020042
:1038AC0077AA020030B54068057B01F01F04B2F521
:1038BC00001F85B044EA451405D1204601F00AFBEF
:1038CC00002005B030BD0025B2F5800FCDE90255C2
:1038DC0014D1B3F1007F0CBF042305238DF80830FD
:1038EC000023194602AA204601F02AF91D4B9842E2
:1038FC0035D10121204601F0A9FAE1E7B3F1C06FFF
:10390C0022D0B3F1007F14BF012302238DF80830BD
:10391C008368CB40D907E3D4B2F1A07FE0D104F0A7
:10392C001F0303F5E0734FF0A04252F82330DB077E
:10393C00D6D40DF107052946204601F033FA0A4B7F
:10394C00984203D00395CBE70323DFE7284601F029
:10395C0077FA044B9842F5D06FF00B00B1E76FF09B
:10396C001500AEE70000AD0B0400AD0B10B501F077
:10397C0057FA044668B901F02BFA084B98420AD161
:10398C000748214601F008FA224605210620FEF7D9
:10399C004BFE002010BD6FF00400FBE70000AD0BE8
:1039AC00B1390000430970B507D10B4B596821B1EF
:1039BC0001250C68094E854001B970BD8A682A4002
:1039CC0002D04B68304698471CB1236821461C46F0
:1039DC00F2E72346FAE700BFCC4800209C8E020099
:1039EC002DE9FF4147683B7B01F01F0545EA431574
:1039FC000E4628460DF10301144601F0D3F914F4D8
:103A0C00403F80460BD1284601F08CFA3D4B98453F
:103A1C0003D19DF8030001F00DFA00200CE0002307
:103A2C00194602AA2846CDE9023301F089F8354B34
:103A3C00984204D06FF0150004B0BDE8F0818045C9
:103A4C0003D19DF8030001F0F5F9A3034BD540F227
:103A5C0006332340B3F5837F19D00CD8062B17D02F
:103A6C0004D8ABB1022BE5D1042311E0B3F5807F70
:103A7C00E0D101230CE040F20222934227D0B3F5AF
:103A8C00407F26D0B3F5007FD4D1022300E007237A
:103A9C008DF8043084F48033C3F30043E0068DF8D2
:103AAC00053054BFC4F34013032321038DF80630B3
:103ABC0011D57A680123B340C2F80835002201A958
:103ACC00284601F0EBF80F4B9842A6D0B2E705233D
:103ADC00DEE70323DCE7620341BF01237A68B340CE
:103AEC00C2F80C35EAE7E3064FF0000354BFC4F309
:103AFC00401403241A4601A928468DF8044001F00D
:103B0C001FF8E0E70000AD0B08B543681B68D3F85D
:103B1C000805D3F80C1501F025FD034B984214BF92
:103B2C006FF00F00002008BD0000AD0BB0B50446CF
:103B3C0082B0002200AF01210320FEF775FD6368FF
:103B4C009D693A1D002128461AF033F9002827DB1D
:103B5C007B682A68197918681AF03EF900281FDB6F
:103B6C0060682369114A00F1080101F0A1FB104BB8
:103B7C00984218D023686C4688B06A460D49C2E951
:103B8C0005134FF4007393830B4B42F8103F0B4813
:103B9C0000234FF4E251FDF7FBFF6FF00F00A54639
:103BAC000837BD46B0BD0020FAE700BFCD3B000092
:103BBC000000AD0BA0AA020003000001A0900200BF
:103BCC000378012B08D0022B08D04BB9054B0B62A4
:103BDC0001F1100018F08ABA034BF8E7034BF6E733
:103BEC00034BF4E70000AD0B0100AE0B0200AE0B73
:103BFC000100AD0B10B511F001034268046986B0E9
:103C0C000FD1C1F3420001280ED0022815D00D4A65
:103C1C000592022204920C4804AA4FF48251FDF73B
:103C2C00B7FF6FF0150006E013684FF0CC72C3F8C5
:103C3C0024250020616206B010BD13684FF0CD62E0
:103C4C00F5E700BFC0AA0200A09002002DE9F04FDA
:103C5C008BB000AF06460C469246BB60D0F8049081
:103C6C00D0F810804FF0FF324FF0FF33404618F081
:103C7C005DFA08F11003FB600022002308F110002C
:103C8C0018F054FA484601F067FBDFF804B1002540
:103C9C00554501D3002453E0237A3B6013F008010F
:103CAC0072D1122207F11600796019F00FFF3B68F0
:103CBC006068B968B86103F001022068797513F087
:103CCC00020F79683A75386216D10AF1FF33AB42AC
:103CDC0002D9237D5B0711D5002A55D1202207F18B
:103CEC001401484601F064FB584509D0294B984211
:103CFC0024D16FF00F0423E00A46F0E74022EEE7F0
:103D0C000023F8684FF4804218F010FA034610B301
:103D1C006C4688B06A46204BC2E90535032342F84D
:103D2C00103F1E4800234FF4C251FDF731FF4846A7
:103D3C00A54601F021FB3046FFF7E6FE6FF00404C8
:103D4C00484601F019FB404618F0D0F920462C37B4
:103D5C00BD46BDE8F08FD8F82010594504F10C048D
:103D6C0010D06C4688B06A460D48D561C2E9050191
:103D7C00042142F8101F09484FF40151FDF708FFC8
:103D8C00A546DBE7013583E76FF08504D8E700BF74
:103D9C000000AD0B0B00AD0BD2AA0200A0900200EC
:103DAC00FCAA020070B54B79012B20D18B79032B27
:103DBC001DD1CD790DB1012D19D10A7912B1022A7B
:103DCC0015D10E220B684468B3F5164F266864D0E3
:103DDC002BD8B3F5165F63D014D8B3F5966F61D0BA
:103DEC0008D8B3F5967F60D0B3F5167F60D06FF02E
:103DFC00850051E0B3F5166F5DD0B3F5965FF6D143
:103E0C00374B3CE0B3F5E14F58D007D8B3F5615FC1
:103E1C0056D0B3F5964FEAD1324B30E047F6122428
:103E2C00A342E4D14FF4000329E0B3F5613F49D03C
:103E3C0013D8B3F5963F48D009D84DF6C024A34209
:103E4C0045D0B3F5614FD2D14FF46B0317E0B3F506
:103E5C00E13FCCD14FF0EB7311E0B3F5612F39D0CA
:103E6C0008D8214CA34238D0B3F5E12FBFD14FF085
:103E7C00E86304E01D4CA342B9D14FF080530469B0
:103E8C00C6F8243543681B682A43C3F86C2503C95C
:103E9C00231D83E80300002070BD4FF41D03EEE7E3
:103EAC00134BECE74FF49E23E9E74FF4A033E6E71E
:103EBC004FF41C33E3E74FF41D23E0E70D4BDEE733
:103ECC000D4BDCE74FF06C73D9E70C4BD7E74FF495
:103EDC006503D4E74FF07063D1E74FF08063CEE712
:103EEC0000B0130000A04E0090D0030040420F0021
:103EFC000050270000C0750000F03A0000903A0115
:103F0C002DE9F043002287B0804601210220FEF704
:103F1C008BFB0220FEF76CFBD8F80470D8F810600D
:103F2C003C680021C4F80015C6F80080D7F80C9046
:103F3C006A46484619F03DFF051E25DB009BD9F863
:103F4C0000201979186819F047FF051E1CDB311D7C
:103F5C004046FFF727FF0546B0B97B6899072BD57C
:103F6C0006F1180001F0AAF8274B984210D0274B05
:103F7C0005930223049326482B4604AA4FF482513E
:103F8C006FF00405FDF704FE284607B0BDE8F0838A
:103F9C00337EDB0003F1804303F5F83304F10C02AC
:103FAC0004F59071C3F81015C3F81425327E012363
:103FBC009340184AC2F804350823C4F800353B7AFC
:103FCC0053B9C4F81031D4F810317369C4F83435CE
:103FDC000123C4F8383523607B689A075CBF4FF423
:103FEC008073C4F804337B68DB0644BF4FF4800352
:103FFC00C4F804333369C4F844350023C4F8483595
:10400C000123A360E360BFE70000AD0B3BAB0200F4
:10401C00F090020000F00140F8B5044607690D4627
:10402C0024F0ABFDB0B92E4B1B789BB164266068B5
:10403C0019F07CFF00BB012019F0E1FF013EF6D125
:10404C000021212018F05CFBF0E786F31188BFF308
:10405C006F8FF5E74FF02003EFF3118683F312888F
:10406C00BFF36F8F6068314619F060FF90B986F32B
:10407C001188BFF36F8FEDE74FF02003EFF311863C
:10408C0083F31288BFF36F8F6068314619F04EFFCF
:10409C000028DAD03B691D70626838691368C3F870
:1040AC0044050120C3F848050020C3F82001D3F8CB
:1040BC002051C3F858015268D3F85801D20608D5DC
:1040CC00626812680820C2F800054FF48002C3F839
:1040DC00042301229A6081F31188BFF36F8FF8BD1E
:1040EC006255002070B5012383400E4ABFF35B8FED
:1040FC00DC4352E8001F01EA040542E80056002E9A
:10410C00F7D1BFF35B8F4FF4803282400648C0F882
:10411C000823BFF35F8FBFF36F8F0B4214BF0120D7
:10412C00002070BDDC4800200010014070B40E4926
:10413C00D1E90034D01AC31844F1000422F07F46B0
:10414C00C1E90034A6F50013B3F5400F09D2074BB3
:10415C001B681A0A1B069C19054B42F10005C3E9A2
:10416C00004570BC18F022BCA8060020E0480020D6
:10417C00B006002011B3BFF35B8F0123104A8340BC
:10418C0052E800CF4CEA030C42E800C10029F7D1F9
:10419C00BFF35B8F0B4A4FF480338340C2F8043378
:1041AC00094BBFF35B8F1B68BFF35B8FC340DB070F
:1041BC0042BF064B4FF40032C3F80021704700BFDA
:1041CC00DC48002000100140D848002000E100E04D
:1041DC000D4B1868010A0006BFF35F8F0B4BD3F829
:1041EC000435181841F10001B3F5801F0AD2084BB1
:1041FC00D3E90023904271EB030303D210F18070DA
:10420C0041F10001704700BFE04800200010014060
:10421C00B00600202DE9F74F16461F460446FFF75F
:10422C0061FF0090FFF7D4FFB04271EB070351D24E
:10423C003A4B301A67EB0101984271F100016AD2D6
:10424C00374B03EB0413D3E902239F4208BF96427A
:10425C004ED034494FF4803904F1500509FA04F971
:10426C00AD00C1F848932046ADB219F0A9FE26F076
:10427C007F4B05F1804504F5A8732B4A019305F596
:10428C008835DC464FF0030A019B2CF07F4041F847
:10429C002300C1F84493D1F804856FF00200A0EB21
:1042AC000800604420F07F40904221D9286860B11A
:1042BC00D1F80485A8EB0B0020F07F40B0F5000F7F
:1042CC0016D9204619F07CFE174A0AEB080C0AF1A5
:1042DC00010AD9E70123154ABFF35B8FA34052E8CB
:1042EC00000F184342E800010029F8D1BFF35B8F9F
:1042FC000B490C98230101EB0412C2E90267C85068
:10430C000D9B5360002520460099FFF733FF28468C
:10431C0003B0BDE8F08F6FF01505F4E701008000E5
:10432C009806002000100140FDFF7F00D8480020B7
:10433C0073B51B4C1B4BC4F80833C4F848331A4BE9
:10434C0000254FF0FF304FF0FF31C4F80855C3E99A
:10435C0002014FF48033C4F80433144B02264FF49B
:10436C0000320121C4F804631120C3F880212A46CD
:10437C00FEF75AF91120FEF73BF90D4A0123A36011
:10438C00236013600B4B0C4A0093019500232846C5
:10439C00FFF740FF3046FFF755F8284602B070BDD6
:1043AC000010014003000F009806002000E100E01F
:1043BC00DC48002039410000FFFF7F002DE9F74366
:1043CC002F4CD4F8043399070BD5D4F8043143B1EE
:1043DC002C4A0023C4F80431D4F804311368013397
:1043EC001360D4F80433DA032AD5BFF35B8F264B62
:1043FC0053E8002F22F0010143E800100028F7D108
:10440C00BFF35B8FD30702D4D4F84031C3B100257E
:10441C00C4F84051D4F84031FFF7DAFE4FF02003D6
:10442C00EFF3118283F31288BFF36F8F174BD3E92D
:10443C000267B042B94106D282F31188BFF36F8F85
:10444C0003B0BDE8F0834FF0FF384FF0FF39C3E9FC
:10445C000289D3E900101D604FF48033C4F848334F
:10446C00C4F84051D4F8403182F31188BFF36F8FF8
:10447C000029E5D0009032463B4628468847DFE7C6
:10448C0000100140E0480020D84800209806002089
:10449C00431C13B522D0012822DD124A124B904244
:1044AC00D4BF04461C46FFF793FE104B0E49D3E9CC
:1044BC000023801AB0F5000F28BF002404448C425E
:1044CC0028BF0C46A2180A4900914FF00000019039
:1044DC0043F10003FFF79EFE02B010BD024CE2E771
:1044EC000124E0E7FEFF7F00FFFF7F00A80600200D
:1044FC003941000008B5FFF76BFE024B1B68C01A70
:10450C0008BD00BFA80600207FB5FDF761FA074B78
:10451C000593022304930648002304AA4FF4825106
:10452C00FDF736FB0020FEF767FE00BF78AB0200FC
:10453C00909002004FF0704393F8E02F062A09D1B7
:10454C00D3F8E83FC3F30313033B042B02D8024A0E
:10455C00D05C704700207047A4AB0200024AD2F82E
:10456C000034002BFBD0704700E0014010B519F06F
:10457C0037FD40B14FF080538E4AD3F82433C3F348
:10458C000423C2F84035FFF7D5FF10B18A4B8B4A94
:10459C005A6719F025FD48B14FF080534FF0804217
:1045AC00D3F84432C3F34233C2F83C35FFF7C2FFB1
:1045BC0030B1834AD2F8FC3023F08073C2F8FC305F
:1045CC0019F00EFD40B14FF080430022C3F80C21CE
:1045DC00C3F81021C3F83825FFF7ACFF20B14FF01A
:1045EC0080430322C3F8A025FFF7A4FF60B1754BED
:1045FC000522C3F810260122C3F888260022C3F82E
:10460C0018263F22C3F814264FF08053D3F83021DC
:10461C00511C09BF4FF07043D3F8343193F8E02F9D
:10462C00D3F8E83F08BFC3F30313062A4DD1033B6D
:10463C00042B03D8644AD35C002B46D04FF0805235
:10464C00624BD2F80414C3F82015D2F80814C3F83E
:10465C002415D2F80C14C3F82815D2F81014C3F88A
:10466C002C15D2F81414C3F83015D2F81814C3F85A
:10467C003415D2F81C14C3F84015D2F82014C3F822
:10468C004415D2F82414C3F84815D2F82814C3F8EA
:10469C004C15D2F82C14C3F85015D2F83014C3F8BA
:1046AC005415D2F83414C3F86015D2F83814C3F882
:1046BC006415D2F83C14C3F86815D2F84014C3F84A
:1046CC006C15D2F84424C3F8702519F089FC48B154
:1046DC004FF080534FF08042D3F8583203F04F0321
:1046EC00C2F8E43E19F07CFC48B14FF08043D3F89B
:1046FC000024D20744BF6FF00102C3F800244FF02E
:10470C008053D3F83021062A26D1D3F83431033B19
:10471C00042B02D82E4AD35C63B12E4AD2F83C3714
:10472C0043F48063C2F83C374FF08053D3F83031F8
:10473C00062B11D14FF08053D3F83431033B042BAB
:10474C0002D8254AD35C3BB14FF01023D3F8082292
:10475C004FF08043C3F858254FF01023D3F80022B4
:10476C00002A03DBD3F80432002B22DA1B49012385
:10477C004FF01020C1F804351524FFF7EFFEC0F8F8
:10478C000042FFF7EBFEC0F80442FFF7E7FE002300
:10479C00C1F80435FFF7E2FEBFF34F8F0849104B09
:1047AC00CA6802F4E0621343CB60BFF34F8F00BFC3
:1047BC00FDE710BD0030014000C007400DF0ADBA60
:1047CC0000ED00E0005000409FAB020000C0004034
:1047DC009AAB02000010004095AB020000E00140D3
:1047EC000400FA0570B501250268BFF35B8FB2FABD
:1047FC0082F3C3F11F03DBB205FA03F422EA0404CB
:10480C0050E8006F964204D140E8004CBCF1000F18
:10481C00F6D1BFF35B8FE7D101480B7070BD00BFC1
:10482C000000AD0B10B50368CB40DB0714D401239B
:10483C008B400268BFF35B8F43EA020150E8004FE4
:10484C00944204D140E8001CBCF1000FF6D1BFF338
:10485C005B8FEED1014810BD0148FCE70000AD0BA9
:10486C000400AD0BF7B5044618B1012822D003B0F3
:10487C00F0BD4FF080430222C3F80823C3F80401B3
:10488C00D3F804210122DA60074601238DF80730A2
:10489C0042F210754FF08046CCB1012CE7D1C7B372
:1048AC00D6F80C3403F001033B70D6F80C34DA0361
:1048BC0021D516E04FF080430022C3F80803C3F85B
:1048CC000021D3F8002158600DF10707DDE7B7B1DF
:1048DC00D6F8183403F003033B60D6F81834D80329
:1048EC00C5D59DF80700012803D119F088FB013DBF
:1048FC00D2D1012CBBD10C4B00225A71B7E7D6F8A0
:10490C001834D903B3D5012019F079FB013DF6D148
:10491C00ADE7D6F80C34DB03EDD5012019F06FFBB5
:10492C00013DF6D1E7E700BFE4480020044B1A79BB
:10493C0022B9012218609A800248704702487047D9
:10494C00E44800200000AD0B0C00AD0B38B510B1E5
:10495C00012843D038BD4FF08042D2F81834D2F839
:10496C001814C8030BD4D2F81434D9070FD5D2F8C5
:10497C001C349B0708D40223C2F80433EAE703F083
:10498C000303012B04D013B10020FFF76BFF0023AE
:10499C004FF08042C2F818350023C2F80431D2F827
:1049AC0004310223C2F80433124AD2F8FC0040F05E
:1049BC008073C2F8FC30104B1C6844F00101196084
:1049CC005D685968491BB1F50A5FFAD31C604FF05A
:1049DC008043C2F8FC0001229A60BBE74FF0804391
:1049EC000022C3F80021D3F80021C3F80403186097
:1049FC00B0E700BF00ED00E0001000E010B54FF094
:104A0C008043D3F800216AB10022C3F80021D3F807
:104A1C0000210122C3F80823114B587910B95A719F
:104A2C001B6898474FF08043D3F8042172B10022E1
:104A3C00C3F80421D3F80421D3F81824D3F818149C
:104A4C00920704D10122C3F818259A6010BD0222E6
:104A5C00C3F80823024BBDE810401B68012018471F
:104A6C00E4480020034B083033F81000C0F340102A
:104A7C00704700BF7C00002070B500F108030C4C9F
:104A8C0034F81330DA0505460E4607D5C3F3432335
:104A9C0004EBC30254F8333052689847A3682BB127
:104AAC00E26831462846BDE87040184770BD00BF2B
:104ABC007C00002010B4124A083032F81030D905AE
:104ACC001BD5C3F3432123F4F85322F8103002F121
:104ADC000E04002034F8023F13F4807F03D0C3F39C
:104AEC004323994209D001302028F3D1002342F806
:104AFC003130044810BCFFF795BE10BC704700BFA6
:104B0C007C000020D000002038B50246FFF7AAFF39
:104B1C00094C02F1080540B134F8153007495B0B1C
:104B2C0003F5A273002041F823001046FFF7C2FFE3
:104B3C00002324F8153038BD7C00002000600040B4
:104B4C002DE9F34104461D4609B34F4F00F1080807
:104B5C0037F81860B30706D5FFF784FF18B14B4838
:104B6C0002B0BDE8F08104F01F039B0003F1A043E9
:104B7C000978D3F8000726F0020620F00F0046F063
:104B8C00010640EA810127F81860C3F800179AB1B2
:104B9C003D4B1778506804F1080633F8161011F0E5
:104BAC00020F0DD00028DAD133F8162022F01C02A7
:104BBC0042EA870223F81620002D3BD13448CFE778
:104BCC0021F02001C904C90C23F816100028EBD0E1
:104BDC00032FC4D8526892F800C02FB92D4A0CF597
:104BEC00A27C42F82C70DFE74FEA8C0202F1804283
:104BFC0002F5C04241EA4C31D2F8100520F0030016
:104C0C00C2F81005D2F8100520F4473020F440709B
:104C1C00C2F810052002D2F810E500F4F85040EA72
:104C2C00074040EA0E0041F0200123F81610C2F8AC
:104C3C001005B9E7D5E900672046FFF73BFF002ECA
:104C4C00BCD0114DD5E90023964201D19F4219D019
:104C5C0011480DF10701FFF7C5FD0D4B98427FF48C
:104C6C007FAF9DF8072045F8326005EBC20308348E
:104C7C005F6035F8143043EA422343F4807325F81F
:104C8C0014309BE70022EEE77C0000200400AD0B03
:104C9C000000AD0B00600040D0000020F8B50446C9
:104CAC0089B33A4E00F1080736F81750AB0704D415
:104CBC00FFF7D8FE08B13648F8BD15F01C0F4B783D
:104CCC0024D104F01F0000F5E07E4FF0A04C5B00F7
:104CDC005CF82EC091F802E009782CF4E16C43EA00
:104CEC008E032CF0070C43EA0C0343EA012300F576
:104CFC00E0704FF0A04143F0010345F0030541F88B
:104D0C00203026F8175022B92248D5E7012BD8D1EC
:104D1C00D1E71E4E04F1080736F817008307CAD5F1
:104D2C0092F800C06146890020F0200001F180411A
:104D3C00C00401F5C041C00C26F817000023C1F8CF
:104D4C0010355578002DDFD0D1F81035927823F43A
:104D5C00981323F4F853C1F81035D1F810E5230259
:104D6C0003F4F8532D0443EA0E0305F44035120501
:104D7C002B4302F4801240EA4C30134340F02000E5
:104D8C0026F81700C1F81035BEE700BF7C000020E4
:104D9C000400AD0B0000AD0B014BC3E902017047E1
:104DAC007C00002008B50246FFF75CFE38B1054BCD
:104DBC000548083233F812305B0B0B7008BD034802
:104DCC00FCE700BF7C0000200000AD0B0400AD0B25
:104DDC0038B50F4C94F85850BDB94022294604F10F
:104DEC00100018F073FE0620FDF702FC094B0A4870
:104DFC00C3F87C51D3F87C214FF00042C3F8042354
:104E0C00012384F85830636538BD0448FCE700BFC3
:104E1C007C000020006000400000AD0B0500AD0BD5
:104E2C00034B93F85800003818BF0120704700BF9F
:104E3C007C00002001460148FFF7F4BCCC000020A8
:104E4C0001460148FFF7CEBCCC00002010B502464D
:104E5C00FFF708FE02F108041C4B33F81430E0B1E4
:104E6C0013F0020419D15B0B9A0002F1804000F59B
:104E7C00C24002F1804202F5C04204600068D2F8E0
:104E8C00100540F00100C2F8100529B1012202FA08
:104E9C0003F30F4AC2F8043310BDC3F38203042B8F
:104EAC0010D0052B10D04FF0A043D3F8101502F002
:104EBC001F03D94001F001010231BDE8104010463A
:104ECC0019F0AEB80321F8E70221F6E77C000020C8
:104EDC000060004008B50246FFF7C4FDC0B102F106
:104EEC0008010E4B33F81130990711D45B0B0122DA
:104EFC009A409B000A4903F1804303F5C043C1F873
:104F0C000823D3F8102522F00302C3F8102508BD9E
:104F1C00BDE808400021104619F082B87C00002042
:104F2C000060004010B50D4B00F10802044633F848
:104F3C001230DB070FD5FFF7CDFF204604F01F041E
:104F4C00FFF7E2FD04F5E0744FF0A043022243F8B2
:104F5C002420034810BD0348FCE700BF7C00002060
:104F6C000000AD0B0400AD0B2DE9F74F4F4B504833
:104F7C005049002501222C461E6836B1D0F8046336
:104F8C0016421EBF1C601E68154304338B424FEA49
:104F9C004202F1D1464BD3F87C31BBB14FF0A04665
:104FAC00D6F820350193C6F8203501AF4FF0010833
:104FBC00019C8CB93E4BC3F87C41D3F87C31D6F8BC
:104FCC0020350193C6F82035002BEED10124002D9D
:104FDC0053D103B0BDE8F08F94FAA4F4B4FA84F47E
:104FEC00354A04F10803E00832F813103B5C04F076
:104FFC00070208FA02F223EA02033B54A30003F16E
:10500C00A049C1F3820AD9F80027CB06D346C2F3D4
:10501C00014218D5594620465FFA82FAFFF72CFD5B
:10502C00D9F80037C3F301439A4507D10021204634
:10503C0018F0F6FF5146204618F0F2FF08FA04F477
:10504C00C6F82045B4E7022A0CD10321204618F0FB
:10505C00E7FF0AF00503012BF0D159462046FFF774
:10506C000BFDEBE70221204618F0DAFFBAF1030F33
:10507C00F3D0032AE2D18A45EEE795FAA5F3B3FA09
:10508C0083F304FA03F29B0003F1804303F5C0435E
:10509C0025EA0205D3F81005D3F81015C0F3042047
:1050AC00C1F30141FFF7E8FC91E700BF006100404C
:1050BC0000600040206100407C0000200146014857
:1050CC00FFF790BBD800002013B53B4B0193002396
:1050DC00C0F80431D0F80421C0F82431D0F82421D0
:1050EC00C0F81C31D0F81C21C0F80831D0F80821C8
:1050FC00C0F800324B6381F82F300123036291F822
:10510C002D209A4218BF83604B6B8A6A93420446E7
:10511C000ED24A6AD35CC0F81C350B6803B340F25C
:10512C0086238B608B682548C4F8043302B010BD0D
:10513C0091F82C3013B10123C361EEE70B6A13F025
:10514C00400F4FF0010316BFC361436181F82D304E
:10515C00E3E7204618F072FF28B1019B013B019355
:10516C00019B002BF5DC91F82F305BB91348019BA8
:10517C00002BDBDC0023C4F8003505231048C4F8F1
:10518C000035D3E7D4F8C434C4F8C4348BB10D4A19
:10519C000B4813F0010F18BF104613F0020F02F169
:1051AC00010218BF104613F0040F074B18BF184626
:1051BC00DDE70348DBE700BFA08601000000AD0B74
:1051CC000100AD0B0000AE0B0200AE0B13B5334B60
:1051DC0001930023C0F80431D0F80421C0F8243125
:1051EC00D0F82421C0F81C31D0F81C21C0F80831AB
:1051FC00D0F808214B6381F82F308B6A012B0446C1
:10520C0017D10B6A5B0614D40223C4F800320123B5
:10521C00236291F82D20022A18BF23600B688BB1F2
:10522C0040F286238B608B681D48C4F8043302B0AF
:10523C0010BD0123E9E7204618F000FF28B1019BBF
:10524C00013B0193019B002BF5DC91F82F305BB9EE
:10525C001348019B002BEADC0023C4F8003505231E
:10526C001048C4F80035E2E7D4F8C434C4F8C434A8
:10527C008BB10D4A0B4813F0010F18BF104613F0F9
:10528C00020F02F1010218BF104613F0040F074B76
:10529C0018BF1846DDE70348DBE700BFA086010016
:1052AC000000AD0B0100AD0B0000AE0B0200AE0B0D
:1052BC00F8B50679254D4FF03C0E0EFB06FE05EBBE
:1052CC000E0494F82E70002F3DD1D0F800C045F894
:1052DC000E20A760636084F82D7084F8317084F818
:1052EC0030704B7B84F838308B7B84F839308BB939
:1052FC000B6803F01F034FF0A04403F5E07340F27A
:10530C000C6744F823704B6803F01F0303F5E0733C
:10531C0044F82370CB7B2BB9D1E90043CCF808457A
:10532C00CCF80C358B68CCF8243522B1006840F3EE
:10533C000730FDF75DF93C2303FB065504480123B8
:10534C0085F82E30F8BD0348FCE700BFEC48002080
:10535C000000AD0B0500AD0B036802790521C3F805
:10536C000015044B3C2101FB0233022283F82E2052
:10537C00704700BFEC48002003680B4A0179C3F862
:10538C000823D3F8002222F00302C3F800220022E3
:10539C00C3F80025054B3C2000FB0133012183F8A9
:1053AC002E1083F83020704786420400EC48002011
:1053BC002DE9F047314F0479D0F800903C2303FBE2
:1053CC0004730D4693F82D30012B944604D10B78C1
:1053DC00012B06D12A4811E0022B02D10B78012BAC
:1053EC00F8D13C26274BC9F8083306FB047696F80F
:1053FC0030302BB1B3682448C9F80433BDE8F087CA
:10540C008CF00403C3F3800386F83030C6F820C058
:10541C00A846B8E80F0006F10C0EAEE80F00D8F85D
:10542C000030CEF800306B68B362EB6873626B7857
:10543C00C9F888352B78C4EB041A012B07EB8A0AC0
:10544C0017D09BB9CCF3401C3C2303FB047351468F
:10545C00484683F82CC0FFF737FE3C235C433A19CF
:10546C003B59002BCAD182F83030C7E74FF0010C02
:10547C00EAE751464846FFF7A9FEEEE7EC48002064
:10548C000500AD0B864204000B00AD0BF0B5324CA1
:10549C00324887B0214618F0D1FD002859D194F834
:1054AC002F70FFB9227B931E012B1BD8606AA36956
:1054BC00984217D1E36963626369A362236A274840
:1054CC0084F82D70C3F34013032A84F82C3004D1D4
:1054DC0007B0BDE8F040FFF7F7BD07B0BDE8F040FE
:1054EC00FFF774BE1E4E0FCE01AD0FC533682B6097
:1054FC0047B31A4AD2F8C434C2F8C43413F00201C8
:10550C0006D001238DF80030002384F8303007E0FA
:10551C0013F0040209D002238DF8003084F8301007
:10552C00D4E900316846984713E013F0010305D025
:10553C0003238DF8003084F83020F1E704228DF835
:10554C000020E2E7236A8DF800705B0784F8307066
:10555C00E6D507B0F0BD00BFEC480020003000409D
:10556C00F84800202DE9F04100F01F0001F01F0663
:10557C0001244FF0A04504FA00F806F5E07200F59E
:10558C00E07040F20D63B440C5F80885C5F80845D5
:10559C0045F8203045F82230042018F030FD09275A
:1055AC00D5F810351C420DD10420C5F80C8518F027
:1055BC0026FD013FC5F80885042018F020FD17F0E2
:1055CC00FF07EDD14FF0A0450420C5F80C4518F0AD
:1055DC0016FDC5F80845042018F011FDD5F8103556
:1055EC000348F34003F00103C01ABDE8F08100BF8B
:1055FC000100AD0B2DE9F04FA44C97B00A90206838
:10560C001BF014FE0A9B1B689D6BEB6A82460BB168
:10561C0028469847DAF8003053B920680123CAF8B5
:10562C0010300268D2689169CE0710D4002311E0C3
:10563C00DAF80430002BF0D02268DAF81030002BA6
:10564C00EBD01068836A002BF7D09847F4E7926987
:10565C009407EBD5CAF81430DAF814300E930A9B81
:10566C001B685A69C2B11A7C12F0300FD5E900548C
:10567C0000F0B881510740F1B5810668337C03F026
:10568C000602062A1FD1824B00938249824B40F2BC
:10569C007A3203200AF0E4FEDAF8002082B1DAF85C
:1056AC0004306BB10A990968097CC90701D50E99B8
:1056BC0031B1DAF808108A4218BF1346CAF808301C
:1056CC0017B0BDE8F08F03F03002202A33D1A38845
:1056DC002288618801339B1AE2880132521A13FB2B
:1056EC000253681E1F465A1BF91A013A91421BD3EA
:1056FC0073886188B4F90620013B5B1AE3807388D8
:10570C002188013B9B1A63803388B4F90420013B48
:10571C005B1AA3803388013B9B1A23802A462146BF
:10572C00304618F023FDB7E713F8012D10F8011FD0
:10573C0019700270D7E7DA06AED51BF077FD238817
:10574C00B4F9042008930490531C0898B4F9001081
:10575C009BB21F1A0993BBB20B93B4F902300F938F
:10576C0063880593E388059801331B1A1BB20693D3
:10577C0006983FB24FF42053B3FBF7F38342A8BF14
:10578C0003461093337C03F03003102B22D1738823
:10579C0008995A1E521AE280099A9B1A638007EBE9
:1057AC00D7735B1014937B1C03EBD3735B101393B5
:1057BC004FF0000B27EAE773CDF80CB01593069B5E
:1057CC005B450ADC039B002B3FF466AF18460AF0DE
:1057DC005FFC61E76180E280E1E7069B109AA3EB36
:1057EC000B039342A8BF1346049A07930123BDF9F8
:1057FC001C801361BBF1000F40F09A80069B9F4206
:10580C0000F39680337C03F0300311930B9B013B28
:10581C009BB2D84658460D93149A03B293424BDA76
:10582C000D9BA3EB000E0FFA8EFE0EFB07F31293EB
:10583C004FF0000C20E00D9902EB080907FB02E287
:10584C000792129ACB1A19B202FA83F3119A302AE0
:10585C0015F809200C9207FB01011FD16A5C05F8B1
:10586C00092015F8039005F80190079AA95CE954F2
:10587C000C9BAB540CF1010C13990FFA8CF28A426D
:10588C001FFA8CF3D7DB0130B844C5E72849002058
:10589C0006AC0200D2AB0200C2AC0200079AAA5CB2
:1058AC0005F80920079A15F8039005F802906A5C30
:1058BC00EA540C9B6B54DDE7337C03F03003102B64
:1058CC0029D10F9B2380059B0B9A013B1344A3808A
:1058DC00B846069A08EB0B039A427BDC049B9B6947
:1058EC00DB0777D5049B9B69980773D50123049A32
:1058FC005361039A2146002A08BF2A46304618F005
:10590C0035FC049B1B69002B66D108FB0755D8445A
:10591C000FFA88FB53E73388059A013B9B1A089AC8
:10592C009BB20132A3801344099A9B1A2380CFE7C0
:10593C00039B23B94FF420500AF02AFB0390307CD0
:10594C0000F030030C9307FB08F3A3EB0809013BB1
:10595C00A3EB0903AE4600210D930AB2904510DC6F
:10596C00337CBDF81C2003F03003102B1FFA8BF195
:10597C0025D1059B194489B2218001391144A1809C
:10598C00A7E70C9B302B0ABF0D9B01EB09025A1A9F
:10599C004FF0000C0FFA8CF39F4203DC159B013186
:1059AC009E44DAE703981EF80C3083540C9B302B82
:1059BC000CBF4244A2EB08020CF1010CEAE733885D
:1059CC000598013B1B1A5B1A9BB2A38001339B1AEF
:1059DC0023807EE700238AE7B36A002B91D0304600
:1059EC0098478EE72A46214618469AE62DE9F84351
:1059FC0006460D4629B91F4B186802F085FC054672
:105A0C0040B13046294618F000FC28461BF07FFABE
:105A1C00044608B9BDE8F88320461BF08AFA002733
:105A2C008046B946474513D132461721204602F02D
:105A3C0063FE32461821204602F05EFE32461921E2
:105A4C00204602F059FE20461BF061FA2546DFE79E
:105A5C00A3681B6853F82710B9F1000F06D16B1A15
:105A6C00D3F1000949EB03090137DBE7304618F0A5
:105A7C00CCFBF9E72849002070B5604D92B0044684
:105A8C0028681BF0D3FB03680646002B3BD1286823
:105A9C00666802F039FC0146304618F07FFB2B6833
:105AAC005969064600293BD1002863D1A66A002E0D
:105ABC0045D12B68D86A002800F0828003A90BF02E
:105ACC00B1FC012872D1BDF80E10039BC1F34A1131
